{
	"data": {
		"bytecode": {
			"linkReferences": {},
			"object": "60806040526040518060200160405280600081525060c990805190602001906200002b92919062000068565b506040518060200160405280600081525060ca90805190602001906200005392919062000068565b503480156200006157600080fd5b506200017d565b828054620000769062000147565b90600052602060002090601f0160209004810192826200009a5760008555620000e6565b82601f10620000b557805160ff1916838001178555620000e6565b82800160010185558215620000e6579182015b82811115620000e5578251825591602001919060010190620000c8565b5b509050620000f59190620000f9565b5090565b5b8082111562000114576000816000905550600101620000fa565b5090565b7f4e487b7100000000000000000000000000000000000000000000000000000000600052602260045260246000fd5b600060028204905060018216806200016057607f821691505b6020821081141562000177576200017662000118565b5b50919050565b614756806200018d6000396000f3fe608060405234801561001057600080fd5b50600436106101f05760003560e01c8063707188c11161010f578063a22cb465116100a2578063c87b56dd11610071578063c87b56dd146105c9578063e4860339146105f9578063e985e9c514610629578063efb4b36214610659576101f0565b8063a22cb46514610543578063b88d4fde1461055f578063baa51f861461057b578063c73eefda146105ab576101f0565b806391708caf116100de57806391708caf146104cf57806395d89b41146104eb5780639600dd8314610509578063a1b3351a14610525576101f0565b8063707188c11461044957806370a0823114610465578063738fa7a4146104955780637fdcc5b8146104b3576101f0565b80632f745c59116101875780635541c3f9116101565780635541c3f9146103af5780635c6d8da1146103cd5780636352211e146103e957806369ade8b614610419576101f0565b80632f745c59146103035780633af32abf1461033357806342842e0e146103635780634f6ccce71461037f576101f0565b806318160ddd116101c357806318160ddd1461028f57806323b872dd146102ad57806323cfeeca146102c9578063282b79f0146102e5576101f0565b806301ffc9a7146101f557806306fdde0314610225578063081812fc14610243578063095ea7b314610273575b600080fd5b61020f600480360381019061020a9190612e52565b610689565b60405161021c9190612e9a565b60405180910390f35b61022d610703565b60405161023a9190612f4e565b60405180910390f35b61025d60048036038101906102589190612fa6565b610795565b60405161026a9190613014565b60405180910390f35b61028d6004803603810190610288919061305b565b6107db565b005b6102976108f3565b6040516102a491906130aa565b60405180910390f35b6102c760048036038101906102c291906130c5565b610900565b005b6102e360048036038101906102de9190613151565b610960565b005b6102ed6109cb565b6040516102fa9190613262565b60405180910390f35b61031d6004803603810190610318919061305b565b610a23565b60405161032a91906130aa565b60405180910390f35b61034d60048036038101906103489190613284565b610ac8565b60405161035a9190612e9a565b60405180910390f35b61037d600480360381019061037891906130c5565b610b6d565b005b61039960048036038101906103949190612fa6565b610b8d565b6040516103a691906130aa565b60405180910390f35b6103b7610bfe565b6040516103c49190613262565b60405180910390f35b6103e760048036038101906103e291906133e6565b610c93565b005b61040360048036038101906103fe9190612fa6565b610e7b565b6040516104109190613014565b60405180910390f35b610433600480360381019061042e9190612fa6565b610f2d565b6040516104409190613014565b60405180910390f35b610463600480360381019061045e91906134a1565b610fb5565b005b61047f600480360381019061047a9190613284565b61101c565b60405161048c91906130aa565b60405180910390f35b61049d6110d4565b6040516104aa91906130aa565b60405180910390f35b6104cd60048036038101906104c891906135a9565b611151565b005b6104e960048036038101906104e49190613605565b6111e4565b005b6104f36114aa565b6040516105009190612f4e565b60405180910390f35b610523600480360381019061051e919061305b565b61153c565b005b61052d61154a565b60405161053a91906130aa565b60405180910390f35b61055d60048036038101906105589190613684565b61155b565b005b61057960048036038101906105749190613765565b611571565b005b61059560048036038101906105909190612fa6565b6115d3565b6040516105a29190612e9a565b60405180910390f35b6105b36115fd565b6040516105c091906130aa565b60405180910390f35b6105e360048036038101906105de9190612fa6565b61160e565b6040516105f09190612f4e565b60405180910390f35b610613600480360381019061060e9190613284565b6116b8565b6040516106209190613262565b60405180910390f35b610643600480360381019061063e91906137e8565b611766565b6040516106509190612e9a565b60405180910390f35b610673600480360381019061066e9190612fa6565b6117fa565b60405161068091906130aa565b60405180910390f35b60007f780e9d63000000000000000000000000000000000000000000000000000000007bffffffffffffffffffffffffffffffffffffffffffffffffffffffff1916827bffffffffffffffffffffffffffffffffffffffffffffffffffffffff191614806106fc57506106fb82611862565b5b9050919050565b60606065805461071290613857565b80601f016020809104026020016040519081016040528092919081815260200182805461073e90613857565b801561078b5780601f106107605761010080835404028352916020019161078b565b820191906000526020600020905b81548152906001019060200180831161076e57829003601f168201915b5050505050905090565b60006107a082611944565b6069600083815260200190815260200160002060009054906101000a900473ffffffffffffffffffffffffffffffffffffffff169050919050565b60006107e682610e7b565b90508073ffffffffffffffffffffffffffffffffffffffff168373ffffffffffffffffffffffffffffffffffffffff161415610857576040517f08c379a000000000000000000000000000000000000000000000000000000000815260040161084e906138fb565b60405180910390fd5b8073ffffffffffffffffffffffffffffffffffffffff1661087661198f565b73ffffffffffffffffffffffffffffffffffffffff1614806108a557506108a48161089f61198f565b611766565b5b6108e4576040517f08c379a00000000000000000000000000000000000000000000000000000000081526004016108db9061398d565b60405180910390fd5b6108ee8383611997565b505050565b6000609980549050905090565b61091161090b61198f565b82611a50565b610950576040517f08c379a000000000000000000000000000000000000000000000000000000000815260040161094790613a1f565b60405180910390fd5b61095b838383611ae5565b505050565b61096a8383611d4c565b60cc82908060018154018082558091505060019003906000526020600020016000909190919091505560008160ff1614156109ae576109a960cd611d6a565b6109c6565b60018160ff1614156109c5576109c460ce611d6a565b5b5b505050565b606060cc805480602002602001604051908101604052809291908181526020018280548015610a1957602002820191906000526020600020905b815481526020019060010190808311610a05575b5050505050905090565b6000610a2e8361101c565b8210610a6f576040517f08c379a0000000000000000000000000000000000000000000000000000000008152600401610a6690613ab1565b60405180910390fd5b609760008473ffffffffffffffffffffffffffffffffffffffff1673ffffffffffffffffffffffffffffffffffffffff168152602001908152602001600020600083815260200190815260200160002054905092915050565b600060cb60009054906101000a900473ffffffffffffffffffffffffffffffffffffffff1673ffffffffffffffffffffffffffffffffffffffff16633af32abf836040518263ffffffff1660e01b8152600401610b259190613014565b602060405180830381865afa158015610b42573d6000803e3d6000fd5b505050506040513d601f19601f82011682018060405250810190610b669190613ae6565b9050919050565b610b8883838360405180602001604052806000815250611571565b505050565b6000610b976108f3565b8210610bd8576040517f08c379a0000000000000000000000000000000000000000000000000000000008152600401610bcf90613b85565b60405180910390fd5b60998281548110610bec57610beb613ba5565b5b90600052602060002001549050919050565b606060d260003273ffffffffffffffffffffffffffffffffffffffff1673ffffffffffffffffffffffffffffffffffffffff168152602001908152602001600020805480602002602001604051908101604052809291908181526020018280548015610c8957602002820191906000526020600020905b815481526020019060010190808311610c75575b5050505050905090565b60008060019054906101000a900460ff16159050808015610cc45750600160008054906101000a900460ff1660ff16105b80610cf15750610cd330611d80565b158015610cf05750600160008054906101000a900460ff1660ff16145b5b610d30576040517f08c379a0000000000000000000000000000000000000000000000000000000008152600401610d2790613c46565b60405180910390fd5b60016000806101000a81548160ff021916908360ff1602179055508015610d6d576001600060016101000a81548160ff0219169083151502179055505b610d778585611da3565b8260c99080519060200190610d8d929190612d43565b506040518060400160405280600581526020017f2e6a736f6e00000000000000000000000000000000000000000000000000000081525060ca9080519060200190610dd9929190612d43565b508160cb60006101000a81548173ffffffffffffffffffffffffffffffffffffffff021916908373ffffffffffffffffffffffffffffffffffffffff1602179055508015610e745760008060016101000a81548160ff0219169083151502179055507f7f26b83ff96e1f2b6a682f133852f6798a09c465da95921460cefb38474024986001604051610e6b9190613cab565b60405180910390a15b5050505050565b6000806067600084815260200190815260200160002060009054906101000a900473ffffffffffffffffffffffffffffffffffffffff169050600073ffffffffffffffffffffffffffffffffffffffff168173ffffffffffffffffffffffffffffffffffffffff161415610f24576040517f08c379a0000000000000000000000000000000000000000000000000000000008152600401610f1b90613d12565b60405180910390fd5b80915050919050565b6000610f38826115d3565b610f77576040517f08c379a0000000000000000000000000000000000000000000000000000000008152600401610f6e90613d7e565b60405180910390fd5b60cf600083815260200190815260200160002060020160009054906101000a900473ffffffffffffffffffffffffffffffffffffffff169050919050565b610fbe826115d3565b610ffd576040517f08c379a0000000000000000000000000000000000000000000000000000000008152600401610ff490613d7e565b60405180910390fd5b8060cf6000848152602001908152602001600020600101819055505050565b60008073ffffffffffffffffffffffffffffffffffffffff168273ffffffffffffffffffffffffffffffffffffffff16141561108d576040517f08c379a000000000000000000000000000000000000000000000000000000000815260040161108490613e10565b60405180910390fd5b606860008373ffffffffffffffffffffffffffffffffffffffff1673ffffffffffffffffffffffffffffffffffffffff168152602001908152602001600020549050919050565b6000806110df610bfe565b516110e93261101c565b6110f39190613e5f565b9050600081141561110857600091505061114e565b600181101580156111195750600581105b1561112857600191505061114e565b600581101580156111395750600a81105b1561114857600291505061114e565b60039150505b90565b600581511115611196576040517f08c379a000000000000000000000000000000000000000000000000000000000815260040161118d90613f01565b60405180910390fd5b60005b81518160ff1610156111df576111cc83838360ff16815181106111bf576111be613ba5565b5b6020026020010151611997565b80806111d790613f21565b915050611199565b505050565b6000151560d0600085815260200190815260200160002060009054906101000a900460ff161515141561130857600160d0600085815260200190815260200160002060006101000a81548160ff02191690831515021790555060d160008273ffffffffffffffffffffffffffffffffffffffff1673ffffffffffffffffffffffffffffffffffffffff168152602001908152602001600020600081548092919061128d90613f4b565b919050555060d260008273ffffffffffffffffffffffffffffffffffffffff1673ffffffffffffffffffffffffffffffffffffffff168152602001908152602001600020839080600181540180825580915050600190039060005260206000200160009091909190915055611303838383611e00565b6114a5565b6001151560d0600085815260200190815260200160002060009054906101000a900460ff16151514156114a457600060d0600085815260200190815260200160002060006101000a81548160ff02191690831515021790555060d160008273ffffffffffffffffffffffffffffffffffffffff1673ffffffffffffffffffffffffffffffffffffffff16815260200190815260200160002060008154809291906113b190613f94565b9190505550600061144f60d260008473ffffffffffffffffffffffffffffffffffffffff1673ffffffffffffffffffffffffffffffffffffffff16815260200190815260200160002080548060200260200160405190810160405280929190818152602001828054801561144457602002820191906000526020600020905b815481526020019060010190808311611430575b505050505085611ea7565b905061149960d260008473ffffffffffffffffffffffffffffffffffffffff1673ffffffffffffffffffffffffffffffffffffffff16815260200190815260200160002082611f03565b6114a284611ff1565b505b5b505050565b6060606680546114b990613857565b80601f01602080910402602001604051908101604052809291908181526020018280546114e590613857565b80156115325780601f1061150757610100808354040283529160200191611532565b820191906000526020600020905b81548152906001019060200180831161151557829003601f168201915b5050505050905090565b6115468282611997565b5050565b600061155660ce612041565b905090565b61156d61156661198f565b838361204f565b5050565b61158261157c61198f565b83611a50565b6115c1576040517f08c379a00000000000000000000000000000000000000000000000000000000081526004016115b890613a1f565b60405180910390fd5b6115cd848484846121bc565b50505050565b600060d0600083815260200190815260200160002060009054906101000a900460ff169050919050565b600061160960cd612041565b905090565b606061161982612218565b611658576040517f08c379a000000000000000000000000000000000000000000000000000000000815260040161164f90614030565b60405180910390fd5b6000611662612284565b9050600081511161168257604051806020016040528060008152506116b0565b8061168c84612316565b60ca6040516020016116a093929190614120565b6040516020818303038152906040525b915050919050565b606060006116c58361101c565b905060008167ffffffffffffffff8111156116e3576116e26132bb565b5b6040519080825280602002602001820160405280156117115781602001602082028036833780820191505090505b50905060005b8281101561175b576117298582610a23565b82828151811061173c5761173b613ba5565b5b602002602001018181525050808061175390613f4b565b915050611717565b508092505050919050565b6000606a60008473ffffffffffffffffffffffffffffffffffffffff1673ffffffffffffffffffffffffffffffffffffffff16815260200190815260200160002060008373ffffffffffffffffffffffffffffffffffffffff1673ffffffffffffffffffffffffffffffffffffffff16815260200190815260200160002060009054906101000a900460ff16905092915050565b6000611805826115d3565b611844576040517f08c379a000000000000000000000000000000000000000000000000000000000815260040161183b90613d7e565b60405180910390fd5b60cf6000838152602001908152602001600020600101549050919050565b60007f80ac58cd000000000000000000000000000000000000000000000000000000007bffffffffffffffffffffffffffffffffffffffffffffffffffffffff1916827bffffffffffffffffffffffffffffffffffffffffffffffffffffffff1916148061192d57507f5b5e139f000000000000000000000000000000000000000000000000000000007bffffffffffffffffffffffffffffffffffffffffffffffffffffffff1916827bffffffffffffffffffffffffffffffffffffffffffffffffffffffff1916145b8061193d575061193c82612477565b5b9050919050565b61194d81612218565b61198c576040517f08c379a000000000000000000000000000000000000000000000000000000000815260040161198390613d12565b60405180910390fd5b50565b600033905090565b816069600083815260200190815260200160002060006101000a81548173ffffffffffffffffffffffffffffffffffffffff021916908373ffffffffffffffffffffffffffffffffffffffff160217905550808273ffffffffffffffffffffffffffffffffffffffff16611a0a83610e7b565b73ffffffffffffffffffffffffffffffffffffffff167f8c5be1e5ebec7d5bd14f71427d1e84f3dd0314c0f7b2291e5b200ac8c7c3b92560405160405180910390a45050565b600080611a5c83610e7b565b90508073ffffffffffffffffffffffffffffffffffffffff168473ffffffffffffffffffffffffffffffffffffffff161480611a9e5750611a9d8185611766565b5b80611adc57508373ffffffffffffffffffffffffffffffffffffffff16611ac484610795565b73ffffffffffffffffffffffffffffffffffffffff16145b91505092915050565b8273ffffffffffffffffffffffffffffffffffffffff16611b0582610e7b565b73ffffffffffffffffffffffffffffffffffffffff1614611b5b576040517f08c379a0000000000000000000000000000000000000000000000000000000008152600401611b52906141c3565b60405180910390fd5b600073ffffffffffffffffffffffffffffffffffffffff168273ffffffffffffffffffffffffffffffffffffffff161415611bcb576040517f08c379a0000000000000000000000000000000000000000000000000000000008152600401611bc290614255565b60405180910390fd5b611bd68383836124e1565b611be1600082611997565b6001606860008573ffffffffffffffffffffffffffffffffffffffff1673ffffffffffffffffffffffffffffffffffffffff1681526020019081526020016000206000828254611c319190614275565b925050819055506001606860008473ffffffffffffffffffffffffffffffffffffffff1673ffffffffffffffffffffffffffffffffffffffff1681526020019081526020016000206000828254611c889190613e5f565b92505081905550816067600083815260200190815260200160002060006101000a81548173ffffffffffffffffffffffffffffffffffffffff021916908373ffffffffffffffffffffffffffffffffffffffff160217905550808273ffffffffffffffffffffffffffffffffffffffff168473ffffffffffffffffffffffffffffffffffffffff167fddf252ad1be2c89b69c2b068fc378daa952ba7f163c4a11628f55a4df523b3ef60405160405180910390a4611d478383836125f5565b505050565b611d668282604051806020016040528060008152506125fa565b5050565b6001816000016000828254019250508190555050565b6000808273ffffffffffffffffffffffffffffffffffffffff163b119050919050565b600060019054906101000a900460ff16611df2576040517f08c379a0000000000000000000000000000000000000000000000000000000008152600401611de99061431b565b60405180910390fd5b611dfc8282612655565b5050565b60405180606001604052808481526020018381526020018273ffffffffffffffffffffffffffffffffffffffff1681525060cf6000858152602001908152602001600020600082015181600001556020820151816001015560408201518160020160006101000a81548173ffffffffffffffffffffffffffffffffffffffff021916908373ffffffffffffffffffffffffffffffffffffffff160217905550905050505050565b600080600090505b8351811015611ef65782848281518110611ecc57611ecb613ba5565b5b60200260200101511415611ee35780915050611efd565b8080611eee90613f4b565b915050611eaf565b5061010190505b92915050565b80828054905011611f49576040517f08c379a0000000000000000000000000000000000000000000000000000000008152600401611f4090614387565b60405180910390fd5b60008190505b60018380549050611f609190614275565b811015611fc55782600182611f759190613e5f565b81548110611f8657611f85613ba5565b5b9060005260206000200154838281548110611fa457611fa3613ba5565b5b90600052602060002001819055508080611fbd90613f4b565b915050611f4f565b5081805480611fd757611fd66143a7565b5b600190038181906000526020600020016000905590555050565b60cf600082815260200190815260200160002060008082016000905560018201600090556002820160006101000a81549073ffffffffffffffffffffffffffffffffffffffff0219169055505050565b600081600001549050919050565b8173ffffffffffffffffffffffffffffffffffffffff168373ffffffffffffffffffffffffffffffffffffffff1614156120be576040517f08c379a00000000000000000000000000000000000000000000000000000000081526004016120b590614422565b60405180910390fd5b80606a60008573ffffffffffffffffffffffffffffffffffffffff1673ffffffffffffffffffffffffffffffffffffffff16815260200190815260200160002060008473ffffffffffffffffffffffffffffffffffffffff1673ffffffffffffffffffffffffffffffffffffffff16815260200190815260200160002060006101000a81548160ff0219169083151502179055508173ffffffffffffffffffffffffffffffffffffffff168373ffffffffffffffffffffffffffffffffffffffff167f17307eab39ab6107e8899845ad3d59bd9653f200f220920489ca2b5937696c31836040516121af9190612e9a565b60405180910390a3505050565b6121c7848484611ae5565b6121d3848484846126d6565b612212576040517f08c379a0000000000000000000000000000000000000000000000000000000008152600401612209906144b4565b60405180910390fd5b50505050565b60008073ffffffffffffffffffffffffffffffffffffffff166067600084815260200190815260200160002060009054906101000a900473ffffffffffffffffffffffffffffffffffffffff1673ffffffffffffffffffffffffffffffffffffffff1614159050919050565b606060c9805461229390613857565b80601f01602080910402602001604051908101604052809291908181526020018280546122bf90613857565b801561230c5780601f106122e15761010080835404028352916020019161230c565b820191906000526020600020905b8154815290600101906020018083116122ef57829003601f168201915b5050505050905090565b6060600082141561235e576040518060400160405280600181526020017f30000000000000000000000000000000000000000000000000000000000000008152509050612472565b600082905060005b6000821461239057808061237990613f4b565b915050600a826123899190614503565b9150612366565b60008167ffffffffffffffff8111156123ac576123ab6132bb565b5b6040519080825280601f01601f1916602001820160405280156123de5781602001600182028036833780820191505090505b5090505b6000851461246b576001826123f79190614275565b9150600a856124069190614534565b60306124129190613e5f565b60f81b81838151811061242857612427613ba5565b5b60200101907effffffffffffffffffffffffffffffffffffffffffffffffffffffffffffff1916908160001a905350600a856124649190614503565b94506123e2565b8093505050505b919050565b60007f01ffc9a7000000000000000000000000000000000000000000000000000000007bffffffffffffffffffffffffffffffffffffffffffffffffffffffff1916827bffffffffffffffffffffffffffffffffffffffffffffffffffffffff1916149050919050565b6124ec83838361285e565b600073ffffffffffffffffffffffffffffffffffffffff168373ffffffffffffffffffffffffffffffffffffffff16141561252f5761252a81612863565b61256e565b8173ffffffffffffffffffffffffffffffffffffffff168373ffffffffffffffffffffffffffffffffffffffff161461256d5761256c83826128ac565b5b5b600073ffffffffffffffffffffffffffffffffffffffff168273ffffffffffffffffffffffffffffffffffffffff1614156125b1576125ac81612a19565b6125f0565b8273ffffffffffffffffffffffffffffffffffffffff168273ffffffffffffffffffffffffffffffffffffffff16146125ef576125ee8282612aea565b5b5b505050565b505050565b6126048383612b69565b61261160008484846126d6565b612650576040517f08c379a0000000000000000000000000000000000000000000000000000000008152600401612647906144b4565b60405180910390fd5b505050565b600060019054906101000a900460ff166126a4576040517f08c379a000000000000000000000000000000000000000000000000000000000815260040161269b9061431b565b60405180910390fd5b81606590805190602001906126ba929190612d43565b5080606690805190602001906126d1929190612d43565b505050565b60006126f78473ffffffffffffffffffffffffffffffffffffffff16611d80565b15612851578373ffffffffffffffffffffffffffffffffffffffff1663150b7a0261272061198f565b8786866040518563ffffffff1660e01b815260040161274294939291906145ba565b6020604051808303816000875af192505050801561277e57506040513d601f19601f8201168201806040525081019061277b919061461b565b60015b612801573d80600081146127ae576040519150601f19603f3d011682016040523d82523d6000602084013e6127b3565b606091505b506000815114156127f9576040517f08c379a00000000000000000000000000000000000000000000000000000000081526004016127f0906144b4565b60405180910390fd5b805181602001fd5b63150b7a0260e01b7bffffffffffffffffffffffffffffffffffffffffffffffffffffffff1916817bffffffffffffffffffffffffffffffffffffffffffffffffffffffff191614915050612856565b600190505b949350505050565b505050565b609980549050609a600083815260200190815260200160002081905550609981908060018154018082558091505060019003906000526020600020016000909190919091505550565b600060016128b98461101c565b6128c39190614275565b90506000609860008481526020019081526020016000205490508181146129a8576000609760008673ffffffffffffffffffffffffffffffffffffffff1673ffffffffffffffffffffffffffffffffffffffff168152602001908152602001600020600084815260200190815260200160002054905080609760008773ffffffffffffffffffffffffffffffffffffffff1673ffffffffffffffffffffffffffffffffffffffff168152602001908152602001600020600084815260200190815260200160002081905550816098600083815260200190815260200160002081905550505b6098600084815260200190815260200160002060009055609760008573ffffffffffffffffffffffffffffffffffffffff1673ffffffffffffffffffffffffffffffffffffffff16815260200190815260200160002060008381526020019081526020016000206000905550505050565b60006001609980549050612a2d9190614275565b90506000609a6000848152602001908152602001600020549050600060998381548110612a5d57612a5c613ba5565b5b906000526020600020015490508060998381548110612a7f57612a7e613ba5565b5b906000526020600020018190555081609a600083815260200190815260200160002081905550609a6000858152602001908152602001600020600090556099805480612ace57612acd6143a7565b5b6001900381819060005260206000200160009055905550505050565b6000612af58361101c565b905081609760008573ffffffffffffffffffffffffffffffffffffffff1673ffffffffffffffffffffffffffffffffffffffff168152602001908152602001600020600083815260200190815260200160002081905550806098600084815260200190815260200160002081905550505050565b600073ffffffffffffffffffffffffffffffffffffffff168273ffffffffffffffffffffffffffffffffffffffff161415612bd9576040517f08c379a0000000000000000000000000000000000000000000000000000000008152600401612bd090614694565b60405180910390fd5b612be281612218565b15612c22576040517f08c379a0000000000000000000000000000000000000000000000000000000008152600401612c1990614700565b60405180910390fd5b612c2e600083836124e1565b6001606860008473ffffffffffffffffffffffffffffffffffffffff1673ffffffffffffffffffffffffffffffffffffffff1681526020019081526020016000206000828254612c7e9190613e5f565b92505081905550816067600083815260200190815260200160002060006101000a81548173ffffffffffffffffffffffffffffffffffffffff021916908373ffffffffffffffffffffffffffffffffffffffff160217905550808273ffffffffffffffffffffffffffffffffffffffff16600073ffffffffffffffffffffffffffffffffffffffff167fddf252ad1be2c89b69c2b068fc378daa952ba7f163c4a11628f55a4df523b3ef60405160405180910390a4612d3f600083836125f5565b5050565b828054612d4f90613857565b90600052602060002090601f016020900481019282612d715760008555612db8565b82601f10612d8a57805160ff1916838001178555612db8565b82800160010185558215612db8579182015b82811115612db7578251825591602001919060010190612d9c565b5b509050612dc59190612dc9565b5090565b5b80821115612de2576000816000905550600101612dca565b5090565b6000604051905090565b600080fd5b600080fd5b60007fffffffff0000000000000000000000000000000000000000000000000000000082169050919050565b612e2f81612dfa565b8114612e3a57600080fd5b50565b600081359050612e4c81612e26565b92915050565b600060208284031215612e6857612e67612df0565b5b6000612e7684828501612e3d565b91505092915050565b60008115159050919050565b612e9481612e7f565b82525050565b6000602082019050612eaf6000830184612e8b565b92915050565b600081519050919050565b600082825260208201905092915050565b60005b83811015612eef578082015181840152602081019050612ed4565b83811115612efe576000848401525b50505050565b6000601f19601f8301169050919050565b6000612f2082612eb5565b612f2a8185612ec0565b9350612f3a818560208601612ed1565b612f4381612f04565b840191505092915050565b60006020820190508181036000830152612f688184612f15565b905092915050565b6000819050919050565b612f8381612f70565b8114612f8e57600080fd5b50565b600081359050612fa081612f7a565b92915050565b600060208284031215612fbc57612fbb612df0565b5b6000612fca84828501612f91565b91505092915050565b600073ffffffffffffffffffffffffffffffffffffffff82169050919050565b6000612ffe82612fd3565b9050919050565b61300e81612ff3565b82525050565b60006020820190506130296000830184613005565b92915050565b61303881612ff3565b811461304357600080fd5b50565b6000813590506130558161302f565b92915050565b6000806040838503121561307257613071612df0565b5b600061308085828601613046565b925050602061309185828601612f91565b9150509250929050565b6130a481612f70565b82525050565b60006020820190506130bf600083018461309b565b92915050565b6000806000606084860312156130de576130dd612df0565b5b60006130ec86828701613046565b93505060206130fd86828701613046565b925050604061310e86828701612f91565b9150509250925092565b600060ff82169050919050565b61312e81613118565b811461313957600080fd5b50565b60008135905061314b81613125565b92915050565b60008060006060848603121561316a57613169612df0565b5b600061317886828701613046565b935050602061318986828701612f91565b925050604061319a8682870161313c565b9150509250925092565b600081519050919050565b600082825260208201905092915050565b6000819050602082019050919050565b6131d981612f70565b82525050565b60006131eb83836131d0565b60208301905092915050565b6000602082019050919050565b600061320f826131a4565b61321981856131af565b9350613224836131c0565b8060005b8381101561325557815161323c88826131df565b9750613247836131f7565b925050600181019050613228565b5085935050505092915050565b6000602082019050818103600083015261327c8184613204565b905092915050565b60006020828403121561329a57613299612df0565b5b60006132a884828501613046565b91505092915050565b600080fd5b600080fd5b7f4e487b7100000000000000000000000000000000000000000000000000000000600052604160045260246000fd5b6132f382612f04565b810181811067ffffffffffffffff82111715613312576133116132bb565b5b80604052505050565b6000613325612de6565b905061333182826132ea565b919050565b600067ffffffffffffffff821115613351576133506132bb565b5b61335a82612f04565b9050602081019050919050565b82818337600083830152505050565b600061338961338484613336565b61331b565b9050828152602081018484840111156133a5576133a46132b6565b5b6133b0848285613367565b509392505050565b600082601f8301126133cd576133cc6132b1565b5b81356133dd848260208601613376565b91505092915050565b60008060008060808587031215613400576133ff612df0565b5b600085013567ffffffffffffffff81111561341e5761341d612df5565b5b61342a878288016133b8565b945050602085013567ffffffffffffffff81111561344b5761344a612df5565b5b613457878288016133b8565b935050604085013567ffffffffffffffff81111561347857613477612df5565b5b613484878288016133b8565b925050606061349587828801613046565b91505092959194509250565b600080604083850312156134b8576134b7612df0565b5b60006134c685828601612f91565b92505060206134d785828601612f91565b9150509250929050565b600067ffffffffffffffff8211156134fc576134fb6132bb565b5b602082029050602081019050919050565b600080fd5b6000613525613520846134e1565b61331b565b905080838252602082019050602084028301858111156135485761354761350d565b5b835b81811015613571578061355d8882612f91565b84526020840193505060208101905061354a565b5050509392505050565b600082601f8301126135905761358f6132b1565b5b81356135a0848260208601613512565b91505092915050565b600080604083850312156135c0576135bf612df0565b5b60006135ce85828601613046565b925050602083013567ffffffffffffffff8111156135ef576135ee612df5565b5b6135fb8582860161357b565b9150509250929050565b60008060006060848603121561361e5761361d612df0565b5b600061362c86828701612f91565b935050602061363d86828701612f91565b925050604061364e86828701613046565b9150509250925092565b61366181612e7f565b811461366c57600080fd5b50565b60008135905061367e81613658565b92915050565b6000806040838503121561369b5761369a612df0565b5b60006136a985828601613046565b92505060206136ba8582860161366f565b9150509250929050565b600067ffffffffffffffff8211156136df576136de6132bb565b5b6136e882612f04565b9050602081019050919050565b6000613708613703846136c4565b61331b565b905082815260208101848484011115613724576137236132b6565b5b61372f848285613367565b509392505050565b600082601f83011261374c5761374b6132b1565b5b813561375c8482602086016136f5565b91505092915050565b6000806000806080858703121561377f5761377e612df0565b5b600061378d87828801613046565b945050602061379e87828801613046565b93505060406137af87828801612f91565b925050606085013567ffffffffffffffff8111156137d0576137cf612df5565b5b6137dc87828801613737565b91505092959194509250565b600080604083850312156137ff576137fe612df0565b5b600061380d85828601613046565b925050602061381e85828601613046565b9150509250929050565b7f4e487b7100000000000000000000000000000000000000000000000000000000600052602260045260246000fd5b6000600282049050600182168061386f57607f821691505b6020821081141561388357613882613828565b5b50919050565b7f4552433732313a20617070726f76616c20746f2063757272656e74206f776e6560008201527f7200000000000000000000000000000000000000000000000000000000000000602082015250565b60006138e5602183612ec0565b91506138f082613889565b604082019050919050565b60006020820190508181036000830152613914816138d8565b9050919050565b7f4552433732313a20617070726f76652063616c6c6572206973206e6f7420746f60008201527f6b656e206f776e6572206e6f7220617070726f76656420666f7220616c6c0000602082015250565b6000613977603e83612ec0565b91506139828261391b565b604082019050919050565b600060208201905081810360008301526139a68161396a565b9050919050565b7f4552433732313a2063616c6c6572206973206e6f7420746f6b656e206f776e6560008201527f72206e6f7220617070726f766564000000000000000000000000000000000000602082015250565b6000613a09602e83612ec0565b9150613a14826139ad565b604082019050919050565b60006020820190508181036000830152613a38816139fc565b9050919050565b7f455243373231456e756d657261626c653a206f776e657220696e646578206f7560008201527f74206f6620626f756e6473000000000000000000000000000000000000000000602082015250565b6000613a9b602b83612ec0565b9150613aa682613a3f565b604082019050919050565b60006020820190508181036000830152613aca81613a8e565b9050919050565b600081519050613ae081613658565b92915050565b600060208284031215613afc57613afb612df0565b5b6000613b0a84828501613ad1565b91505092915050565b7f455243373231456e756d657261626c653a20676c6f62616c20696e646578206f60008201527f7574206f6620626f756e64730000000000000000000000000000000000000000602082015250565b6000613b6f602c83612ec0565b9150613b7a82613b13565b604082019050919050565b60006020820190508181036000830152613b9e81613b62565b9050919050565b7f4e487b7100000000000000000000000000000000000000000000000000000000600052603260045260246000fd5b7f496e697469616c697a61626c653a20636f6e747261637420697320616c72656160008201527f647920696e697469616c697a6564000000000000000000000000000000000000602082015250565b6000613c30602e83612ec0565b9150613c3b82613bd4565b604082019050919050565b60006020820190508181036000830152613c5f81613c23565b9050919050565b6000819050919050565b6000819050919050565b6000613c95613c90613c8b84613c66565b613c70565b613118565b9050919050565b613ca581613c7a565b82525050565b6000602082019050613cc06000830184613c9c565b92915050565b7f4552433732313a20696e76616c696420746f6b656e2049440000000000000000600082015250565b6000613cfc601883612ec0565b9150613d0782613cc6565b602082019050919050565b60006020820190508181036000830152613d2b81613cef565b9050919050565b7f54686973206973206e6f74207374616b6564204e465400000000000000000000600082015250565b6000613d68601683612ec0565b9150613d7382613d32565b602082019050919050565b60006020820190508181036000830152613d9781613d5b565b9050919050565b7f4552433732313a2061646472657373207a65726f206973206e6f74206120766160008201527f6c6964206f776e65720000000000000000000000000000000000000000000000602082015250565b6000613dfa602983612ec0565b9150613e0582613d9e565b604082019050919050565b60006020820190508181036000830152613e2981613ded565b9050919050565b7f4e487b7100000000000000000000000000000000000000000000000000000000600052601160045260246000fd5b6000613e6a82612f70565b9150613e7583612f70565b9250827fffffffffffffffffffffffffffffffffffffffffffffffffffffffffffffffff03821115613eaa57613ea9613e30565b5b828201905092915050565b7f546f6f206d616e79206c6f6f7000000000000000000000000000000000000000600082015250565b6000613eeb600d83612ec0565b9150613ef682613eb5565b602082019050919050565b60006020820190508181036000830152613f1a81613ede565b9050919050565b6000613f2c82613118565b915060ff821415613f4057613f3f613e30565b5b600182019050919050565b6000613f5682612f70565b91507fffffffffffffffffffffffffffffffffffffffffffffffffffffffffffffffff821415613f8957613f88613e30565b5b600182019050919050565b6000613f9f82612f70565b91506000821415613fb357613fb2613e30565b5b600182039050919050565b7f4552433732314d657461646174613a2055524920717565727920666f72206e6f60008201527f6e6578697374656e7420746f6b656e0000000000000000000000000000000000602082015250565b600061401a602f83612ec0565b915061402582613fbe565b604082019050919050565b600060208201905081810360008301526140498161400d565b9050919050565b600081905092915050565b600061406682612eb5565b6140708185614050565b9350614080818560208601612ed1565b80840191505092915050565b60008190508160005260206000209050919050565b600081546140ae81613857565b6140b88186614050565b945060018216600081146140d357600181146140e457614117565b60ff19831686528186019350614117565b6140ed8561408c565b60005b8381101561410f578154818901526001820191506020810190506140f0565b838801955050505b50505092915050565b600061412c828661405b565b9150614138828561405b565b915061414482846140a1565b9150819050949350505050565b7f4552433732313a207472616e736665722066726f6d20696e636f72726563742060008201527f6f776e6572000000000000000000000000000000000000000000000000000000602082015250565b60006141ad602583612ec0565b91506141b882614151565b604082019050919050565b600060208201905081810360008301526141dc816141a0565b9050919050565b7f4552433732313a207472616e7366657220746f20746865207a65726f2061646460008201527f7265737300000000000000000000000000000000000000000000000000000000602082015250565b600061423f602483612ec0565b915061424a826141e3565b604082019050919050565b6000602082019050818103600083015261426e81614232565b9050919050565b600061428082612f70565b915061428b83612f70565b92508282101561429e5761429d613e30565b5b828203905092915050565b7f496e697469616c697a61626c653a20636f6e7472616374206973206e6f74206960008201527f6e697469616c697a696e67000000000000000000000000000000000000000000602082015250565b6000614305602b83612ec0565b9150614310826142a9565b604082019050919050565b60006020820190508181036000830152614334816142f8565b9050919050565b7f4f7574206f6620626f756e647300000000000000000000000000000000000000600082015250565b6000614371600d83612ec0565b915061437c8261433b565b602082019050919050565b600060208201905081810360008301526143a081614364565b9050919050565b7f4e487b7100000000000000000000000000000000000000000000000000000000600052603160045260246000fd5b7f4552433732313a20617070726f766520746f2063616c6c657200000000000000600082015250565b600061440c601983612ec0565b9150614417826143d6565b602082019050919050565b6000602082019050818103600083015261443b816143ff565b9050919050565b7f4552433732313a207472616e7366657220746f206e6f6e20455243373231526560008201527f63656976657220696d706c656d656e7465720000000000000000000000000000602082015250565b600061449e603283612ec0565b91506144a982614442565b604082019050919050565b600060208201905081810360008301526144cd81614491565b9050919050565b7f4e487b7100000000000000000000000000000000000000000000000000000000600052601260045260246000fd5b600061450e82612f70565b915061451983612f70565b925082614529576145286144d4565b5b828204905092915050565b600061453f82612f70565b915061454a83612f70565b92508261455a576145596144d4565b5b828206905092915050565b600081519050919050565b600082825260208201905092915050565b600061458c82614565565b6145968185614570565b93506145a6818560208601612ed1565b6145af81612f04565b840191505092915050565b60006080820190506145cf6000830187613005565b6145dc6020830186613005565b6145e9604083018561309b565b81810360608301526145fb8184614581565b905095945050505050565b60008151905061461581612e26565b92915050565b60006020828403121561463157614630612df0565b5b600061463f84828501614606565b91505092915050565b7f4552433732313a206d696e7420746f20746865207a65726f2061646472657373600082015250565b600061467e602083612ec0565b915061468982614648565b602082019050919050565b600060208201905081810360008301526146ad81614671565b9050919050565b7f4552433732313a20746f6b656e20616c7265616479206d696e74656400000000600082015250565b60006146ea601c83612ec0565b91506146f5826146b4565b602082019050919050565b60006020820190508181036000830152614719816146dd565b905091905056fea2646970667358221220609772c47f65d7f6448b84a9ee1f2627fe8375bc83d412dc932ddda443e1660864736f6c634300080a0033",
			"opcodes": "PUSH1 0x80 PUSH1 0x40 MSTORE PUSH1 0x40 MLOAD DUP1 PUSH1 0x20 ADD PUSH1 0x40 MSTORE DUP1 PUSH1 0x0 DUP2 MSTORE POP PUSH1 0xC9 SWAP1 DUP1 MLOAD SWAP1 PUSH1 0x20 ADD SWAP1 PUSH3 0x2B SWAP3 SWAP2 SWAP1 PUSH3 0x68 JUMP JUMPDEST POP PUSH1 0x40 MLOAD DUP1 PUSH1 0x20 ADD PUSH1 0x40 MSTORE DUP1 PUSH1 0x0 DUP2 MSTORE POP PUSH1 0xCA SWAP1 DUP1 MLOAD SWAP1 PUSH1 0x20 ADD SWAP1 PUSH3 0x53 SWAP3 SWAP2 SWAP1 PUSH3 0x68 JUMP JUMPDEST POP CALLVALUE DUP1 ISZERO PUSH3 0x61 JUMPI PUSH1 0x0 DUP1 REVERT JUMPDEST POP PUSH3 0x17D JUMP JUMPDEST DUP3 DUP1 SLOAD PUSH3 0x76 SWAP1 PUSH3 0x147 JUMP JUMPDEST SWAP1 PUSH1 0x0 MSTORE PUSH1 0x20 PUSH1 0x0 KECCAK256 SWAP1 PUSH1 0x1F ADD PUSH1 0x20 SWAP1 DIV DUP2 ADD SWAP3 DUP3 PUSH3 0x9A JUMPI PUSH1 0x0 DUP6 SSTORE PUSH3 0xE6 JUMP JUMPDEST DUP3 PUSH1 0x1F LT PUSH3 0xB5 JUMPI DUP1 MLOAD PUSH1 0xFF NOT AND DUP4 DUP1 ADD OR DUP6 SSTORE PUSH3 0xE6 JUMP JUMPDEST DUP3 DUP1 ADD PUSH1 0x1 ADD DUP6 SSTORE DUP3 ISZERO PUSH3 0xE6 JUMPI SWAP2 DUP3 ADD JUMPDEST DUP3 DUP2 GT ISZERO PUSH3 0xE5 JUMPI DUP3 MLOAD DUP3 SSTORE SWAP2 PUSH1 0x20 ADD SWAP2 SWAP1 PUSH1 0x1 ADD SWAP1 PUSH3 0xC8 JUMP JUMPDEST JUMPDEST POP SWAP1 POP PUSH3 0xF5 SWAP2 SWAP1 PUSH3 0xF9 JUMP JUMPDEST POP SWAP1 JUMP JUMPDEST JUMPDEST DUP1 DUP3 GT ISZERO PUSH3 0x114 JUMPI PUSH1 0x0 DUP2 PUSH1 0x0 SWAP1 SSTORE POP PUSH1 0x1 ADD PUSH3 0xFA JUMP JUMPDEST POP SWAP1 JUMP JUMPDEST PUSH32 0x4E487B7100000000000000000000000000000000000000000000000000000000 PUSH1 0x0 MSTORE PUSH1 0x22 PUSH1 0x4 MSTORE PUSH1 0x24 PUSH1 0x0 REVERT JUMPDEST PUSH1 0x0 PUSH1 0x2 DUP3 DIV SWAP1 POP PUSH1 0x1 DUP3 AND DUP1 PUSH3 0x160 JUMPI PUSH1 0x7F DUP3 AND SWAP2 POP JUMPDEST PUSH1 0x20 DUP3 LT DUP2 EQ ISZERO PUSH3 0x177 JUMPI PUSH3 0x176 PUSH3 0x118 JUMP JUMPDEST JUMPDEST POP SWAP2 SWAP1 POP JUMP JUMPDEST PUSH2 0x4756 DUP1 PUSH3 0x18D PUSH1 0x0 CODECOPY PUSH1 0x0 RETURN INVALID PUSH1 0x80 PUSH1 0x40 MSTORE CALLVALUE DUP1 ISZERO PUSH2 0x10 JUMPI PUSH1 0x0 DUP1 REVERT JUMPDEST POP PUSH1 0x4 CALLDATASIZE LT PUSH2 0x1F0 JUMPI PUSH1 0x0 CALLDATALOAD PUSH1 0xE0 SHR DUP1 PUSH4 0x707188C1 GT PUSH2 0x10F JUMPI DUP1 PUSH4 0xA22CB465 GT PUSH2 0xA2 JUMPI DUP1 PUSH4 0xC87B56DD GT PUSH2 0x71 JUMPI DUP1 PUSH4 0xC87B56DD EQ PUSH2 0x5C9 JUMPI DUP1 PUSH4 0xE4860339 EQ PUSH2 0x5F9 JUMPI DUP1 PUSH4 0xE985E9C5 EQ PUSH2 0x629 JUMPI DUP1 PUSH4 0xEFB4B362 EQ PUSH2 0x659 JUMPI PUSH2 0x1F0 JUMP JUMPDEST DUP1 PUSH4 0xA22CB465 EQ PUSH2 0x543 JUMPI DUP1 PUSH4 0xB88D4FDE EQ PUSH2 0x55F JUMPI DUP1 PUSH4 0xBAA51F86 EQ PUSH2 0x57B JUMPI DUP1 PUSH4 0xC73EEFDA EQ PUSH2 0x5AB JUMPI PUSH2 0x1F0 JUMP JUMPDEST DUP1 PUSH4 0x91708CAF GT PUSH2 0xDE JUMPI DUP1 PUSH4 0x91708CAF EQ PUSH2 0x4CF JUMPI DUP1 PUSH4 0x95D89B41 EQ PUSH2 0x4EB JUMPI DUP1 PUSH4 0x9600DD83 EQ PUSH2 0x509 JUMPI DUP1 PUSH4 0xA1B3351A EQ PUSH2 0x525 JUMPI PUSH2 0x1F0 JUMP JUMPDEST DUP1 PUSH4 0x707188C1 EQ PUSH2 0x449 JUMPI DUP1 PUSH4 0x70A08231 EQ PUSH2 0x465 JUMPI DUP1 PUSH4 0x738FA7A4 EQ PUSH2 0x495 JUMPI DUP1 PUSH4 0x7FDCC5B8 EQ PUSH2 0x4B3 JUMPI PUSH2 0x1F0 JUMP JUMPDEST DUP1 PUSH4 0x2F745C59 GT PUSH2 0x187 JUMPI DUP1 PUSH4 0x5541C3F9 GT PUSH2 0x156 JUMPI DUP1 PUSH4 0x5541C3F9 EQ PUSH2 0x3AF JUMPI DUP1 PUSH4 0x5C6D8DA1 EQ PUSH2 0x3CD JUMPI DUP1 PUSH4 0x6352211E EQ PUSH2 0x3E9 JUMPI DUP1 PUSH4 0x69ADE8B6 EQ PUSH2 0x419 JUMPI PUSH2 0x1F0 JUMP JUMPDEST DUP1 PUSH4 0x2F745C59 EQ PUSH2 0x303 JUMPI DUP1 PUSH4 0x3AF32ABF EQ PUSH2 0x333 JUMPI DUP1 PUSH4 0x42842E0E EQ PUSH2 0x363 JUMPI DUP1 PUSH4 0x4F6CCCE7 EQ PUSH2 0x37F JUMPI PUSH2 0x1F0 JUMP JUMPDEST DUP1 PUSH4 0x18160DDD GT PUSH2 0x1C3 JUMPI DUP1 PUSH4 0x18160DDD EQ PUSH2 0x28F JUMPI DUP1 PUSH4 0x23B872DD EQ PUSH2 0x2AD JUMPI DUP1 PUSH4 0x23CFEECA EQ PUSH2 0x2C9 JUMPI DUP1 PUSH4 0x282B79F0 EQ PUSH2 0x2E5 JUMPI PUSH2 0x1F0 JUMP JUMPDEST DUP1 PUSH4 0x1FFC9A7 EQ PUSH2 0x1F5 JUMPI DUP1 PUSH4 0x6FDDE03 EQ PUSH2 0x225 JUMPI DUP1 PUSH4 0x81812FC EQ PUSH2 0x243 JUMPI DUP1 PUSH4 0x95EA7B3 EQ PUSH2 0x273 JUMPI JUMPDEST PUSH1 0x0 DUP1 REVERT JUMPDEST PUSH2 0x20F PUSH1 0x4 DUP1 CALLDATASIZE SUB DUP2 ADD SWAP1 PUSH2 0x20A SWAP2 SWAP1 PUSH2 0x2E52 JUMP JUMPDEST PUSH2 0x689 JUMP JUMPDEST PUSH1 0x40 MLOAD PUSH2 0x21C SWAP2 SWAP1 PUSH2 0x2E9A JUMP JUMPDEST PUSH1 0x40 MLOAD DUP1 SWAP2 SUB SWAP1 RETURN JUMPDEST PUSH2 0x22D PUSH2 0x703 JUMP JUMPDEST PUSH1 0x40 MLOAD PUSH2 0x23A SWAP2 SWAP1 PUSH2 0x2F4E JUMP JUMPDEST PUSH1 0x40 MLOAD DUP1 SWAP2 SUB SWAP1 RETURN JUMPDEST PUSH2 0x25D PUSH1 0x4 DUP1 CALLDATASIZE SUB DUP2 ADD SWAP1 PUSH2 0x258 SWAP2 SWAP1 PUSH2 0x2FA6 JUMP JUMPDEST PUSH2 0x795 JUMP JUMPDEST PUSH1 0x40 MLOAD PUSH2 0x26A SWAP2 SWAP1 PUSH2 0x3014 JUMP JUMPDEST PUSH1 0x40 MLOAD DUP1 SWAP2 SUB SWAP1 RETURN JUMPDEST PUSH2 0x28D PUSH1 0x4 DUP1 CALLDATASIZE SUB DUP2 ADD SWAP1 PUSH2 0x288 SWAP2 SWAP1 PUSH2 0x305B JUMP JUMPDEST PUSH2 0x7DB JUMP JUMPDEST STOP JUMPDEST PUSH2 0x297 PUSH2 0x8F3 JUMP JUMPDEST PUSH1 0x40 MLOAD PUSH2 0x2A4 SWAP2 SWAP1 PUSH2 0x30AA JUMP JUMPDEST PUSH1 0x40 MLOAD DUP1 SWAP2 SUB SWAP1 RETURN JUMPDEST PUSH2 0x2C7 PUSH1 0x4 DUP1 CALLDATASIZE SUB DUP2 ADD SWAP1 PUSH2 0x2C2 SWAP2 SWAP1 PUSH2 0x30C5 JUMP JUMPDEST PUSH2 0x900 JUMP JUMPDEST STOP JUMPDEST PUSH2 0x2E3 PUSH1 0x4 DUP1 CALLDATASIZE SUB DUP2 ADD SWAP1 PUSH2 0x2DE SWAP2 SWAP1 PUSH2 0x3151 JUMP JUMPDEST PUSH2 0x960 JUMP JUMPDEST STOP JUMPDEST PUSH2 0x2ED PUSH2 0x9CB JUMP JUMPDEST PUSH1 0x40 MLOAD PUSH2 0x2FA SWAP2 SWAP1 PUSH2 0x3262 JUMP JUMPDEST PUSH1 0x40 MLOAD DUP1 SWAP2 SUB SWAP1 RETURN JUMPDEST PUSH2 0x31D PUSH1 0x4 DUP1 CALLDATASIZE SUB DUP2 ADD SWAP1 PUSH2 0x318 SWAP2 SWAP1 PUSH2 0x305B JUMP JUMPDEST PUSH2 0xA23 JUMP JUMPDEST PUSH1 0x40 MLOAD PUSH2 0x32A SWAP2 SWAP1 PUSH2 0x30AA JUMP JUMPDEST PUSH1 0x40 MLOAD DUP1 SWAP2 SUB SWAP1 RETURN JUMPDEST PUSH2 0x34D PUSH1 0x4 DUP1 CALLDATASIZE SUB DUP2 ADD SWAP1 PUSH2 0x348 SWAP2 SWAP1 PUSH2 0x3284 JUMP JUMPDEST PUSH2 0xAC8 JUMP JUMPDEST PUSH1 0x40 MLOAD PUSH2 0x35A SWAP2 SWAP1 PUSH2 0x2E9A JUMP JUMPDEST PUSH1 0x40 MLOAD DUP1 SWAP2 SUB SWAP1 RETURN JUMPDEST PUSH2 0x37D PUSH1 0x4 DUP1 CALLDATASIZE SUB DUP2 ADD SWAP1 PUSH2 0x378 SWAP2 SWAP1 PUSH2 0x30C5 JUMP JUMPDEST PUSH2 0xB6D JUMP JUMPDEST STOP JUMPDEST PUSH2 0x399 PUSH1 0x4 DUP1 CALLDATASIZE SUB DUP2 ADD SWAP1 PUSH2 0x394 SWAP2 SWAP1 PUSH2 0x2FA6 JUMP JUMPDEST PUSH2 0xB8D JUMP JUMPDEST PUSH1 0x40 MLOAD PUSH2 0x3A6 SWAP2 SWAP1 PUSH2 0x30AA JUMP JUMPDEST PUSH1 0x40 MLOAD DUP1 SWAP2 SUB SWAP1 RETURN JUMPDEST PUSH2 0x3B7 PUSH2 0xBFE JUMP JUMPDEST PUSH1 0x40 MLOAD PUSH2 0x3C4 SWAP2 SWAP1 PUSH2 0x3262 JUMP JUMPDEST PUSH1 0x40 MLOAD DUP1 SWAP2 SUB SWAP1 RETURN JUMPDEST PUSH2 0x3E7 PUSH1 0x4 DUP1 CALLDATASIZE SUB DUP2 ADD SWAP1 PUSH2 0x3E2 SWAP2 SWAP1 PUSH2 0x33E6 JUMP JUMPDEST PUSH2 0xC93 JUMP JUMPDEST STOP JUMPDEST PUSH2 0x403 PUSH1 0x4 DUP1 CALLDATASIZE SUB DUP2 ADD SWAP1 PUSH2 0x3FE SWAP2 SWAP1 PUSH2 0x2FA6 JUMP JUMPDEST PUSH2 0xE7B JUMP JUMPDEST PUSH1 0x40 MLOAD PUSH2 0x410 SWAP2 SWAP1 PUSH2 0x3014 JUMP JUMPDEST PUSH1 0x40 MLOAD DUP1 SWAP2 SUB SWAP1 RETURN JUMPDEST PUSH2 0x433 PUSH1 0x4 DUP1 CALLDATASIZE SUB DUP2 ADD SWAP1 PUSH2 0x42E SWAP2 SWAP1 PUSH2 0x2FA6 JUMP JUMPDEST PUSH2 0xF2D JUMP JUMPDEST PUSH1 0x40 MLOAD PUSH2 0x440 SWAP2 SWAP1 PUSH2 0x3014 JUMP JUMPDEST PUSH1 0x40 MLOAD DUP1 SWAP2 SUB SWAP1 RETURN JUMPDEST PUSH2 0x463 PUSH1 0x4 DUP1 CALLDATASIZE SUB DUP2 ADD SWAP1 PUSH2 0x45E SWAP2 SWAP1 PUSH2 0x34A1 JUMP JUMPDEST PUSH2 0xFB5 JUMP JUMPDEST STOP JUMPDEST PUSH2 0x47F PUSH1 0x4 DUP1 CALLDATASIZE SUB DUP2 ADD SWAP1 PUSH2 0x47A SWAP2 SWAP1 PUSH2 0x3284 JUMP JUMPDEST PUSH2 0x101C JUMP JUMPDEST PUSH1 0x40 MLOAD PUSH2 0x48C SWAP2 SWAP1 PUSH2 0x30AA JUMP JUMPDEST PUSH1 0x40 MLOAD DUP1 SWAP2 SUB SWAP1 RETURN JUMPDEST PUSH2 0x49D PUSH2 0x10D4 JUMP JUMPDEST PUSH1 0x40 MLOAD PUSH2 0x4AA SWAP2 SWAP1 PUSH2 0x30AA JUMP JUMPDEST PUSH1 0x40 MLOAD DUP1 SWAP2 SUB SWAP1 RETURN JUMPDEST PUSH2 0x4CD PUSH1 0x4 DUP1 CALLDATASIZE SUB DUP2 ADD SWAP1 PUSH2 0x4C8 SWAP2 SWAP1 PUSH2 0x35A9 JUMP JUMPDEST PUSH2 0x1151 JUMP JUMPDEST STOP JUMPDEST PUSH2 0x4E9 PUSH1 0x4 DUP1 CALLDATASIZE SUB DUP2 ADD SWAP1 PUSH2 0x4E4 SWAP2 SWAP1 PUSH2 0x3605 JUMP JUMPDEST PUSH2 0x11E4 JUMP JUMPDEST STOP JUMPDEST PUSH2 0x4F3 PUSH2 0x14AA JUMP JUMPDEST PUSH1 0x40 MLOAD PUSH2 0x500 SWAP2 SWAP1 PUSH2 0x2F4E JUMP JUMPDEST PUSH1 0x40 MLOAD DUP1 SWAP2 SUB SWAP1 RETURN JUMPDEST PUSH2 0x523 PUSH1 0x4 DUP1 CALLDATASIZE SUB DUP2 ADD SWAP1 PUSH2 0x51E SWAP2 SWAP1 PUSH2 0x305B JUMP JUMPDEST PUSH2 0x153C JUMP JUMPDEST STOP JUMPDEST PUSH2 0x52D PUSH2 0x154A JUMP JUMPDEST PUSH1 0x40 MLOAD PUSH2 0x53A SWAP2 SWAP1 PUSH2 0x30AA JUMP JUMPDEST PUSH1 0x40 MLOAD DUP1 SWAP2 SUB SWAP1 RETURN JUMPDEST PUSH2 0x55D PUSH1 0x4 DUP1 CALLDATASIZE SUB DUP2 ADD SWAP1 PUSH2 0x558 SWAP2 SWAP1 PUSH2 0x3684 JUMP JUMPDEST PUSH2 0x155B JUMP JUMPDEST STOP JUMPDEST PUSH2 0x579 PUSH1 0x4 DUP1 CALLDATASIZE SUB DUP2 ADD SWAP1 PUSH2 0x574 SWAP2 SWAP1 PUSH2 0x3765 JUMP JUMPDEST PUSH2 0x1571 JUMP JUMPDEST STOP JUMPDEST PUSH2 0x595 PUSH1 0x4 DUP1 CALLDATASIZE SUB DUP2 ADD SWAP1 PUSH2 0x590 SWAP2 SWAP1 PUSH2 0x2FA6 JUMP JUMPDEST PUSH2 0x15D3 JUMP JUMPDEST PUSH1 0x40 MLOAD PUSH2 0x5A2 SWAP2 SWAP1 PUSH2 0x2E9A JUMP JUMPDEST PUSH1 0x40 MLOAD DUP1 SWAP2 SUB SWAP1 RETURN JUMPDEST PUSH2 0x5B3 PUSH2 0x15FD JUMP JUMPDEST PUSH1 0x40 MLOAD PUSH2 0x5C0 SWAP2 SWAP1 PUSH2 0x30AA JUMP JUMPDEST PUSH1 0x40 MLOAD DUP1 SWAP2 SUB SWAP1 RETURN JUMPDEST PUSH2 0x5E3 PUSH1 0x4 DUP1 CALLDATASIZE SUB DUP2 ADD SWAP1 PUSH2 0x5DE SWAP2 SWAP1 PUSH2 0x2FA6 JUMP JUMPDEST PUSH2 0x160E JUMP JUMPDEST PUSH1 0x40 MLOAD PUSH2 0x5F0 SWAP2 SWAP1 PUSH2 0x2F4E JUMP JUMPDEST PUSH1 0x40 MLOAD DUP1 SWAP2 SUB SWAP1 RETURN JUMPDEST PUSH2 0x613 PUSH1 0x4 DUP1 CALLDATASIZE SUB DUP2 ADD SWAP1 PUSH2 0x60E SWAP2 SWAP1 PUSH2 0x3284 JUMP JUMPDEST PUSH2 0x16B8 JUMP JUMPDEST PUSH1 0x40 MLOAD PUSH2 0x620 SWAP2 SWAP1 PUSH2 0x3262 JUMP JUMPDEST PUSH1 0x40 MLOAD DUP1 SWAP2 SUB SWAP1 RETURN JUMPDEST PUSH2 0x643 PUSH1 0x4 DUP1 CALLDATASIZE SUB DUP2 ADD SWAP1 PUSH2 0x63E SWAP2 SWAP1 PUSH2 0x37E8 JUMP JUMPDEST PUSH2 0x1766 JUMP JUMPDEST PUSH1 0x40 MLOAD PUSH2 0x650 SWAP2 SWAP1 PUSH2 0x2E9A JUMP JUMPDEST PUSH1 0x40 MLOAD DUP1 SWAP2 SUB SWAP1 RETURN JUMPDEST PUSH2 0x673 PUSH1 0x4 DUP1 CALLDATASIZE SUB DUP2 ADD SWAP1 PUSH2 0x66E SWAP2 SWAP1 PUSH2 0x2FA6 JUMP JUMPDEST PUSH2 0x17FA JUMP JUMPDEST PUSH1 0x40 MLOAD PUSH2 0x680 SWAP2 SWAP1 PUSH2 0x30AA JUMP JUMPDEST PUSH1 0x40 MLOAD DUP1 SWAP2 SUB SWAP1 RETURN JUMPDEST PUSH1 0x0 PUSH32 0x780E9D6300000000000000000000000000000000000000000000000000000000 PUSH28 0xFFFFFFFFFFFFFFFFFFFFFFFFFFFFFFFFFFFFFFFFFFFFFFFFFFFFFFFF NOT AND DUP3 PUSH28 0xFFFFFFFFFFFFFFFFFFFFFFFFFFFFFFFFFFFFFFFFFFFFFFFFFFFFFFFF NOT AND EQ DUP1 PUSH2 0x6FC JUMPI POP PUSH2 0x6FB DUP3 PUSH2 0x1862 JUMP JUMPDEST JUMPDEST SWAP1 POP SWAP2 SWAP1 POP JUMP JUMPDEST PUSH1 0x60 PUSH1 0x65 DUP1 SLOAD PUSH2 0x712 SWAP1 PUSH2 0x3857 JUMP JUMPDEST DUP1 PUSH1 0x1F ADD PUSH1 0x20 DUP1 SWAP2 DIV MUL PUSH1 0x20 ADD PUSH1 0x40 MLOAD SWAP1 DUP2 ADD PUSH1 0x40 MSTORE DUP1 SWAP3 SWAP2 SWAP1 DUP2 DUP2 MSTORE PUSH1 0x20 ADD DUP3 DUP1 SLOAD PUSH2 0x73E SWAP1 PUSH2 0x3857 JUMP JUMPDEST DUP1 ISZERO PUSH2 0x78B JUMPI DUP1 PUSH1 0x1F LT PUSH2 0x760 JUMPI PUSH2 0x100 DUP1 DUP4 SLOAD DIV MUL DUP4 MSTORE SWAP2 PUSH1 0x20 ADD SWAP2 PUSH2 0x78B JUMP JUMPDEST DUP3 ADD SWAP2 SWAP1 PUSH1 0x0 MSTORE PUSH1 0x20 PUSH1 0x0 KECCAK256 SWAP1 JUMPDEST DUP2 SLOAD DUP2 MSTORE SWAP1 PUSH1 0x1 ADD SWAP1 PUSH1 0x20 ADD DUP1 DUP4 GT PUSH2 0x76E JUMPI DUP3 SWAP1 SUB PUSH1 0x1F AND DUP3 ADD SWAP2 JUMPDEST POP POP POP POP POP SWAP1 POP SWAP1 JUMP JUMPDEST PUSH1 0x0 PUSH2 0x7A0 DUP3 PUSH2 0x1944 JUMP JUMPDEST PUSH1 0x69 PUSH1 0x0 DUP4 DUP2 MSTORE PUSH1 0x20 ADD SWAP1 DUP2 MSTORE PUSH1 0x20 ADD PUSH1 0x0 KECCAK256 PUSH1 0x0 SWAP1 SLOAD SWAP1 PUSH2 0x100 EXP SWAP1 DIV PUSH20 0xFFFFFFFFFFFFFFFFFFFFFFFFFFFFFFFFFFFFFFFF AND SWAP1 POP SWAP2 SWAP1 POP JUMP JUMPDEST PUSH1 0x0 PUSH2 0x7E6 DUP3 PUSH2 0xE7B JUMP JUMPDEST SWAP1 POP DUP1 PUSH20 0xFFFFFFFFFFFFFFFFFFFFFFFFFFFFFFFFFFFFFFFF AND DUP4 PUSH20 0xFFFFFFFFFFFFFFFFFFFFFFFFFFFFFFFFFFFFFFFF AND EQ ISZERO PUSH2 0x857 JUMPI PUSH1 0x40 MLOAD PUSH32 0x8C379A000000000000000000000000000000000000000000000000000000000 DUP2 MSTORE PUSH1 0x4 ADD PUSH2 0x84E SWAP1 PUSH2 0x38FB JUMP JUMPDEST PUSH1 0x40 MLOAD DUP1 SWAP2 SUB SWAP1 REVERT JUMPDEST DUP1 PUSH20 0xFFFFFFFFFFFFFFFFFFFFFFFFFFFFFFFFFFFFFFFF AND PUSH2 0x876 PUSH2 0x198F JUMP JUMPDEST PUSH20 0xFFFFFFFFFFFFFFFFFFFFFFFFFFFFFFFFFFFFFFFF AND EQ DUP1 PUSH2 0x8A5 JUMPI POP PUSH2 0x8A4 DUP2 PUSH2 0x89F PUSH2 0x198F JUMP JUMPDEST PUSH2 0x1766 JUMP JUMPDEST JUMPDEST PUSH2 0x8E4 JUMPI PUSH1 0x40 MLOAD PUSH32 0x8C379A000000000000000000000000000000000000000000000000000000000 DUP2 MSTORE PUSH1 0x4 ADD PUSH2 0x8DB SWAP1 PUSH2 0x398D JUMP JUMPDEST PUSH1 0x40 MLOAD DUP1 SWAP2 SUB SWAP1 REVERT JUMPDEST PUSH2 0x8EE DUP4 DUP4 PUSH2 0x1997 JUMP JUMPDEST POP POP POP JUMP JUMPDEST PUSH1 0x0 PUSH1 0x99 DUP1 SLOAD SWAP1 POP SWAP1 POP SWAP1 JUMP JUMPDEST PUSH2 0x911 PUSH2 0x90B PUSH2 0x198F JUMP JUMPDEST DUP3 PUSH2 0x1A50 JUMP JUMPDEST PUSH2 0x950 JUMPI PUSH1 0x40 MLOAD PUSH32 0x8C379A000000000000000000000000000000000000000000000000000000000 DUP2 MSTORE PUSH1 0x4 ADD PUSH2 0x947 SWAP1 PUSH2 0x3A1F JUMP JUMPDEST PUSH1 0x40 MLOAD DUP1 SWAP2 SUB SWAP1 REVERT JUMPDEST PUSH2 0x95B DUP4 DUP4 DUP4 PUSH2 0x1AE5 JUMP JUMPDEST POP POP POP JUMP JUMPDEST PUSH2 0x96A DUP4 DUP4 PUSH2 0x1D4C JUMP JUMPDEST PUSH1 0xCC DUP3 SWAP1 DUP1 PUSH1 0x1 DUP2 SLOAD ADD DUP1 DUP3 SSTORE DUP1 SWAP2 POP POP PUSH1 0x1 SWAP1 SUB SWAP1 PUSH1 0x0 MSTORE PUSH1 0x20 PUSH1 0x0 KECCAK256 ADD PUSH1 0x0 SWAP1 SWAP2 SWAP1 SWAP2 SWAP1 SWAP2 POP SSTORE PUSH1 0x0 DUP2 PUSH1 0xFF AND EQ ISZERO PUSH2 0x9AE JUMPI PUSH2 0x9A9 PUSH1 0xCD PUSH2 0x1D6A JUMP JUMPDEST PUSH2 0x9C6 JUMP JUMPDEST PUSH1 0x1 DUP2 PUSH1 0xFF AND EQ ISZERO PUSH2 0x9C5 JUMPI PUSH2 0x9C4 PUSH1 0xCE PUSH2 0x1D6A JUMP JUMPDEST JUMPDEST JUMPDEST POP POP POP JUMP JUMPDEST PUSH1 0x60 PUSH1 0xCC DUP1 SLOAD DUP1 PUSH1 0x20 MUL PUSH1 0x20 ADD PUSH1 0x40 MLOAD SWAP1 DUP2 ADD PUSH1 0x40 MSTORE DUP1 SWAP3 SWAP2 SWAP1 DUP2 DUP2 MSTORE PUSH1 0x20 ADD DUP3 DUP1 SLOAD DUP1 ISZERO PUSH2 0xA19 JUMPI PUSH1 0x20 MUL DUP3 ADD SWAP2 SWAP1 PUSH1 0x0 MSTORE PUSH1 0x20 PUSH1 0x0 KECCAK256 SWAP1 JUMPDEST DUP2 SLOAD DUP2 MSTORE PUSH1 0x20 ADD SWAP1 PUSH1 0x1 ADD SWAP1 DUP1 DUP4 GT PUSH2 0xA05 JUMPI JUMPDEST POP POP POP POP POP SWAP1 POP SWAP1 JUMP JUMPDEST PUSH1 0x0 PUSH2 0xA2E DUP4 PUSH2 0x101C JUMP JUMPDEST DUP3 LT PUSH2 0xA6F JUMPI PUSH1 0x40 MLOAD PUSH32 0x8C379A000000000000000000000000000000000000000000000000000000000 DUP2 MSTORE PUSH1 0x4 ADD PUSH2 0xA66 SWAP1 PUSH2 0x3AB1 JUMP JUMPDEST PUSH1 0x40 MLOAD DUP1 SWAP2 SUB SWAP1 REVERT JUMPDEST PUSH1 0x97 PUSH1 0x0 DUP5 PUSH20 0xFFFFFFFFFFFFFFFFFFFFFFFFFFFFFFFFFFFFFFFF AND PUSH20 0xFFFFFFFFFFFFFFFFFFFFFFFFFFFFFFFFFFFFFFFF AND DUP2 MSTORE PUSH1 0x20 ADD SWAP1 DUP2 MSTORE PUSH1 0x20 ADD PUSH1 0x0 KECCAK256 PUSH1 0x0 DUP4 DUP2 MSTORE PUSH1 0x20 ADD SWAP1 DUP2 MSTORE PUSH1 0x20 ADD PUSH1 0x0 KECCAK256 SLOAD SWAP1 POP SWAP3 SWAP2 POP POP JUMP JUMPDEST PUSH1 0x0 PUSH1 0xCB PUSH1 0x0 SWAP1 SLOAD SWAP1 PUSH2 0x100 EXP SWAP1 DIV PUSH20 0xFFFFFFFFFFFFFFFFFFFFFFFFFFFFFFFFFFFFFFFF AND PUSH20 0xFFFFFFFFFFFFFFFFFFFFFFFFFFFFFFFFFFFFFFFF AND PUSH4 0x3AF32ABF DUP4 PUSH1 0x40 MLOAD DUP3 PUSH4 0xFFFFFFFF AND PUSH1 0xE0 SHL DUP2 MSTORE PUSH1 0x4 ADD PUSH2 0xB25 SWAP2 SWAP1 PUSH2 0x3014 JUMP JUMPDEST PUSH1 0x20 PUSH1 0x40 MLOAD DUP1 DUP4 SUB DUP2 DUP7 GAS STATICCALL ISZERO DUP1 ISZERO PUSH2 0xB42 JUMPI RETURNDATASIZE PUSH1 0x0 DUP1 RETURNDATACOPY RETURNDATASIZE PUSH1 0x0 REVERT JUMPDEST POP POP POP POP PUSH1 0x40 MLOAD RETURNDATASIZE PUSH1 0x1F NOT PUSH1 0x1F DUP3 ADD AND DUP3 ADD DUP1 PUSH1 0x40 MSTORE POP DUP2 ADD SWAP1 PUSH2 0xB66 SWAP2 SWAP1 PUSH2 0x3AE6 JUMP JUMPDEST SWAP1 POP SWAP2 SWAP1 POP JUMP JUMPDEST PUSH2 0xB88 DUP4 DUP4 DUP4 PUSH1 0x40 MLOAD DUP1 PUSH1 0x20 ADD PUSH1 0x40 MSTORE DUP1 PUSH1 0x0 DUP2 MSTORE POP PUSH2 0x1571 JUMP JUMPDEST POP POP POP JUMP JUMPDEST PUSH1 0x0 PUSH2 0xB97 PUSH2 0x8F3 JUMP JUMPDEST DUP3 LT PUSH2 0xBD8 JUMPI PUSH1 0x40 MLOAD PUSH32 0x8C379A000000000000000000000000000000000000000000000000000000000 DUP2 MSTORE PUSH1 0x4 ADD PUSH2 0xBCF SWAP1 PUSH2 0x3B85 JUMP JUMPDEST PUSH1 0x40 MLOAD DUP1 SWAP2 SUB SWAP1 REVERT JUMPDEST PUSH1 0x99 DUP3 DUP2 SLOAD DUP2 LT PUSH2 0xBEC JUMPI PUSH2 0xBEB PUSH2 0x3BA5 JUMP JUMPDEST JUMPDEST SWAP1 PUSH1 0x0 MSTORE PUSH1 0x20 PUSH1 0x0 KECCAK256 ADD SLOAD SWAP1 POP SWAP2 SWAP1 POP JUMP JUMPDEST PUSH1 0x60 PUSH1 0xD2 PUSH1 0x0 ORIGIN PUSH20 0xFFFFFFFFFFFFFFFFFFFFFFFFFFFFFFFFFFFFFFFF AND PUSH20 0xFFFFFFFFFFFFFFFFFFFFFFFFFFFFFFFFFFFFFFFF AND DUP2 MSTORE PUSH1 0x20 ADD SWAP1 DUP2 MSTORE PUSH1 0x20 ADD PUSH1 0x0 KECCAK256 DUP1 SLOAD DUP1 PUSH1 0x20 MUL PUSH1 0x20 ADD PUSH1 0x40 MLOAD SWAP1 DUP2 ADD PUSH1 0x40 MSTORE DUP1 SWAP3 SWAP2 SWAP1 DUP2 DUP2 MSTORE PUSH1 0x20 ADD DUP3 DUP1 SLOAD DUP1 ISZERO PUSH2 0xC89 JUMPI PUSH1 0x20 MUL DUP3 ADD SWAP2 SWAP1 PUSH1 0x0 MSTORE PUSH1 0x20 PUSH1 0x0 KECCAK256 SWAP1 JUMPDEST DUP2 SLOAD DUP2 MSTORE PUSH1 0x20 ADD SWAP1 PUSH1 0x1 ADD SWAP1 DUP1 DUP4 GT PUSH2 0xC75 JUMPI JUMPDEST POP POP POP POP POP SWAP1 POP SWAP1 JUMP JUMPDEST PUSH1 0x0 DUP1 PUSH1 0x1 SWAP1 SLOAD SWAP1 PUSH2 0x100 EXP SWAP1 DIV PUSH1 0xFF AND ISZERO SWAP1 POP DUP1 DUP1 ISZERO PUSH2 0xCC4 JUMPI POP PUSH1 0x1 PUSH1 0x0 DUP1 SLOAD SWAP1 PUSH2 0x100 EXP SWAP1 DIV PUSH1 0xFF AND PUSH1 0xFF AND LT JUMPDEST DUP1 PUSH2 0xCF1 JUMPI POP PUSH2 0xCD3 ADDRESS PUSH2 0x1D80 JUMP JUMPDEST ISZERO DUP1 ISZERO PUSH2 0xCF0 JUMPI POP PUSH1 0x1 PUSH1 0x0 DUP1 SLOAD SWAP1 PUSH2 0x100 EXP SWAP1 DIV PUSH1 0xFF AND PUSH1 0xFF AND EQ JUMPDEST JUMPDEST PUSH2 0xD30 JUMPI PUSH1 0x40 MLOAD PUSH32 0x8C379A000000000000000000000000000000000000000000000000000000000 DUP2 MSTORE PUSH1 0x4 ADD PUSH2 0xD27 SWAP1 PUSH2 0x3C46 JUMP JUMPDEST PUSH1 0x40 MLOAD DUP1 SWAP2 SUB SWAP1 REVERT JUMPDEST PUSH1 0x1 PUSH1 0x0 DUP1 PUSH2 0x100 EXP DUP2 SLOAD DUP2 PUSH1 0xFF MUL NOT AND SWAP1 DUP4 PUSH1 0xFF AND MUL OR SWAP1 SSTORE POP DUP1 ISZERO PUSH2 0xD6D JUMPI PUSH1 0x1 PUSH1 0x0 PUSH1 0x1 PUSH2 0x100 EXP DUP2 SLOAD DUP2 PUSH1 0xFF MUL NOT AND SWAP1 DUP4 ISZERO ISZERO MUL OR SWAP1 SSTORE POP JUMPDEST PUSH2 0xD77 DUP6 DUP6 PUSH2 0x1DA3 JUMP JUMPDEST DUP3 PUSH1 0xC9 SWAP1 DUP1 MLOAD SWAP1 PUSH1 0x20 ADD SWAP1 PUSH2 0xD8D SWAP3 SWAP2 SWAP1 PUSH2 0x2D43 JUMP JUMPDEST POP PUSH1 0x40 MLOAD DUP1 PUSH1 0x40 ADD PUSH1 0x40 MSTORE DUP1 PUSH1 0x5 DUP2 MSTORE PUSH1 0x20 ADD PUSH32 0x2E6A736F6E000000000000000000000000000000000000000000000000000000 DUP2 MSTORE POP PUSH1 0xCA SWAP1 DUP1 MLOAD SWAP1 PUSH1 0x20 ADD SWAP1 PUSH2 0xDD9 SWAP3 SWAP2 SWAP1 PUSH2 0x2D43 JUMP JUMPDEST POP DUP2 PUSH1 0xCB PUSH1 0x0 PUSH2 0x100 EXP DUP2 SLOAD DUP2 PUSH20 0xFFFFFFFFFFFFFFFFFFFFFFFFFFFFFFFFFFFFFFFF MUL NOT AND SWAP1 DUP4 PUSH20 0xFFFFFFFFFFFFFFFFFFFFFFFFFFFFFFFFFFFFFFFF AND MUL OR SWAP1 SSTORE POP DUP1 ISZERO PUSH2 0xE74 JUMPI PUSH1 0x0 DUP1 PUSH1 0x1 PUSH2 0x100 EXP DUP2 SLOAD DUP2 PUSH1 0xFF MUL NOT AND SWAP1 DUP4 ISZERO ISZERO MUL OR SWAP1 SSTORE POP PUSH32 0x7F26B83FF96E1F2B6A682F133852F6798A09C465DA95921460CEFB3847402498 PUSH1 0x1 PUSH1 0x40 MLOAD PUSH2 0xE6B SWAP2 SWAP1 PUSH2 0x3CAB JUMP JUMPDEST PUSH1 0x40 MLOAD DUP1 SWAP2 SUB SWAP1 LOG1 JUMPDEST POP POP POP POP POP JUMP JUMPDEST PUSH1 0x0 DUP1 PUSH1 0x67 PUSH1 0x0 DUP5 DUP2 MSTORE PUSH1 0x20 ADD SWAP1 DUP2 MSTORE PUSH1 0x20 ADD PUSH1 0x0 KECCAK256 PUSH1 0x0 SWAP1 SLOAD SWAP1 PUSH2 0x100 EXP SWAP1 DIV PUSH20 0xFFFFFFFFFFFFFFFFFFFFFFFFFFFFFFFFFFFFFFFF AND SWAP1 POP PUSH1 0x0 PUSH20 0xFFFFFFFFFFFFFFFFFFFFFFFFFFFFFFFFFFFFFFFF AND DUP2 PUSH20 0xFFFFFFFFFFFFFFFFFFFFFFFFFFFFFFFFFFFFFFFF AND EQ ISZERO PUSH2 0xF24 JUMPI PUSH1 0x40 MLOAD PUSH32 0x8C379A000000000000000000000000000000000000000000000000000000000 DUP2 MSTORE PUSH1 0x4 ADD PUSH2 0xF1B SWAP1 PUSH2 0x3D12 JUMP JUMPDEST PUSH1 0x40 MLOAD DUP1 SWAP2 SUB SWAP1 REVERT JUMPDEST DUP1 SWAP2 POP POP SWAP2 SWAP1 POP JUMP JUMPDEST PUSH1 0x0 PUSH2 0xF38 DUP3 PUSH2 0x15D3 JUMP JUMPDEST PUSH2 0xF77 JUMPI PUSH1 0x40 MLOAD PUSH32 0x8C379A000000000000000000000000000000000000000000000000000000000 DUP2 MSTORE PUSH1 0x4 ADD PUSH2 0xF6E SWAP1 PUSH2 0x3D7E JUMP JUMPDEST PUSH1 0x40 MLOAD DUP1 SWAP2 SUB SWAP1 REVERT JUMPDEST PUSH1 0xCF PUSH1 0x0 DUP4 DUP2 MSTORE PUSH1 0x20 ADD SWAP1 DUP2 MSTORE PUSH1 0x20 ADD PUSH1 0x0 KECCAK256 PUSH1 0x2 ADD PUSH1 0x0 SWAP1 SLOAD SWAP1 PUSH2 0x100 EXP SWAP1 DIV PUSH20 0xFFFFFFFFFFFFFFFFFFFFFFFFFFFFFFFFFFFFFFFF AND SWAP1 POP SWAP2 SWAP1 POP JUMP JUMPDEST PUSH2 0xFBE DUP3 PUSH2 0x15D3 JUMP JUMPDEST PUSH2 0xFFD JUMPI PUSH1 0x40 MLOAD PUSH32 0x8C379A000000000000000000000000000000000000000000000000000000000 DUP2 MSTORE PUSH1 0x4 ADD PUSH2 0xFF4 SWAP1 PUSH2 0x3D7E JUMP JUMPDEST PUSH1 0x40 MLOAD DUP1 SWAP2 SUB SWAP1 REVERT JUMPDEST DUP1 PUSH1 0xCF PUSH1 0x0 DUP5 DUP2 MSTORE PUSH1 0x20 ADD SWAP1 DUP2 MSTORE PUSH1 0x20 ADD PUSH1 0x0 KECCAK256 PUSH1 0x1 ADD DUP2 SWAP1 SSTORE POP POP POP JUMP JUMPDEST PUSH1 0x0 DUP1 PUSH20 0xFFFFFFFFFFFFFFFFFFFFFFFFFFFFFFFFFFFFFFFF AND DUP3 PUSH20 0xFFFFFFFFFFFFFFFFFFFFFFFFFFFFFFFFFFFFFFFF AND EQ ISZERO PUSH2 0x108D JUMPI PUSH1 0x40 MLOAD PUSH32 0x8C379A000000000000000000000000000000000000000000000000000000000 DUP2 MSTORE PUSH1 0x4 ADD PUSH2 0x1084 SWAP1 PUSH2 0x3E10 JUMP JUMPDEST PUSH1 0x40 MLOAD DUP1 SWAP2 SUB SWAP1 REVERT JUMPDEST PUSH1 0x68 PUSH1 0x0 DUP4 PUSH20 0xFFFFFFFFFFFFFFFFFFFFFFFFFFFFFFFFFFFFFFFF AND PUSH20 0xFFFFFFFFFFFFFFFFFFFFFFFFFFFFFFFFFFFFFFFF AND DUP2 MSTORE PUSH1 0x20 ADD SWAP1 DUP2 MSTORE PUSH1 0x20 ADD PUSH1 0x0 KECCAK256 SLOAD SWAP1 POP SWAP2 SWAP1 POP JUMP JUMPDEST PUSH1 0x0 DUP1 PUSH2 0x10DF PUSH2 0xBFE JUMP JUMPDEST MLOAD PUSH2 0x10E9 ORIGIN PUSH2 0x101C JUMP JUMPDEST PUSH2 0x10F3 SWAP2 SWAP1 PUSH2 0x3E5F JUMP JUMPDEST SWAP1 POP PUSH1 0x0 DUP2 EQ ISZERO PUSH2 0x1108 JUMPI PUSH1 0x0 SWAP2 POP POP PUSH2 0x114E JUMP JUMPDEST PUSH1 0x1 DUP2 LT ISZERO DUP1 ISZERO PUSH2 0x1119 JUMPI POP PUSH1 0x5 DUP2 LT JUMPDEST ISZERO PUSH2 0x1128 JUMPI PUSH1 0x1 SWAP2 POP POP PUSH2 0x114E JUMP JUMPDEST PUSH1 0x5 DUP2 LT ISZERO DUP1 ISZERO PUSH2 0x1139 JUMPI POP PUSH1 0xA DUP2 LT JUMPDEST ISZERO PUSH2 0x1148 JUMPI PUSH1 0x2 SWAP2 POP POP PUSH2 0x114E JUMP JUMPDEST PUSH1 0x3 SWAP2 POP POP JUMPDEST SWAP1 JUMP JUMPDEST PUSH1 0x5 DUP2 MLOAD GT ISZERO PUSH2 0x1196 JUMPI PUSH1 0x40 MLOAD PUSH32 0x8C379A000000000000000000000000000000000000000000000000000000000 DUP2 MSTORE PUSH1 0x4 ADD PUSH2 0x118D SWAP1 PUSH2 0x3F01 JUMP JUMPDEST PUSH1 0x40 MLOAD DUP1 SWAP2 SUB SWAP1 REVERT JUMPDEST PUSH1 0x0 JUMPDEST DUP2 MLOAD DUP2 PUSH1 0xFF AND LT ISZERO PUSH2 0x11DF JUMPI PUSH2 0x11CC DUP4 DUP4 DUP4 PUSH1 0xFF AND DUP2 MLOAD DUP2 LT PUSH2 0x11BF JUMPI PUSH2 0x11BE PUSH2 0x3BA5 JUMP JUMPDEST JUMPDEST PUSH1 0x20 MUL PUSH1 0x20 ADD ADD MLOAD PUSH2 0x1997 JUMP JUMPDEST DUP1 DUP1 PUSH2 0x11D7 SWAP1 PUSH2 0x3F21 JUMP JUMPDEST SWAP2 POP POP PUSH2 0x1199 JUMP JUMPDEST POP POP POP JUMP JUMPDEST PUSH1 0x0 ISZERO ISZERO PUSH1 0xD0 PUSH1 0x0 DUP6 DUP2 MSTORE PUSH1 0x20 ADD SWAP1 DUP2 MSTORE PUSH1 0x20 ADD PUSH1 0x0 KECCAK256 PUSH1 0x0 SWAP1 SLOAD SWAP1 PUSH2 0x100 EXP SWAP1 DIV PUSH1 0xFF AND ISZERO ISZERO EQ ISZERO PUSH2 0x1308 JUMPI PUSH1 0x1 PUSH1 0xD0 PUSH1 0x0 DUP6 DUP2 MSTORE PUSH1 0x20 ADD SWAP1 DUP2 MSTORE PUSH1 0x20 ADD PUSH1 0x0 KECCAK256 PUSH1 0x0 PUSH2 0x100 EXP DUP2 SLOAD DUP2 PUSH1 0xFF MUL NOT AND SWAP1 DUP4 ISZERO ISZERO MUL OR SWAP1 SSTORE POP PUSH1 0xD1 PUSH1 0x0 DUP3 PUSH20 0xFFFFFFFFFFFFFFFFFFFFFFFFFFFFFFFFFFFFFFFF AND PUSH20 0xFFFFFFFFFFFFFFFFFFFFFFFFFFFFFFFFFFFFFFFF AND DUP2 MSTORE PUSH1 0x20 ADD SWAP1 DUP2 MSTORE PUSH1 0x20 ADD PUSH1 0x0 KECCAK256 PUSH1 0x0 DUP2 SLOAD DUP1 SWAP3 SWAP2 SWAP1 PUSH2 0x128D SWAP1 PUSH2 0x3F4B JUMP JUMPDEST SWAP2 SWAP1 POP SSTORE POP PUSH1 0xD2 PUSH1 0x0 DUP3 PUSH20 0xFFFFFFFFFFFFFFFFFFFFFFFFFFFFFFFFFFFFFFFF AND PUSH20 0xFFFFFFFFFFFFFFFFFFFFFFFFFFFFFFFFFFFFFFFF AND DUP2 MSTORE PUSH1 0x20 ADD SWAP1 DUP2 MSTORE PUSH1 0x20 ADD PUSH1 0x0 KECCAK256 DUP4 SWAP1 DUP1 PUSH1 0x1 DUP2 SLOAD ADD DUP1 DUP3 SSTORE DUP1 SWAP2 POP POP PUSH1 0x1 SWAP1 SUB SWAP1 PUSH1 0x0 MSTORE PUSH1 0x20 PUSH1 0x0 KECCAK256 ADD PUSH1 0x0 SWAP1 SWAP2 SWAP1 SWAP2 SWAP1 SWAP2 POP SSTORE PUSH2 0x1303 DUP4 DUP4 DUP4 PUSH2 0x1E00 JUMP JUMPDEST PUSH2 0x14A5 JUMP JUMPDEST PUSH1 0x1 ISZERO ISZERO PUSH1 0xD0 PUSH1 0x0 DUP6 DUP2 MSTORE PUSH1 0x20 ADD SWAP1 DUP2 MSTORE PUSH1 0x20 ADD PUSH1 0x0 KECCAK256 PUSH1 0x0 SWAP1 SLOAD SWAP1 PUSH2 0x100 EXP SWAP1 DIV PUSH1 0xFF AND ISZERO ISZERO EQ ISZERO PUSH2 0x14A4 JUMPI PUSH1 0x0 PUSH1 0xD0 PUSH1 0x0 DUP6 DUP2 MSTORE PUSH1 0x20 ADD SWAP1 DUP2 MSTORE PUSH1 0x20 ADD PUSH1 0x0 KECCAK256 PUSH1 0x0 PUSH2 0x100 EXP DUP2 SLOAD DUP2 PUSH1 0xFF MUL NOT AND SWAP1 DUP4 ISZERO ISZERO MUL OR SWAP1 SSTORE POP PUSH1 0xD1 PUSH1 0x0 DUP3 PUSH20 0xFFFFFFFFFFFFFFFFFFFFFFFFFFFFFFFFFFFFFFFF AND PUSH20 0xFFFFFFFFFFFFFFFFFFFFFFFFFFFFFFFFFFFFFFFF AND DUP2 MSTORE PUSH1 0x20 ADD SWAP1 DUP2 MSTORE PUSH1 0x20 ADD PUSH1 0x0 KECCAK256 PUSH1 0x0 DUP2 SLOAD DUP1 SWAP3 SWAP2 SWAP1 PUSH2 0x13B1 SWAP1 PUSH2 0x3F94 JUMP JUMPDEST SWAP2 SWAP1 POP SSTORE POP PUSH1 0x0 PUSH2 0x144F PUSH1 0xD2 PUSH1 0x0 DUP5 PUSH20 0xFFFFFFFFFFFFFFFFFFFFFFFFFFFFFFFFFFFFFFFF AND PUSH20 0xFFFFFFFFFFFFFFFFFFFFFFFFFFFFFFFFFFFFFFFF AND DUP2 MSTORE PUSH1 0x20 ADD SWAP1 DUP2 MSTORE PUSH1 0x20 ADD PUSH1 0x0 KECCAK256 DUP1 SLOAD DUP1 PUSH1 0x20 MUL PUSH1 0x20 ADD PUSH1 0x40 MLOAD SWAP1 DUP2 ADD PUSH1 0x40 MSTORE DUP1 SWAP3 SWAP2 SWAP1 DUP2 DUP2 MSTORE PUSH1 0x20 ADD DUP3 DUP1 SLOAD DUP1 ISZERO PUSH2 0x1444 JUMPI PUSH1 0x20 MUL DUP3 ADD SWAP2 SWAP1 PUSH1 0x0 MSTORE PUSH1 0x20 PUSH1 0x0 KECCAK256 SWAP1 JUMPDEST DUP2 SLOAD DUP2 MSTORE PUSH1 0x20 ADD SWAP1 PUSH1 0x1 ADD SWAP1 DUP1 DUP4 GT PUSH2 0x1430 JUMPI JUMPDEST POP POP POP POP POP DUP6 PUSH2 0x1EA7 JUMP JUMPDEST SWAP1 POP PUSH2 0x1499 PUSH1 0xD2 PUSH1 0x0 DUP5 PUSH20 0xFFFFFFFFFFFFFFFFFFFFFFFFFFFFFFFFFFFFFFFF AND PUSH20 0xFFFFFFFFFFFFFFFFFFFFFFFFFFFFFFFFFFFFFFFF AND DUP2 MSTORE PUSH1 0x20 ADD SWAP1 DUP2 MSTORE PUSH1 0x20 ADD PUSH1 0x0 KECCAK256 DUP3 PUSH2 0x1F03 JUMP JUMPDEST PUSH2 0x14A2 DUP5 PUSH2 0x1FF1 JUMP JUMPDEST POP JUMPDEST JUMPDEST POP POP POP JUMP JUMPDEST PUSH1 0x60 PUSH1 0x66 DUP1 SLOAD PUSH2 0x14B9 SWAP1 PUSH2 0x3857 JUMP JUMPDEST DUP1 PUSH1 0x1F ADD PUSH1 0x20 DUP1 SWAP2 DIV MUL PUSH1 0x20 ADD PUSH1 0x40 MLOAD SWAP1 DUP2 ADD PUSH1 0x40 MSTORE DUP1 SWAP3 SWAP2 SWAP1 DUP2 DUP2 MSTORE PUSH1 0x20 ADD DUP3 DUP1 SLOAD PUSH2 0x14E5 SWAP1 PUSH2 0x3857 JUMP JUMPDEST DUP1 ISZERO PUSH2 0x1532 JUMPI DUP1 PUSH1 0x1F LT PUSH2 0x1507 JUMPI PUSH2 0x100 DUP1 DUP4 SLOAD DIV MUL DUP4 MSTORE SWAP2 PUSH1 0x20 ADD SWAP2 PUSH2 0x1532 JUMP JUMPDEST DUP3 ADD SWAP2 SWAP1 PUSH1 0x0 MSTORE PUSH1 0x20 PUSH1 0x0 KECCAK256 SWAP1 JUMPDEST DUP2 SLOAD DUP2 MSTORE SWAP1 PUSH1 0x1 ADD SWAP1 PUSH1 0x20 ADD DUP1 DUP4 GT PUSH2 0x1515 JUMPI DUP3 SWAP1 SUB PUSH1 0x1F AND DUP3 ADD SWAP2 JUMPDEST POP POP POP POP POP SWAP1 POP SWAP1 JUMP JUMPDEST PUSH2 0x1546 DUP3 DUP3 PUSH2 0x1997 JUMP JUMPDEST POP POP JUMP JUMPDEST PUSH1 0x0 PUSH2 0x1556 PUSH1 0xCE PUSH2 0x2041 JUMP JUMPDEST SWAP1 POP SWAP1 JUMP JUMPDEST PUSH2 0x156D PUSH2 0x1566 PUSH2 0x198F JUMP JUMPDEST DUP4 DUP4 PUSH2 0x204F JUMP JUMPDEST POP POP JUMP JUMPDEST PUSH2 0x1582 PUSH2 0x157C PUSH2 0x198F JUMP JUMPDEST DUP4 PUSH2 0x1A50 JUMP JUMPDEST PUSH2 0x15C1 JUMPI PUSH1 0x40 MLOAD PUSH32 0x8C379A000000000000000000000000000000000000000000000000000000000 DUP2 MSTORE PUSH1 0x4 ADD PUSH2 0x15B8 SWAP1 PUSH2 0x3A1F JUMP JUMPDEST PUSH1 0x40 MLOAD DUP1 SWAP2 SUB SWAP1 REVERT JUMPDEST PUSH2 0x15CD DUP5 DUP5 DUP5 DUP5 PUSH2 0x21BC JUMP JUMPDEST POP POP POP POP JUMP JUMPDEST PUSH1 0x0 PUSH1 0xD0 PUSH1 0x0 DUP4 DUP2 MSTORE PUSH1 0x20 ADD SWAP1 DUP2 MSTORE PUSH1 0x20 ADD PUSH1 0x0 KECCAK256 PUSH1 0x0 SWAP1 SLOAD SWAP1 PUSH2 0x100 EXP SWAP1 DIV PUSH1 0xFF AND SWAP1 POP SWAP2 SWAP1 POP JUMP JUMPDEST PUSH1 0x0 PUSH2 0x1609 PUSH1 0xCD PUSH2 0x2041 JUMP JUMPDEST SWAP1 POP SWAP1 JUMP JUMPDEST PUSH1 0x60 PUSH2 0x1619 DUP3 PUSH2 0x2218 JUMP JUMPDEST PUSH2 0x1658 JUMPI PUSH1 0x40 MLOAD PUSH32 0x8C379A000000000000000000000000000000000000000000000000000000000 DUP2 MSTORE PUSH1 0x4 ADD PUSH2 0x164F SWAP1 PUSH2 0x4030 JUMP JUMPDEST PUSH1 0x40 MLOAD DUP1 SWAP2 SUB SWAP1 REVERT JUMPDEST PUSH1 0x0 PUSH2 0x1662 PUSH2 0x2284 JUMP JUMPDEST SWAP1 POP PUSH1 0x0 DUP2 MLOAD GT PUSH2 0x1682 JUMPI PUSH1 0x40 MLOAD DUP1 PUSH1 0x20 ADD PUSH1 0x40 MSTORE DUP1 PUSH1 0x0 DUP2 MSTORE POP PUSH2 0x16B0 JUMP JUMPDEST DUP1 PUSH2 0x168C DUP5 PUSH2 0x2316 JUMP JUMPDEST PUSH1 0xCA PUSH1 0x40 MLOAD PUSH1 0x20 ADD PUSH2 0x16A0 SWAP4 SWAP3 SWAP2 SWAP1 PUSH2 0x4120 JUMP JUMPDEST PUSH1 0x40 MLOAD PUSH1 0x20 DUP2 DUP4 SUB SUB DUP2 MSTORE SWAP1 PUSH1 0x40 MSTORE JUMPDEST SWAP2 POP POP SWAP2 SWAP1 POP JUMP JUMPDEST PUSH1 0x60 PUSH1 0x0 PUSH2 0x16C5 DUP4 PUSH2 0x101C JUMP JUMPDEST SWAP1 POP PUSH1 0x0 DUP2 PUSH8 0xFFFFFFFFFFFFFFFF DUP2 GT ISZERO PUSH2 0x16E3 JUMPI PUSH2 0x16E2 PUSH2 0x32BB JUMP JUMPDEST JUMPDEST PUSH1 0x40 MLOAD SWAP1 DUP1 DUP3 MSTORE DUP1 PUSH1 0x20 MUL PUSH1 0x20 ADD DUP3 ADD PUSH1 0x40 MSTORE DUP1 ISZERO PUSH2 0x1711 JUMPI DUP2 PUSH1 0x20 ADD PUSH1 0x20 DUP3 MUL DUP1 CALLDATASIZE DUP4 CALLDATACOPY DUP1 DUP3 ADD SWAP2 POP POP SWAP1 POP JUMPDEST POP SWAP1 POP PUSH1 0x0 JUMPDEST DUP3 DUP2 LT ISZERO PUSH2 0x175B JUMPI PUSH2 0x1729 DUP6 DUP3 PUSH2 0xA23 JUMP JUMPDEST DUP3 DUP3 DUP2 MLOAD DUP2 LT PUSH2 0x173C JUMPI PUSH2 0x173B PUSH2 0x3BA5 JUMP JUMPDEST JUMPDEST PUSH1 0x20 MUL PUSH1 0x20 ADD ADD DUP2 DUP2 MSTORE POP POP DUP1 DUP1 PUSH2 0x1753 SWAP1 PUSH2 0x3F4B JUMP JUMPDEST SWAP2 POP POP PUSH2 0x1717 JUMP JUMPDEST POP DUP1 SWAP3 POP POP POP SWAP2 SWAP1 POP JUMP JUMPDEST PUSH1 0x0 PUSH1 0x6A PUSH1 0x0 DUP5 PUSH20 0xFFFFFFFFFFFFFFFFFFFFFFFFFFFFFFFFFFFFFFFF AND PUSH20 0xFFFFFFFFFFFFFFFFFFFFFFFFFFFFFFFFFFFFFFFF AND DUP2 MSTORE PUSH1 0x20 ADD SWAP1 DUP2 MSTORE PUSH1 0x20 ADD PUSH1 0x0 KECCAK256 PUSH1 0x0 DUP4 PUSH20 0xFFFFFFFFFFFFFFFFFFFFFFFFFFFFFFFFFFFFFFFF AND PUSH20 0xFFFFFFFFFFFFFFFFFFFFFFFFFFFFFFFFFFFFFFFF AND DUP2 MSTORE PUSH1 0x20 ADD SWAP1 DUP2 MSTORE PUSH1 0x20 ADD PUSH1 0x0 KECCAK256 PUSH1 0x0 SWAP1 SLOAD SWAP1 PUSH2 0x100 EXP SWAP1 DIV PUSH1 0xFF AND SWAP1 POP SWAP3 SWAP2 POP POP JUMP JUMPDEST PUSH1 0x0 PUSH2 0x1805 DUP3 PUSH2 0x15D3 JUMP JUMPDEST PUSH2 0x1844 JUMPI PUSH1 0x40 MLOAD PUSH32 0x8C379A000000000000000000000000000000000000000000000000000000000 DUP2 MSTORE PUSH1 0x4 ADD PUSH2 0x183B SWAP1 PUSH2 0x3D7E JUMP JUMPDEST PUSH1 0x40 MLOAD DUP1 SWAP2 SUB SWAP1 REVERT JUMPDEST PUSH1 0xCF PUSH1 0x0 DUP4 DUP2 MSTORE PUSH1 0x20 ADD SWAP1 DUP2 MSTORE PUSH1 0x20 ADD PUSH1 0x0 KECCAK256 PUSH1 0x1 ADD SLOAD SWAP1 POP SWAP2 SWAP1 POP JUMP JUMPDEST PUSH1 0x0 PUSH32 0x80AC58CD00000000000000000000000000000000000000000000000000000000 PUSH28 0xFFFFFFFFFFFFFFFFFFFFFFFFFFFFFFFFFFFFFFFFFFFFFFFFFFFFFFFF NOT AND DUP3 PUSH28 0xFFFFFFFFFFFFFFFFFFFFFFFFFFFFFFFFFFFFFFFFFFFFFFFFFFFFFFFF NOT AND EQ DUP1 PUSH2 0x192D JUMPI POP PUSH32 0x5B5E139F00000000000000000000000000000000000000000000000000000000 PUSH28 0xFFFFFFFFFFFFFFFFFFFFFFFFFFFFFFFFFFFFFFFFFFFFFFFFFFFFFFFF NOT AND DUP3 PUSH28 0xFFFFFFFFFFFFFFFFFFFFFFFFFFFFFFFFFFFFFFFFFFFFFFFFFFFFFFFF NOT AND EQ JUMPDEST DUP1 PUSH2 0x193D JUMPI POP PUSH2 0x193C DUP3 PUSH2 0x2477 JUMP JUMPDEST JUMPDEST SWAP1 POP SWAP2 SWAP1 POP JUMP JUMPDEST PUSH2 0x194D DUP2 PUSH2 0x2218 JUMP JUMPDEST PUSH2 0x198C JUMPI PUSH1 0x40 MLOAD PUSH32 0x8C379A000000000000000000000000000000000000000000000000000000000 DUP2 MSTORE PUSH1 0x4 ADD PUSH2 0x1983 SWAP1 PUSH2 0x3D12 JUMP JUMPDEST PUSH1 0x40 MLOAD DUP1 SWAP2 SUB SWAP1 REVERT JUMPDEST POP JUMP JUMPDEST PUSH1 0x0 CALLER SWAP1 POP SWAP1 JUMP JUMPDEST DUP2 PUSH1 0x69 PUSH1 0x0 DUP4 DUP2 MSTORE PUSH1 0x20 ADD SWAP1 DUP2 MSTORE PUSH1 0x20 ADD PUSH1 0x0 KECCAK256 PUSH1 0x0 PUSH2 0x100 EXP DUP2 SLOAD DUP2 PUSH20 0xFFFFFFFFFFFFFFFFFFFFFFFFFFFFFFFFFFFFFFFF MUL NOT AND SWAP1 DUP4 PUSH20 0xFFFFFFFFFFFFFFFFFFFFFFFFFFFFFFFFFFFFFFFF AND MUL OR SWAP1 SSTORE POP DUP1 DUP3 PUSH20 0xFFFFFFFFFFFFFFFFFFFFFFFFFFFFFFFFFFFFFFFF AND PUSH2 0x1A0A DUP4 PUSH2 0xE7B JUMP JUMPDEST PUSH20 0xFFFFFFFFFFFFFFFFFFFFFFFFFFFFFFFFFFFFFFFF AND PUSH32 0x8C5BE1E5EBEC7D5BD14F71427D1E84F3DD0314C0F7B2291E5B200AC8C7C3B925 PUSH1 0x40 MLOAD PUSH1 0x40 MLOAD DUP1 SWAP2 SUB SWAP1 LOG4 POP POP JUMP JUMPDEST PUSH1 0x0 DUP1 PUSH2 0x1A5C DUP4 PUSH2 0xE7B JUMP JUMPDEST SWAP1 POP DUP1 PUSH20 0xFFFFFFFFFFFFFFFFFFFFFFFFFFFFFFFFFFFFFFFF AND DUP5 PUSH20 0xFFFFFFFFFFFFFFFFFFFFFFFFFFFFFFFFFFFFFFFF AND EQ DUP1 PUSH2 0x1A9E JUMPI POP PUSH2 0x1A9D DUP2 DUP6 PUSH2 0x1766 JUMP JUMPDEST JUMPDEST DUP1 PUSH2 0x1ADC JUMPI POP DUP4 PUSH20 0xFFFFFFFFFFFFFFFFFFFFFFFFFFFFFFFFFFFFFFFF AND PUSH2 0x1AC4 DUP5 PUSH2 0x795 JUMP JUMPDEST PUSH20 0xFFFFFFFFFFFFFFFFFFFFFFFFFFFFFFFFFFFFFFFF AND EQ JUMPDEST SWAP2 POP POP SWAP3 SWAP2 POP POP JUMP JUMPDEST DUP3 PUSH20 0xFFFFFFFFFFFFFFFFFFFFFFFFFFFFFFFFFFFFFFFF AND PUSH2 0x1B05 DUP3 PUSH2 0xE7B JUMP JUMPDEST PUSH20 0xFFFFFFFFFFFFFFFFFFFFFFFFFFFFFFFFFFFFFFFF AND EQ PUSH2 0x1B5B JUMPI PUSH1 0x40 MLOAD PUSH32 0x8C379A000000000000000000000000000000000000000000000000000000000 DUP2 MSTORE PUSH1 0x4 ADD PUSH2 0x1B52 SWAP1 PUSH2 0x41C3 JUMP JUMPDEST PUSH1 0x40 MLOAD DUP1 SWAP2 SUB SWAP1 REVERT JUMPDEST PUSH1 0x0 PUSH20 0xFFFFFFFFFFFFFFFFFFFFFFFFFFFFFFFFFFFFFFFF AND DUP3 PUSH20 0xFFFFFFFFFFFFFFFFFFFFFFFFFFFFFFFFFFFFFFFF AND EQ ISZERO PUSH2 0x1BCB JUMPI PUSH1 0x40 MLOAD PUSH32 0x8C379A000000000000000000000000000000000000000000000000000000000 DUP2 MSTORE PUSH1 0x4 ADD PUSH2 0x1BC2 SWAP1 PUSH2 0x4255 JUMP JUMPDEST PUSH1 0x40 MLOAD DUP1 SWAP2 SUB SWAP1 REVERT JUMPDEST PUSH2 0x1BD6 DUP4 DUP4 DUP4 PUSH2 0x24E1 JUMP JUMPDEST PUSH2 0x1BE1 PUSH1 0x0 DUP3 PUSH2 0x1997 JUMP JUMPDEST PUSH1 0x1 PUSH1 0x68 PUSH1 0x0 DUP6 PUSH20 0xFFFFFFFFFFFFFFFFFFFFFFFFFFFFFFFFFFFFFFFF AND PUSH20 0xFFFFFFFFFFFFFFFFFFFFFFFFFFFFFFFFFFFFFFFF AND DUP2 MSTORE PUSH1 0x20 ADD SWAP1 DUP2 MSTORE PUSH1 0x20 ADD PUSH1 0x0 KECCAK256 PUSH1 0x0 DUP3 DUP3 SLOAD PUSH2 0x1C31 SWAP2 SWAP1 PUSH2 0x4275 JUMP JUMPDEST SWAP3 POP POP DUP2 SWAP1 SSTORE POP PUSH1 0x1 PUSH1 0x68 PUSH1 0x0 DUP5 PUSH20 0xFFFFFFFFFFFFFFFFFFFFFFFFFFFFFFFFFFFFFFFF AND PUSH20 0xFFFFFFFFFFFFFFFFFFFFFFFFFFFFFFFFFFFFFFFF AND DUP2 MSTORE PUSH1 0x20 ADD SWAP1 DUP2 MSTORE PUSH1 0x20 ADD PUSH1 0x0 KECCAK256 PUSH1 0x0 DUP3 DUP3 SLOAD PUSH2 0x1C88 SWAP2 SWAP1 PUSH2 0x3E5F JUMP JUMPDEST SWAP3 POP POP DUP2 SWAP1 SSTORE POP DUP2 PUSH1 0x67 PUSH1 0x0 DUP4 DUP2 MSTORE PUSH1 0x20 ADD SWAP1 DUP2 MSTORE PUSH1 0x20 ADD PUSH1 0x0 KECCAK256 PUSH1 0x0 PUSH2 0x100 EXP DUP2 SLOAD DUP2 PUSH20 0xFFFFFFFFFFFFFFFFFFFFFFFFFFFFFFFFFFFFFFFF MUL NOT AND SWAP1 DUP4 PUSH20 0xFFFFFFFFFFFFFFFFFFFFFFFFFFFFFFFFFFFFFFFF AND MUL OR SWAP1 SSTORE POP DUP1 DUP3 PUSH20 0xFFFFFFFFFFFFFFFFFFFFFFFFFFFFFFFFFFFFFFFF AND DUP5 PUSH20 0xFFFFFFFFFFFFFFFFFFFFFFFFFFFFFFFFFFFFFFFF AND PUSH32 0xDDF252AD1BE2C89B69C2B068FC378DAA952BA7F163C4A11628F55A4DF523B3EF PUSH1 0x40 MLOAD PUSH1 0x40 MLOAD DUP1 SWAP2 SUB SWAP1 LOG4 PUSH2 0x1D47 DUP4 DUP4 DUP4 PUSH2 0x25F5 JUMP JUMPDEST POP POP POP JUMP JUMPDEST PUSH2 0x1D66 DUP3 DUP3 PUSH1 0x40 MLOAD DUP1 PUSH1 0x20 ADD PUSH1 0x40 MSTORE DUP1 PUSH1 0x0 DUP2 MSTORE POP PUSH2 0x25FA JUMP JUMPDEST POP POP JUMP JUMPDEST PUSH1 0x1 DUP2 PUSH1 0x0 ADD PUSH1 0x0 DUP3 DUP3 SLOAD ADD SWAP3 POP POP DUP2 SWAP1 SSTORE POP POP JUMP JUMPDEST PUSH1 0x0 DUP1 DUP3 PUSH20 0xFFFFFFFFFFFFFFFFFFFFFFFFFFFFFFFFFFFFFFFF AND EXTCODESIZE GT SWAP1 POP SWAP2 SWAP1 POP JUMP JUMPDEST PUSH1 0x0 PUSH1 0x1 SWAP1 SLOAD SWAP1 PUSH2 0x100 EXP SWAP1 DIV PUSH1 0xFF AND PUSH2 0x1DF2 JUMPI PUSH1 0x40 MLOAD PUSH32 0x8C379A000000000000000000000000000000000000000000000000000000000 DUP2 MSTORE PUSH1 0x4 ADD PUSH2 0x1DE9 SWAP1 PUSH2 0x431B JUMP JUMPDEST PUSH1 0x40 MLOAD DUP1 SWAP2 SUB SWAP1 REVERT JUMPDEST PUSH2 0x1DFC DUP3 DUP3 PUSH2 0x2655 JUMP JUMPDEST POP POP JUMP JUMPDEST PUSH1 0x40 MLOAD DUP1 PUSH1 0x60 ADD PUSH1 0x40 MSTORE DUP1 DUP5 DUP2 MSTORE PUSH1 0x20 ADD DUP4 DUP2 MSTORE PUSH1 0x20 ADD DUP3 PUSH20 0xFFFFFFFFFFFFFFFFFFFFFFFFFFFFFFFFFFFFFFFF AND DUP2 MSTORE POP PUSH1 0xCF PUSH1 0x0 DUP6 DUP2 MSTORE PUSH1 0x20 ADD SWAP1 DUP2 MSTORE PUSH1 0x20 ADD PUSH1 0x0 KECCAK256 PUSH1 0x0 DUP3 ADD MLOAD DUP2 PUSH1 0x0 ADD SSTORE PUSH1 0x20 DUP3 ADD MLOAD DUP2 PUSH1 0x1 ADD SSTORE PUSH1 0x40 DUP3 ADD MLOAD DUP2 PUSH1 0x2 ADD PUSH1 0x0 PUSH2 0x100 EXP DUP2 SLOAD DUP2 PUSH20 0xFFFFFFFFFFFFFFFFFFFFFFFFFFFFFFFFFFFFFFFF MUL NOT AND SWAP1 DUP4 PUSH20 0xFFFFFFFFFFFFFFFFFFFFFFFFFFFFFFFFFFFFFFFF AND MUL OR SWAP1 SSTORE POP SWAP1 POP POP POP POP POP JUMP JUMPDEST PUSH1 0x0 DUP1 PUSH1 0x0 SWAP1 POP JUMPDEST DUP4 MLOAD DUP2 LT ISZERO PUSH2 0x1EF6 JUMPI DUP3 DUP5 DUP3 DUP2 MLOAD DUP2 LT PUSH2 0x1ECC JUMPI PUSH2 0x1ECB PUSH2 0x3BA5 JUMP JUMPDEST JUMPDEST PUSH1 0x20 MUL PUSH1 0x20 ADD ADD MLOAD EQ ISZERO PUSH2 0x1EE3 JUMPI DUP1 SWAP2 POP POP PUSH2 0x1EFD JUMP JUMPDEST DUP1 DUP1 PUSH2 0x1EEE SWAP1 PUSH2 0x3F4B JUMP JUMPDEST SWAP2 POP POP PUSH2 0x1EAF JUMP JUMPDEST POP PUSH2 0x101 SWAP1 POP JUMPDEST SWAP3 SWAP2 POP POP JUMP JUMPDEST DUP1 DUP3 DUP1 SLOAD SWAP1 POP GT PUSH2 0x1F49 JUMPI PUSH1 0x40 MLOAD PUSH32 0x8C379A000000000000000000000000000000000000000000000000000000000 DUP2 MSTORE PUSH1 0x4 ADD PUSH2 0x1F40 SWAP1 PUSH2 0x4387 JUMP JUMPDEST PUSH1 0x40 MLOAD DUP1 SWAP2 SUB SWAP1 REVERT JUMPDEST PUSH1 0x0 DUP2 SWAP1 POP JUMPDEST PUSH1 0x1 DUP4 DUP1 SLOAD SWAP1 POP PUSH2 0x1F60 SWAP2 SWAP1 PUSH2 0x4275 JUMP JUMPDEST DUP2 LT ISZERO PUSH2 0x1FC5 JUMPI DUP3 PUSH1 0x1 DUP3 PUSH2 0x1F75 SWAP2 SWAP1 PUSH2 0x3E5F JUMP JUMPDEST DUP2 SLOAD DUP2 LT PUSH2 0x1F86 JUMPI PUSH2 0x1F85 PUSH2 0x3BA5 JUMP JUMPDEST JUMPDEST SWAP1 PUSH1 0x0 MSTORE PUSH1 0x20 PUSH1 0x0 KECCAK256 ADD SLOAD DUP4 DUP3 DUP2 SLOAD DUP2 LT PUSH2 0x1FA4 JUMPI PUSH2 0x1FA3 PUSH2 0x3BA5 JUMP JUMPDEST JUMPDEST SWAP1 PUSH1 0x0 MSTORE PUSH1 0x20 PUSH1 0x0 KECCAK256 ADD DUP2 SWAP1 SSTORE POP DUP1 DUP1 PUSH2 0x1FBD SWAP1 PUSH2 0x3F4B JUMP JUMPDEST SWAP2 POP POP PUSH2 0x1F4F JUMP JUMPDEST POP DUP2 DUP1 SLOAD DUP1 PUSH2 0x1FD7 JUMPI PUSH2 0x1FD6 PUSH2 0x43A7 JUMP JUMPDEST JUMPDEST PUSH1 0x1 SWAP1 SUB DUP2 DUP2 SWAP1 PUSH1 0x0 MSTORE PUSH1 0x20 PUSH1 0x0 KECCAK256 ADD PUSH1 0x0 SWAP1 SSTORE SWAP1 SSTORE POP POP JUMP JUMPDEST PUSH1 0xCF PUSH1 0x0 DUP3 DUP2 MSTORE PUSH1 0x20 ADD SWAP1 DUP2 MSTORE PUSH1 0x20 ADD PUSH1 0x0 KECCAK256 PUSH1 0x0 DUP1 DUP3 ADD PUSH1 0x0 SWAP1 SSTORE PUSH1 0x1 DUP3 ADD PUSH1 0x0 SWAP1 SSTORE PUSH1 0x2 DUP3 ADD PUSH1 0x0 PUSH2 0x100 EXP DUP2 SLOAD SWAP1 PUSH20 0xFFFFFFFFFFFFFFFFFFFFFFFFFFFFFFFFFFFFFFFF MUL NOT AND SWAP1 SSTORE POP POP POP JUMP JUMPDEST PUSH1 0x0 DUP2 PUSH1 0x0 ADD SLOAD SWAP1 POP SWAP2 SWAP1 POP JUMP JUMPDEST DUP2 PUSH20 0xFFFFFFFFFFFFFFFFFFFFFFFFFFFFFFFFFFFFFFFF AND DUP4 PUSH20 0xFFFFFFFFFFFFFFFFFFFFFFFFFFFFFFFFFFFFFFFF AND EQ ISZERO PUSH2 0x20BE JUMPI PUSH1 0x40 MLOAD PUSH32 0x8C379A000000000000000000000000000000000000000000000000000000000 DUP2 MSTORE PUSH1 0x4 ADD PUSH2 0x20B5 SWAP1 PUSH2 0x4422 JUMP JUMPDEST PUSH1 0x40 MLOAD DUP1 SWAP2 SUB SWAP1 REVERT JUMPDEST DUP1 PUSH1 0x6A PUSH1 0x0 DUP6 PUSH20 0xFFFFFFFFFFFFFFFFFFFFFFFFFFFFFFFFFFFFFFFF AND PUSH20 0xFFFFFFFFFFFFFFFFFFFFFFFFFFFFFFFFFFFFFFFF AND DUP2 MSTORE PUSH1 0x20 ADD SWAP1 DUP2 MSTORE PUSH1 0x20 ADD PUSH1 0x0 KECCAK256 PUSH1 0x0 DUP5 PUSH20 0xFFFFFFFFFFFFFFFFFFFFFFFFFFFFFFFFFFFFFFFF AND PUSH20 0xFFFFFFFFFFFFFFFFFFFFFFFFFFFFFFFFFFFFFFFF AND DUP2 MSTORE PUSH1 0x20 ADD SWAP1 DUP2 MSTORE PUSH1 0x20 ADD PUSH1 0x0 KECCAK256 PUSH1 0x0 PUSH2 0x100 EXP DUP2 SLOAD DUP2 PUSH1 0xFF MUL NOT AND SWAP1 DUP4 ISZERO ISZERO MUL OR SWAP1 SSTORE POP DUP2 PUSH20 0xFFFFFFFFFFFFFFFFFFFFFFFFFFFFFFFFFFFFFFFF AND DUP4 PUSH20 0xFFFFFFFFFFFFFFFFFFFFFFFFFFFFFFFFFFFFFFFF AND PUSH32 0x17307EAB39AB6107E8899845AD3D59BD9653F200F220920489CA2B5937696C31 DUP4 PUSH1 0x40 MLOAD PUSH2 0x21AF SWAP2 SWAP1 PUSH2 0x2E9A JUMP JUMPDEST PUSH1 0x40 MLOAD DUP1 SWAP2 SUB SWAP1 LOG3 POP POP POP JUMP JUMPDEST PUSH2 0x21C7 DUP5 DUP5 DUP5 PUSH2 0x1AE5 JUMP JUMPDEST PUSH2 0x21D3 DUP5 DUP5 DUP5 DUP5 PUSH2 0x26D6 JUMP JUMPDEST PUSH2 0x2212 JUMPI PUSH1 0x40 MLOAD PUSH32 0x8C379A000000000000000000000000000000000000000000000000000000000 DUP2 MSTORE PUSH1 0x4 ADD PUSH2 0x2209 SWAP1 PUSH2 0x44B4 JUMP JUMPDEST PUSH1 0x40 MLOAD DUP1 SWAP2 SUB SWAP1 REVERT JUMPDEST POP POP POP POP JUMP JUMPDEST PUSH1 0x0 DUP1 PUSH20 0xFFFFFFFFFFFFFFFFFFFFFFFFFFFFFFFFFFFFFFFF AND PUSH1 0x67 PUSH1 0x0 DUP5 DUP2 MSTORE PUSH1 0x20 ADD SWAP1 DUP2 MSTORE PUSH1 0x20 ADD PUSH1 0x0 KECCAK256 PUSH1 0x0 SWAP1 SLOAD SWAP1 PUSH2 0x100 EXP SWAP1 DIV PUSH20 0xFFFFFFFFFFFFFFFFFFFFFFFFFFFFFFFFFFFFFFFF AND PUSH20 0xFFFFFFFFFFFFFFFFFFFFFFFFFFFFFFFFFFFFFFFF AND EQ ISZERO SWAP1 POP SWAP2 SWAP1 POP JUMP JUMPDEST PUSH1 0x60 PUSH1 0xC9 DUP1 SLOAD PUSH2 0x2293 SWAP1 PUSH2 0x3857 JUMP JUMPDEST DUP1 PUSH1 0x1F ADD PUSH1 0x20 DUP1 SWAP2 DIV MUL PUSH1 0x20 ADD PUSH1 0x40 MLOAD SWAP1 DUP2 ADD PUSH1 0x40 MSTORE DUP1 SWAP3 SWAP2 SWAP1 DUP2 DUP2 MSTORE PUSH1 0x20 ADD DUP3 DUP1 SLOAD PUSH2 0x22BF SWAP1 PUSH2 0x3857 JUMP JUMPDEST DUP1 ISZERO PUSH2 0x230C JUMPI DUP1 PUSH1 0x1F LT PUSH2 0x22E1 JUMPI PUSH2 0x100 DUP1 DUP4 SLOAD DIV MUL DUP4 MSTORE SWAP2 PUSH1 0x20 ADD SWAP2 PUSH2 0x230C JUMP JUMPDEST DUP3 ADD SWAP2 SWAP1 PUSH1 0x0 MSTORE PUSH1 0x20 PUSH1 0x0 KECCAK256 SWAP1 JUMPDEST DUP2 SLOAD DUP2 MSTORE SWAP1 PUSH1 0x1 ADD SWAP1 PUSH1 0x20 ADD DUP1 DUP4 GT PUSH2 0x22EF JUMPI DUP3 SWAP1 SUB PUSH1 0x1F AND DUP3 ADD SWAP2 JUMPDEST POP POP POP POP POP SWAP1 POP SWAP1 JUMP JUMPDEST PUSH1 0x60 PUSH1 0x0 DUP3 EQ ISZERO PUSH2 0x235E JUMPI PUSH1 0x40 MLOAD DUP1 PUSH1 0x40 ADD PUSH1 0x40 MSTORE DUP1 PUSH1 0x1 DUP2 MSTORE PUSH1 0x20 ADD PUSH32 0x3000000000000000000000000000000000000000000000000000000000000000 DUP2 MSTORE POP SWAP1 POP PUSH2 0x2472 JUMP JUMPDEST PUSH1 0x0 DUP3 SWAP1 POP PUSH1 0x0 JUMPDEST PUSH1 0x0 DUP3 EQ PUSH2 0x2390 JUMPI DUP1 DUP1 PUSH2 0x2379 SWAP1 PUSH2 0x3F4B JUMP JUMPDEST SWAP2 POP POP PUSH1 0xA DUP3 PUSH2 0x2389 SWAP2 SWAP1 PUSH2 0x4503 JUMP JUMPDEST SWAP2 POP PUSH2 0x2366 JUMP JUMPDEST PUSH1 0x0 DUP2 PUSH8 0xFFFFFFFFFFFFFFFF DUP2 GT ISZERO PUSH2 0x23AC JUMPI PUSH2 0x23AB PUSH2 0x32BB JUMP JUMPDEST JUMPDEST PUSH1 0x40 MLOAD SWAP1 DUP1 DUP3 MSTORE DUP1 PUSH1 0x1F ADD PUSH1 0x1F NOT AND PUSH1 0x20 ADD DUP3 ADD PUSH1 0x40 MSTORE DUP1 ISZERO PUSH2 0x23DE JUMPI DUP2 PUSH1 0x20 ADD PUSH1 0x1 DUP3 MUL DUP1 CALLDATASIZE DUP4 CALLDATACOPY DUP1 DUP3 ADD SWAP2 POP POP SWAP1 POP JUMPDEST POP SWAP1 POP JUMPDEST PUSH1 0x0 DUP6 EQ PUSH2 0x246B JUMPI PUSH1 0x1 DUP3 PUSH2 0x23F7 SWAP2 SWAP1 PUSH2 0x4275 JUMP JUMPDEST SWAP2 POP PUSH1 0xA DUP6 PUSH2 0x2406 SWAP2 SWAP1 PUSH2 0x4534 JUMP JUMPDEST PUSH1 0x30 PUSH2 0x2412 SWAP2 SWAP1 PUSH2 0x3E5F JUMP JUMPDEST PUSH1 0xF8 SHL DUP2 DUP4 DUP2 MLOAD DUP2 LT PUSH2 0x2428 JUMPI PUSH2 0x2427 PUSH2 0x3BA5 JUMP JUMPDEST JUMPDEST PUSH1 0x20 ADD ADD SWAP1 PUSH31 0xFFFFFFFFFFFFFFFFFFFFFFFFFFFFFFFFFFFFFFFFFFFFFFFFFFFFFFFFFFFFFF NOT AND SWAP1 DUP2 PUSH1 0x0 BYTE SWAP1 MSTORE8 POP PUSH1 0xA DUP6 PUSH2 0x2464 SWAP2 SWAP1 PUSH2 0x4503 JUMP JUMPDEST SWAP5 POP PUSH2 0x23E2 JUMP JUMPDEST DUP1 SWAP4 POP POP POP POP JUMPDEST SWAP2 SWAP1 POP JUMP JUMPDEST PUSH1 0x0 PUSH32 0x1FFC9A700000000000000000000000000000000000000000000000000000000 PUSH28 0xFFFFFFFFFFFFFFFFFFFFFFFFFFFFFFFFFFFFFFFFFFFFFFFFFFFFFFFF NOT AND DUP3 PUSH28 0xFFFFFFFFFFFFFFFFFFFFFFFFFFFFFFFFFFFFFFFFFFFFFFFFFFFFFFFF NOT AND EQ SWAP1 POP SWAP2 SWAP1 POP JUMP JUMPDEST PUSH2 0x24EC DUP4 DUP4 DUP4 PUSH2 0x285E JUMP JUMPDEST PUSH1 0x0 PUSH20 0xFFFFFFFFFFFFFFFFFFFFFFFFFFFFFFFFFFFFFFFF AND DUP4 PUSH20 0xFFFFFFFFFFFFFFFFFFFFFFFFFFFFFFFFFFFFFFFF AND EQ ISZERO PUSH2 0x252F JUMPI PUSH2 0x252A DUP2 PUSH2 0x2863 JUMP JUMPDEST PUSH2 0x256E JUMP JUMPDEST DUP2 PUSH20 0xFFFFFFFFFFFFFFFFFFFFFFFFFFFFFFFFFFFFFFFF AND DUP4 PUSH20 0xFFFFFFFFFFFFFFFFFFFFFFFFFFFFFFFFFFFFFFFF AND EQ PUSH2 0x256D JUMPI PUSH2 0x256C DUP4 DUP3 PUSH2 0x28AC JUMP JUMPDEST JUMPDEST JUMPDEST PUSH1 0x0 PUSH20 0xFFFFFFFFFFFFFFFFFFFFFFFFFFFFFFFFFFFFFFFF AND DUP3 PUSH20 0xFFFFFFFFFFFFFFFFFFFFFFFFFFFFFFFFFFFFFFFF AND EQ ISZERO PUSH2 0x25B1 JUMPI PUSH2 0x25AC DUP2 PUSH2 0x2A19 JUMP JUMPDEST PUSH2 0x25F0 JUMP JUMPDEST DUP3 PUSH20 0xFFFFFFFFFFFFFFFFFFFFFFFFFFFFFFFFFFFFFFFF AND DUP3 PUSH20 0xFFFFFFFFFFFFFFFFFFFFFFFFFFFFFFFFFFFFFFFF AND EQ PUSH2 0x25EF JUMPI PUSH2 0x25EE DUP3 DUP3 PUSH2 0x2AEA JUMP JUMPDEST JUMPDEST JUMPDEST POP POP POP JUMP JUMPDEST POP POP POP JUMP JUMPDEST PUSH2 0x2604 DUP4 DUP4 PUSH2 0x2B69 JUMP JUMPDEST PUSH2 0x2611 PUSH1 0x0 DUP5 DUP5 DUP5 PUSH2 0x26D6 JUMP JUMPDEST PUSH2 0x2650 JUMPI PUSH1 0x40 MLOAD PUSH32 0x8C379A000000000000000000000000000000000000000000000000000000000 DUP2 MSTORE PUSH1 0x4 ADD PUSH2 0x2647 SWAP1 PUSH2 0x44B4 JUMP JUMPDEST PUSH1 0x40 MLOAD DUP1 SWAP2 SUB SWAP1 REVERT JUMPDEST POP POP POP JUMP JUMPDEST PUSH1 0x0 PUSH1 0x1 SWAP1 SLOAD SWAP1 PUSH2 0x100 EXP SWAP1 DIV PUSH1 0xFF AND PUSH2 0x26A4 JUMPI PUSH1 0x40 MLOAD PUSH32 0x8C379A000000000000000000000000000000000000000000000000000000000 DUP2 MSTORE PUSH1 0x4 ADD PUSH2 0x269B SWAP1 PUSH2 0x431B JUMP JUMPDEST PUSH1 0x40 MLOAD DUP1 SWAP2 SUB SWAP1 REVERT JUMPDEST DUP2 PUSH1 0x65 SWAP1 DUP1 MLOAD SWAP1 PUSH1 0x20 ADD SWAP1 PUSH2 0x26BA SWAP3 SWAP2 SWAP1 PUSH2 0x2D43 JUMP JUMPDEST POP DUP1 PUSH1 0x66 SWAP1 DUP1 MLOAD SWAP1 PUSH1 0x20 ADD SWAP1 PUSH2 0x26D1 SWAP3 SWAP2 SWAP1 PUSH2 0x2D43 JUMP JUMPDEST POP POP POP JUMP JUMPDEST PUSH1 0x0 PUSH2 0x26F7 DUP5 PUSH20 0xFFFFFFFFFFFFFFFFFFFFFFFFFFFFFFFFFFFFFFFF AND PUSH2 0x1D80 JUMP JUMPDEST ISZERO PUSH2 0x2851 JUMPI DUP4 PUSH20 0xFFFFFFFFFFFFFFFFFFFFFFFFFFFFFFFFFFFFFFFF AND PUSH4 0x150B7A02 PUSH2 0x2720 PUSH2 0x198F JUMP JUMPDEST DUP8 DUP7 DUP7 PUSH1 0x40 MLOAD DUP6 PUSH4 0xFFFFFFFF AND PUSH1 0xE0 SHL DUP2 MSTORE PUSH1 0x4 ADD PUSH2 0x2742 SWAP5 SWAP4 SWAP3 SWAP2 SWAP1 PUSH2 0x45BA JUMP JUMPDEST PUSH1 0x20 PUSH1 0x40 MLOAD DUP1 DUP4 SUB DUP2 PUSH1 0x0 DUP8 GAS CALL SWAP3 POP POP POP DUP1 ISZERO PUSH2 0x277E JUMPI POP PUSH1 0x40 MLOAD RETURNDATASIZE PUSH1 0x1F NOT PUSH1 0x1F DUP3 ADD AND DUP3 ADD DUP1 PUSH1 0x40 MSTORE POP DUP2 ADD SWAP1 PUSH2 0x277B SWAP2 SWAP1 PUSH2 0x461B JUMP JUMPDEST PUSH1 0x1 JUMPDEST PUSH2 0x2801 JUMPI RETURNDATASIZE DUP1 PUSH1 0x0 DUP2 EQ PUSH2 0x27AE JUMPI PUSH1 0x40 MLOAD SWAP2 POP PUSH1 0x1F NOT PUSH1 0x3F RETURNDATASIZE ADD AND DUP3 ADD PUSH1 0x40 MSTORE RETURNDATASIZE DUP3 MSTORE RETURNDATASIZE PUSH1 0x0 PUSH1 0x20 DUP5 ADD RETURNDATACOPY PUSH2 0x27B3 JUMP JUMPDEST PUSH1 0x60 SWAP2 POP JUMPDEST POP PUSH1 0x0 DUP2 MLOAD EQ ISZERO PUSH2 0x27F9 JUMPI PUSH1 0x40 MLOAD PUSH32 0x8C379A000000000000000000000000000000000000000000000000000000000 DUP2 MSTORE PUSH1 0x4 ADD PUSH2 0x27F0 SWAP1 PUSH2 0x44B4 JUMP JUMPDEST PUSH1 0x40 MLOAD DUP1 SWAP2 SUB SWAP1 REVERT JUMPDEST DUP1 MLOAD DUP2 PUSH1 0x20 ADD REVERT JUMPDEST PUSH4 0x150B7A02 PUSH1 0xE0 SHL PUSH28 0xFFFFFFFFFFFFFFFFFFFFFFFFFFFFFFFFFFFFFFFFFFFFFFFFFFFFFFFF NOT AND DUP2 PUSH28 0xFFFFFFFFFFFFFFFFFFFFFFFFFFFFFFFFFFFFFFFFFFFFFFFFFFFFFFFF NOT AND EQ SWAP2 POP POP PUSH2 0x2856 JUMP JUMPDEST PUSH1 0x1 SWAP1 POP JUMPDEST SWAP5 SWAP4 POP POP POP POP JUMP JUMPDEST POP POP POP JUMP JUMPDEST PUSH1 0x99 DUP1 SLOAD SWAP1 POP PUSH1 0x9A PUSH1 0x0 DUP4 DUP2 MSTORE PUSH1 0x20 ADD SWAP1 DUP2 MSTORE PUSH1 0x20 ADD PUSH1 0x0 KECCAK256 DUP2 SWAP1 SSTORE POP PUSH1 0x99 DUP2 SWAP1 DUP1 PUSH1 0x1 DUP2 SLOAD ADD DUP1 DUP3 SSTORE DUP1 SWAP2 POP POP PUSH1 0x1 SWAP1 SUB SWAP1 PUSH1 0x0 MSTORE PUSH1 0x20 PUSH1 0x0 KECCAK256 ADD PUSH1 0x0 SWAP1 SWAP2 SWAP1 SWAP2 SWAP1 SWAP2 POP SSTORE POP JUMP JUMPDEST PUSH1 0x0 PUSH1 0x1 PUSH2 0x28B9 DUP5 PUSH2 0x101C JUMP JUMPDEST PUSH2 0x28C3 SWAP2 SWAP1 PUSH2 0x4275 JUMP JUMPDEST SWAP1 POP PUSH1 0x0 PUSH1 0x98 PUSH1 0x0 DUP5 DUP2 MSTORE PUSH1 0x20 ADD SWAP1 DUP2 MSTORE PUSH1 0x20 ADD PUSH1 0x0 KECCAK256 SLOAD SWAP1 POP DUP2 DUP2 EQ PUSH2 0x29A8 JUMPI PUSH1 0x0 PUSH1 0x97 PUSH1 0x0 DUP7 PUSH20 0xFFFFFFFFFFFFFFFFFFFFFFFFFFFFFFFFFFFFFFFF AND PUSH20 0xFFFFFFFFFFFFFFFFFFFFFFFFFFFFFFFFFFFFFFFF AND DUP2 MSTORE PUSH1 0x20 ADD SWAP1 DUP2 MSTORE PUSH1 0x20 ADD PUSH1 0x0 KECCAK256 PUSH1 0x0 DUP5 DUP2 MSTORE PUSH1 0x20 ADD SWAP1 DUP2 MSTORE PUSH1 0x20 ADD PUSH1 0x0 KECCAK256 SLOAD SWAP1 POP DUP1 PUSH1 0x97 PUSH1 0x0 DUP8 PUSH20 0xFFFFFFFFFFFFFFFFFFFFFFFFFFFFFFFFFFFFFFFF AND PUSH20 0xFFFFFFFFFFFFFFFFFFFFFFFFFFFFFFFFFFFFFFFF AND DUP2 MSTORE PUSH1 0x20 ADD SWAP1 DUP2 MSTORE PUSH1 0x20 ADD PUSH1 0x0 KECCAK256 PUSH1 0x0 DUP5 DUP2 MSTORE PUSH1 0x20 ADD SWAP1 DUP2 MSTORE PUSH1 0x20 ADD PUSH1 0x0 KECCAK256 DUP2 SWAP1 SSTORE POP DUP2 PUSH1 0x98 PUSH1 0x0 DUP4 DUP2 MSTORE PUSH1 0x20 ADD SWAP1 DUP2 MSTORE PUSH1 0x20 ADD PUSH1 0x0 KECCAK256 DUP2 SWAP1 SSTORE POP POP JUMPDEST PUSH1 0x98 PUSH1 0x0 DUP5 DUP2 MSTORE PUSH1 0x20 ADD SWAP1 DUP2 MSTORE PUSH1 0x20 ADD PUSH1 0x0 KECCAK256 PUSH1 0x0 SWAP1 SSTORE PUSH1 0x97 PUSH1 0x0 DUP6 PUSH20 0xFFFFFFFFFFFFFFFFFFFFFFFFFFFFFFFFFFFFFFFF AND PUSH20 0xFFFFFFFFFFFFFFFFFFFFFFFFFFFFFFFFFFFFFFFF AND DUP2 MSTORE PUSH1 0x20 ADD SWAP1 DUP2 MSTORE PUSH1 0x20 ADD PUSH1 0x0 KECCAK256 PUSH1 0x0 DUP4 DUP2 MSTORE PUSH1 0x20 ADD SWAP1 DUP2 MSTORE PUSH1 0x20 ADD PUSH1 0x0 KECCAK256 PUSH1 0x0 SWAP1 SSTORE POP POP POP POP JUMP JUMPDEST PUSH1 0x0 PUSH1 0x1 PUSH1 0x99 DUP1 SLOAD SWAP1 POP PUSH2 0x2A2D SWAP2 SWAP1 PUSH2 0x4275 JUMP JUMPDEST SWAP1 POP PUSH1 0x0 PUSH1 0x9A PUSH1 0x0 DUP5 DUP2 MSTORE PUSH1 0x20 ADD SWAP1 DUP2 MSTORE PUSH1 0x20 ADD PUSH1 0x0 KECCAK256 SLOAD SWAP1 POP PUSH1 0x0 PUSH1 0x99 DUP4 DUP2 SLOAD DUP2 LT PUSH2 0x2A5D JUMPI PUSH2 0x2A5C PUSH2 0x3BA5 JUMP JUMPDEST JUMPDEST SWAP1 PUSH1 0x0 MSTORE PUSH1 0x20 PUSH1 0x0 KECCAK256 ADD SLOAD SWAP1 POP DUP1 PUSH1 0x99 DUP4 DUP2 SLOAD DUP2 LT PUSH2 0x2A7F JUMPI PUSH2 0x2A7E PUSH2 0x3BA5 JUMP JUMPDEST JUMPDEST SWAP1 PUSH1 0x0 MSTORE PUSH1 0x20 PUSH1 0x0 KECCAK256 ADD DUP2 SWAP1 SSTORE POP DUP2 PUSH1 0x9A PUSH1 0x0 DUP4 DUP2 MSTORE PUSH1 0x20 ADD SWAP1 DUP2 MSTORE PUSH1 0x20 ADD PUSH1 0x0 KECCAK256 DUP2 SWAP1 SSTORE POP PUSH1 0x9A PUSH1 0x0 DUP6 DUP2 MSTORE PUSH1 0x20 ADD SWAP1 DUP2 MSTORE PUSH1 0x20 ADD PUSH1 0x0 KECCAK256 PUSH1 0x0 SWAP1 SSTORE PUSH1 0x99 DUP1 SLOAD DUP1 PUSH2 0x2ACE JUMPI PUSH2 0x2ACD PUSH2 0x43A7 JUMP JUMPDEST JUMPDEST PUSH1 0x1 SWAP1 SUB DUP2 DUP2 SWAP1 PUSH1 0x0 MSTORE PUSH1 0x20 PUSH1 0x0 KECCAK256 ADD PUSH1 0x0 SWAP1 SSTORE SWAP1 SSTORE POP POP POP POP JUMP JUMPDEST PUSH1 0x0 PUSH2 0x2AF5 DUP4 PUSH2 0x101C JUMP JUMPDEST SWAP1 POP DUP2 PUSH1 0x97 PUSH1 0x0 DUP6 PUSH20 0xFFFFFFFFFFFFFFFFFFFFFFFFFFFFFFFFFFFFFFFF AND PUSH20 0xFFFFFFFFFFFFFFFFFFFFFFFFFFFFFFFFFFFFFFFF AND DUP2 MSTORE PUSH1 0x20 ADD SWAP1 DUP2 MSTORE PUSH1 0x20 ADD PUSH1 0x0 KECCAK256 PUSH1 0x0 DUP4 DUP2 MSTORE PUSH1 0x20 ADD SWAP1 DUP2 MSTORE PUSH1 0x20 ADD PUSH1 0x0 KECCAK256 DUP2 SWAP1 SSTORE POP DUP1 PUSH1 0x98 PUSH1 0x0 DUP5 DUP2 MSTORE PUSH1 0x20 ADD SWAP1 DUP2 MSTORE PUSH1 0x20 ADD PUSH1 0x0 KECCAK256 DUP2 SWAP1 SSTORE POP POP POP POP JUMP JUMPDEST PUSH1 0x0 PUSH20 0xFFFFFFFFFFFFFFFFFFFFFFFFFFFFFFFFFFFFFFFF AND DUP3 PUSH20 0xFFFFFFFFFFFFFFFFFFFFFFFFFFFFFFFFFFFFFFFF AND EQ ISZERO PUSH2 0x2BD9 JUMPI PUSH1 0x40 MLOAD PUSH32 0x8C379A000000000000000000000000000000000000000000000000000000000 DUP2 MSTORE PUSH1 0x4 ADD PUSH2 0x2BD0 SWAP1 PUSH2 0x4694 JUMP JUMPDEST PUSH1 0x40 MLOAD DUP1 SWAP2 SUB SWAP1 REVERT JUMPDEST PUSH2 0x2BE2 DUP2 PUSH2 0x2218 JUMP JUMPDEST ISZERO PUSH2 0x2C22 JUMPI PUSH1 0x40 MLOAD PUSH32 0x8C379A000000000000000000000000000000000000000000000000000000000 DUP2 MSTORE PUSH1 0x4 ADD PUSH2 0x2C19 SWAP1 PUSH2 0x4700 JUMP JUMPDEST PUSH1 0x40 MLOAD DUP1 SWAP2 SUB SWAP1 REVERT JUMPDEST PUSH2 0x2C2E PUSH1 0x0 DUP4 DUP4 PUSH2 0x24E1 JUMP JUMPDEST PUSH1 0x1 PUSH1 0x68 PUSH1 0x0 DUP5 PUSH20 0xFFFFFFFFFFFFFFFFFFFFFFFFFFFFFFFFFFFFFFFF AND PUSH20 0xFFFFFFFFFFFFFFFFFFFFFFFFFFFFFFFFFFFFFFFF AND DUP2 MSTORE PUSH1 0x20 ADD SWAP1 DUP2 MSTORE PUSH1 0x20 ADD PUSH1 0x0 KECCAK256 PUSH1 0x0 DUP3 DUP3 SLOAD PUSH2 0x2C7E SWAP2 SWAP1 PUSH2 0x3E5F JUMP JUMPDEST SWAP3 POP POP DUP2 SWAP1 SSTORE POP DUP2 PUSH1 0x67 PUSH1 0x0 DUP4 DUP2 MSTORE PUSH1 0x20 ADD SWAP1 DUP2 MSTORE PUSH1 0x20 ADD PUSH1 0x0 KECCAK256 PUSH1 0x0 PUSH2 0x100 EXP DUP2 SLOAD DUP2 PUSH20 0xFFFFFFFFFFFFFFFFFFFFFFFFFFFFFFFFFFFFFFFF MUL NOT AND SWAP1 DUP4 PUSH20 0xFFFFFFFFFFFFFFFFFFFFFFFFFFFFFFFFFFFFFFFF AND MUL OR SWAP1 SSTORE POP DUP1 DUP3 PUSH20 0xFFFFFFFFFFFFFFFFFFFFFFFFFFFFFFFFFFFFFFFF AND PUSH1 0x0 PUSH20 0xFFFFFFFFFFFFFFFFFFFFFFFFFFFFFFFFFFFFFFFF AND PUSH32 0xDDF252AD1BE2C89B69C2B068FC378DAA952BA7F163C4A11628F55A4DF523B3EF PUSH1 0x40 MLOAD PUSH1 0x40 MLOAD DUP1 SWAP2 SUB SWAP1 LOG4 PUSH2 0x2D3F PUSH1 0x0 DUP4 DUP4 PUSH2 0x25F5 JUMP JUMPDEST POP POP JUMP JUMPDEST DUP3 DUP1 SLOAD PUSH2 0x2D4F SWAP1 PUSH2 0x3857 JUMP JUMPDEST SWAP1 PUSH1 0x0 MSTORE PUSH1 0x20 PUSH1 0x0 KECCAK256 SWAP1 PUSH1 0x1F ADD PUSH1 0x20 SWAP1 DIV DUP2 ADD SWAP3 DUP3 PUSH2 0x2D71 JUMPI PUSH1 0x0 DUP6 SSTORE PUSH2 0x2DB8 JUMP JUMPDEST DUP3 PUSH1 0x1F LT PUSH2 0x2D8A JUMPI DUP1 MLOAD PUSH1 0xFF NOT AND DUP4 DUP1 ADD OR DUP6 SSTORE PUSH2 0x2DB8 JUMP JUMPDEST DUP3 DUP1 ADD PUSH1 0x1 ADD DUP6 SSTORE DUP3 ISZERO PUSH2 0x2DB8 JUMPI SWAP2 DUP3 ADD JUMPDEST DUP3 DUP2 GT ISZERO PUSH2 0x2DB7 JUMPI DUP3 MLOAD DUP3 SSTORE SWAP2 PUSH1 0x20 ADD SWAP2 SWAP1 PUSH1 0x1 ADD SWAP1 PUSH2 0x2D9C JUMP JUMPDEST JUMPDEST POP SWAP1 POP PUSH2 0x2DC5 SWAP2 SWAP1 PUSH2 0x2DC9 JUMP JUMPDEST POP SWAP1 JUMP JUMPDEST JUMPDEST DUP1 DUP3 GT ISZERO PUSH2 0x2DE2 JUMPI PUSH1 0x0 DUP2 PUSH1 0x0 SWAP1 SSTORE POP PUSH1 0x1 ADD PUSH2 0x2DCA JUMP JUMPDEST POP SWAP1 JUMP JUMPDEST PUSH1 0x0 PUSH1 0x40 MLOAD SWAP1 POP SWAP1 JUMP JUMPDEST PUSH1 0x0 DUP1 REVERT JUMPDEST PUSH1 0x0 DUP1 REVERT JUMPDEST PUSH1 0x0 PUSH32 0xFFFFFFFF00000000000000000000000000000000000000000000000000000000 DUP3 AND SWAP1 POP SWAP2 SWAP1 POP JUMP JUMPDEST PUSH2 0x2E2F DUP2 PUSH2 0x2DFA JUMP JUMPDEST DUP2 EQ PUSH2 0x2E3A JUMPI PUSH1 0x0 DUP1 REVERT JUMPDEST POP JUMP JUMPDEST PUSH1 0x0 DUP2 CALLDATALOAD SWAP1 POP PUSH2 0x2E4C DUP2 PUSH2 0x2E26 JUMP JUMPDEST SWAP3 SWAP2 POP POP JUMP JUMPDEST PUSH1 0x0 PUSH1 0x20 DUP3 DUP5 SUB SLT ISZERO PUSH2 0x2E68 JUMPI PUSH2 0x2E67 PUSH2 0x2DF0 JUMP JUMPDEST JUMPDEST PUSH1 0x0 PUSH2 0x2E76 DUP5 DUP3 DUP6 ADD PUSH2 0x2E3D JUMP JUMPDEST SWAP2 POP POP SWAP3 SWAP2 POP POP JUMP JUMPDEST PUSH1 0x0 DUP2 ISZERO ISZERO SWAP1 POP SWAP2 SWAP1 POP JUMP JUMPDEST PUSH2 0x2E94 DUP2 PUSH2 0x2E7F JUMP JUMPDEST DUP3 MSTORE POP POP JUMP JUMPDEST PUSH1 0x0 PUSH1 0x20 DUP3 ADD SWAP1 POP PUSH2 0x2EAF PUSH1 0x0 DUP4 ADD DUP5 PUSH2 0x2E8B JUMP JUMPDEST SWAP3 SWAP2 POP POP JUMP JUMPDEST PUSH1 0x0 DUP2 MLOAD SWAP1 POP SWAP2 SWAP1 POP JUMP JUMPDEST PUSH1 0x0 DUP3 DUP3 MSTORE PUSH1 0x20 DUP3 ADD SWAP1 POP SWAP3 SWAP2 POP POP JUMP JUMPDEST PUSH1 0x0 JUMPDEST DUP4 DUP2 LT ISZERO PUSH2 0x2EEF JUMPI DUP1 DUP3 ADD MLOAD DUP2 DUP5 ADD MSTORE PUSH1 0x20 DUP2 ADD SWAP1 POP PUSH2 0x2ED4 JUMP JUMPDEST DUP4 DUP2 GT ISZERO PUSH2 0x2EFE JUMPI PUSH1 0x0 DUP5 DUP5 ADD MSTORE JUMPDEST POP POP POP POP JUMP JUMPDEST PUSH1 0x0 PUSH1 0x1F NOT PUSH1 0x1F DUP4 ADD AND SWAP1 POP SWAP2 SWAP1 POP JUMP JUMPDEST PUSH1 0x0 PUSH2 0x2F20 DUP3 PUSH2 0x2EB5 JUMP JUMPDEST PUSH2 0x2F2A DUP2 DUP6 PUSH2 0x2EC0 JUMP JUMPDEST SWAP4 POP PUSH2 0x2F3A DUP2 DUP6 PUSH1 0x20 DUP7 ADD PUSH2 0x2ED1 JUMP JUMPDEST PUSH2 0x2F43 DUP2 PUSH2 0x2F04 JUMP JUMPDEST DUP5 ADD SWAP2 POP POP SWAP3 SWAP2 POP POP JUMP JUMPDEST PUSH1 0x0 PUSH1 0x20 DUP3 ADD SWAP1 POP DUP2 DUP2 SUB PUSH1 0x0 DUP4 ADD MSTORE PUSH2 0x2F68 DUP2 DUP5 PUSH2 0x2F15 JUMP JUMPDEST SWAP1 POP SWAP3 SWAP2 POP POP JUMP JUMPDEST PUSH1 0x0 DUP2 SWAP1 POP SWAP2 SWAP1 POP JUMP JUMPDEST PUSH2 0x2F83 DUP2 PUSH2 0x2F70 JUMP JUMPDEST DUP2 EQ PUSH2 0x2F8E JUMPI PUSH1 0x0 DUP1 REVERT JUMPDEST POP JUMP JUMPDEST PUSH1 0x0 DUP2 CALLDATALOAD SWAP1 POP PUSH2 0x2FA0 DUP2 PUSH2 0x2F7A JUMP JUMPDEST SWAP3 SWAP2 POP POP JUMP JUMPDEST PUSH1 0x0 PUSH1 0x20 DUP3 DUP5 SUB SLT ISZERO PUSH2 0x2FBC JUMPI PUSH2 0x2FBB PUSH2 0x2DF0 JUMP JUMPDEST JUMPDEST PUSH1 0x0 PUSH2 0x2FCA DUP5 DUP3 DUP6 ADD PUSH2 0x2F91 JUMP JUMPDEST SWAP2 POP POP SWAP3 SWAP2 POP POP JUMP JUMPDEST PUSH1 0x0 PUSH20 0xFFFFFFFFFFFFFFFFFFFFFFFFFFFFFFFFFFFFFFFF DUP3 AND SWAP1 POP SWAP2 SWAP1 POP JUMP JUMPDEST PUSH1 0x0 PUSH2 0x2FFE DUP3 PUSH2 0x2FD3 JUMP JUMPDEST SWAP1 POP SWAP2 SWAP1 POP JUMP JUMPDEST PUSH2 0x300E DUP2 PUSH2 0x2FF3 JUMP JUMPDEST DUP3 MSTORE POP POP JUMP JUMPDEST PUSH1 0x0 PUSH1 0x20 DUP3 ADD SWAP1 POP PUSH2 0x3029 PUSH1 0x0 DUP4 ADD DUP5 PUSH2 0x3005 JUMP JUMPDEST SWAP3 SWAP2 POP POP JUMP JUMPDEST PUSH2 0x3038 DUP2 PUSH2 0x2FF3 JUMP JUMPDEST DUP2 EQ PUSH2 0x3043 JUMPI PUSH1 0x0 DUP1 REVERT JUMPDEST POP JUMP JUMPDEST PUSH1 0x0 DUP2 CALLDATALOAD SWAP1 POP PUSH2 0x3055 DUP2 PUSH2 0x302F JUMP JUMPDEST SWAP3 SWAP2 POP POP JUMP JUMPDEST PUSH1 0x0 DUP1 PUSH1 0x40 DUP4 DUP6 SUB SLT ISZERO PUSH2 0x3072 JUMPI PUSH2 0x3071 PUSH2 0x2DF0 JUMP JUMPDEST JUMPDEST PUSH1 0x0 PUSH2 0x3080 DUP6 DUP3 DUP7 ADD PUSH2 0x3046 JUMP JUMPDEST SWAP3 POP POP PUSH1 0x20 PUSH2 0x3091 DUP6 DUP3 DUP7 ADD PUSH2 0x2F91 JUMP JUMPDEST SWAP2 POP POP SWAP3 POP SWAP3 SWAP1 POP JUMP JUMPDEST PUSH2 0x30A4 DUP2 PUSH2 0x2F70 JUMP JUMPDEST DUP3 MSTORE POP POP JUMP JUMPDEST PUSH1 0x0 PUSH1 0x20 DUP3 ADD SWAP1 POP PUSH2 0x30BF PUSH1 0x0 DUP4 ADD DUP5 PUSH2 0x309B JUMP JUMPDEST SWAP3 SWAP2 POP POP JUMP JUMPDEST PUSH1 0x0 DUP1 PUSH1 0x0 PUSH1 0x60 DUP5 DUP7 SUB SLT ISZERO PUSH2 0x30DE JUMPI PUSH2 0x30DD PUSH2 0x2DF0 JUMP JUMPDEST JUMPDEST PUSH1 0x0 PUSH2 0x30EC DUP7 DUP3 DUP8 ADD PUSH2 0x3046 JUMP JUMPDEST SWAP4 POP POP PUSH1 0x20 PUSH2 0x30FD DUP7 DUP3 DUP8 ADD PUSH2 0x3046 JUMP JUMPDEST SWAP3 POP POP PUSH1 0x40 PUSH2 0x310E DUP7 DUP3 DUP8 ADD PUSH2 0x2F91 JUMP JUMPDEST SWAP2 POP POP SWAP3 POP SWAP3 POP SWAP3 JUMP JUMPDEST PUSH1 0x0 PUSH1 0xFF DUP3 AND SWAP1 POP SWAP2 SWAP1 POP JUMP JUMPDEST PUSH2 0x312E DUP2 PUSH2 0x3118 JUMP JUMPDEST DUP2 EQ PUSH2 0x3139 JUMPI PUSH1 0x0 DUP1 REVERT JUMPDEST POP JUMP JUMPDEST PUSH1 0x0 DUP2 CALLDATALOAD SWAP1 POP PUSH2 0x314B DUP2 PUSH2 0x3125 JUMP JUMPDEST SWAP3 SWAP2 POP POP JUMP JUMPDEST PUSH1 0x0 DUP1 PUSH1 0x0 PUSH1 0x60 DUP5 DUP7 SUB SLT ISZERO PUSH2 0x316A JUMPI PUSH2 0x3169 PUSH2 0x2DF0 JUMP JUMPDEST JUMPDEST PUSH1 0x0 PUSH2 0x3178 DUP7 DUP3 DUP8 ADD PUSH2 0x3046 JUMP JUMPDEST SWAP4 POP POP PUSH1 0x20 PUSH2 0x3189 DUP7 DUP3 DUP8 ADD PUSH2 0x2F91 JUMP JUMPDEST SWAP3 POP POP PUSH1 0x40 PUSH2 0x319A DUP7 DUP3 DUP8 ADD PUSH2 0x313C JUMP JUMPDEST SWAP2 POP POP SWAP3 POP SWAP3 POP SWAP3 JUMP JUMPDEST PUSH1 0x0 DUP2 MLOAD SWAP1 POP SWAP2 SWAP1 POP JUMP JUMPDEST PUSH1 0x0 DUP3 DUP3 MSTORE PUSH1 0x20 DUP3 ADD SWAP1 POP SWAP3 SWAP2 POP POP JUMP JUMPDEST PUSH1 0x0 DUP2 SWAP1 POP PUSH1 0x20 DUP3 ADD SWAP1 POP SWAP2 SWAP1 POP JUMP JUMPDEST PUSH2 0x31D9 DUP2 PUSH2 0x2F70 JUMP JUMPDEST DUP3 MSTORE POP POP JUMP JUMPDEST PUSH1 0x0 PUSH2 0x31EB DUP4 DUP4 PUSH2 0x31D0 JUMP JUMPDEST PUSH1 0x20 DUP4 ADD SWAP1 POP SWAP3 SWAP2 POP POP JUMP JUMPDEST PUSH1 0x0 PUSH1 0x20 DUP3 ADD SWAP1 POP SWAP2 SWAP1 POP JUMP JUMPDEST PUSH1 0x0 PUSH2 0x320F DUP3 PUSH2 0x31A4 JUMP JUMPDEST PUSH2 0x3219 DUP2 DUP6 PUSH2 0x31AF JUMP JUMPDEST SWAP4 POP PUSH2 0x3224 DUP4 PUSH2 0x31C0 JUMP JUMPDEST DUP1 PUSH1 0x0 JUMPDEST DUP4 DUP2 LT ISZERO PUSH2 0x3255 JUMPI DUP2 MLOAD PUSH2 0x323C DUP9 DUP3 PUSH2 0x31DF JUMP JUMPDEST SWAP8 POP PUSH2 0x3247 DUP4 PUSH2 0x31F7 JUMP JUMPDEST SWAP3 POP POP PUSH1 0x1 DUP2 ADD SWAP1 POP PUSH2 0x3228 JUMP JUMPDEST POP DUP6 SWAP4 POP POP POP POP SWAP3 SWAP2 POP POP JUMP JUMPDEST PUSH1 0x0 PUSH1 0x20 DUP3 ADD SWAP1 POP DUP2 DUP2 SUB PUSH1 0x0 DUP4 ADD MSTORE PUSH2 0x327C DUP2 DUP5 PUSH2 0x3204 JUMP JUMPDEST SWAP1 POP SWAP3 SWAP2 POP POP JUMP JUMPDEST PUSH1 0x0 PUSH1 0x20 DUP3 DUP5 SUB SLT ISZERO PUSH2 0x329A JUMPI PUSH2 0x3299 PUSH2 0x2DF0 JUMP JUMPDEST JUMPDEST PUSH1 0x0 PUSH2 0x32A8 DUP5 DUP3 DUP6 ADD PUSH2 0x3046 JUMP JUMPDEST SWAP2 POP POP SWAP3 SWAP2 POP POP JUMP JUMPDEST PUSH1 0x0 DUP1 REVERT JUMPDEST PUSH1 0x0 DUP1 REVERT JUMPDEST PUSH32 0x4E487B7100000000000000000000000000000000000000000000000000000000 PUSH1 0x0 MSTORE PUSH1 0x41 PUSH1 0x4 MSTORE PUSH1 0x24 PUSH1 0x0 REVERT JUMPDEST PUSH2 0x32F3 DUP3 PUSH2 0x2F04 JUMP JUMPDEST DUP2 ADD DUP2 DUP2 LT PUSH8 0xFFFFFFFFFFFFFFFF DUP3 GT OR ISZERO PUSH2 0x3312 JUMPI PUSH2 0x3311 PUSH2 0x32BB JUMP JUMPDEST JUMPDEST DUP1 PUSH1 0x40 MSTORE POP POP POP JUMP JUMPDEST PUSH1 0x0 PUSH2 0x3325 PUSH2 0x2DE6 JUMP JUMPDEST SWAP1 POP PUSH2 0x3331 DUP3 DUP3 PUSH2 0x32EA JUMP JUMPDEST SWAP2 SWAP1 POP JUMP JUMPDEST PUSH1 0x0 PUSH8 0xFFFFFFFFFFFFFFFF DUP3 GT ISZERO PUSH2 0x3351 JUMPI PUSH2 0x3350 PUSH2 0x32BB JUMP JUMPDEST JUMPDEST PUSH2 0x335A DUP3 PUSH2 0x2F04 JUMP JUMPDEST SWAP1 POP PUSH1 0x20 DUP2 ADD SWAP1 POP SWAP2 SWAP1 POP JUMP JUMPDEST DUP3 DUP2 DUP4 CALLDATACOPY PUSH1 0x0 DUP4 DUP4 ADD MSTORE POP POP POP JUMP JUMPDEST PUSH1 0x0 PUSH2 0x3389 PUSH2 0x3384 DUP5 PUSH2 0x3336 JUMP JUMPDEST PUSH2 0x331B JUMP JUMPDEST SWAP1 POP DUP3 DUP2 MSTORE PUSH1 0x20 DUP2 ADD DUP5 DUP5 DUP5 ADD GT ISZERO PUSH2 0x33A5 JUMPI PUSH2 0x33A4 PUSH2 0x32B6 JUMP JUMPDEST JUMPDEST PUSH2 0x33B0 DUP5 DUP3 DUP6 PUSH2 0x3367 JUMP JUMPDEST POP SWAP4 SWAP3 POP POP POP JUMP JUMPDEST PUSH1 0x0 DUP3 PUSH1 0x1F DUP4 ADD SLT PUSH2 0x33CD JUMPI PUSH2 0x33CC PUSH2 0x32B1 JUMP JUMPDEST JUMPDEST DUP2 CALLDATALOAD PUSH2 0x33DD DUP5 DUP3 PUSH1 0x20 DUP7 ADD PUSH2 0x3376 JUMP JUMPDEST SWAP2 POP POP SWAP3 SWAP2 POP POP JUMP JUMPDEST PUSH1 0x0 DUP1 PUSH1 0x0 DUP1 PUSH1 0x80 DUP6 DUP8 SUB SLT ISZERO PUSH2 0x3400 JUMPI PUSH2 0x33FF PUSH2 0x2DF0 JUMP JUMPDEST JUMPDEST PUSH1 0x0 DUP6 ADD CALLDATALOAD PUSH8 0xFFFFFFFFFFFFFFFF DUP2 GT ISZERO PUSH2 0x341E JUMPI PUSH2 0x341D PUSH2 0x2DF5 JUMP JUMPDEST JUMPDEST PUSH2 0x342A DUP8 DUP3 DUP9 ADD PUSH2 0x33B8 JUMP JUMPDEST SWAP5 POP POP PUSH1 0x20 DUP6 ADD CALLDATALOAD PUSH8 0xFFFFFFFFFFFFFFFF DUP2 GT ISZERO PUSH2 0x344B JUMPI PUSH2 0x344A PUSH2 0x2DF5 JUMP JUMPDEST JUMPDEST PUSH2 0x3457 DUP8 DUP3 DUP9 ADD PUSH2 0x33B8 JUMP JUMPDEST SWAP4 POP POP PUSH1 0x40 DUP6 ADD CALLDATALOAD PUSH8 0xFFFFFFFFFFFFFFFF DUP2 GT ISZERO PUSH2 0x3478 JUMPI PUSH2 0x3477 PUSH2 0x2DF5 JUMP JUMPDEST JUMPDEST PUSH2 0x3484 DUP8 DUP3 DUP9 ADD PUSH2 0x33B8 JUMP JUMPDEST SWAP3 POP POP PUSH1 0x60 PUSH2 0x3495 DUP8 DUP3 DUP9 ADD PUSH2 0x3046 JUMP JUMPDEST SWAP2 POP POP SWAP3 SWAP6 SWAP2 SWAP5 POP SWAP3 POP JUMP JUMPDEST PUSH1 0x0 DUP1 PUSH1 0x40 DUP4 DUP6 SUB SLT ISZERO PUSH2 0x34B8 JUMPI PUSH2 0x34B7 PUSH2 0x2DF0 JUMP JUMPDEST JUMPDEST PUSH1 0x0 PUSH2 0x34C6 DUP6 DUP3 DUP7 ADD PUSH2 0x2F91 JUMP JUMPDEST SWAP3 POP POP PUSH1 0x20 PUSH2 0x34D7 DUP6 DUP3 DUP7 ADD PUSH2 0x2F91 JUMP JUMPDEST SWAP2 POP POP SWAP3 POP SWAP3 SWAP1 POP JUMP JUMPDEST PUSH1 0x0 PUSH8 0xFFFFFFFFFFFFFFFF DUP3 GT ISZERO PUSH2 0x34FC JUMPI PUSH2 0x34FB PUSH2 0x32BB JUMP JUMPDEST JUMPDEST PUSH1 0x20 DUP3 MUL SWAP1 POP PUSH1 0x20 DUP2 ADD SWAP1 POP SWAP2 SWAP1 POP JUMP JUMPDEST PUSH1 0x0 DUP1 REVERT JUMPDEST PUSH1 0x0 PUSH2 0x3525 PUSH2 0x3520 DUP5 PUSH2 0x34E1 JUMP JUMPDEST PUSH2 0x331B JUMP JUMPDEST SWAP1 POP DUP1 DUP4 DUP3 MSTORE PUSH1 0x20 DUP3 ADD SWAP1 POP PUSH1 0x20 DUP5 MUL DUP4 ADD DUP6 DUP2 GT ISZERO PUSH2 0x3548 JUMPI PUSH2 0x3547 PUSH2 0x350D JUMP JUMPDEST JUMPDEST DUP4 JUMPDEST DUP2 DUP2 LT ISZERO PUSH2 0x3571 JUMPI DUP1 PUSH2 0x355D DUP9 DUP3 PUSH2 0x2F91 JUMP JUMPDEST DUP5 MSTORE PUSH1 0x20 DUP5 ADD SWAP4 POP POP PUSH1 0x20 DUP2 ADD SWAP1 POP PUSH2 0x354A JUMP JUMPDEST POP POP POP SWAP4 SWAP3 POP POP POP JUMP JUMPDEST PUSH1 0x0 DUP3 PUSH1 0x1F DUP4 ADD SLT PUSH2 0x3590 JUMPI PUSH2 0x358F PUSH2 0x32B1 JUMP JUMPDEST JUMPDEST DUP2 CALLDATALOAD PUSH2 0x35A0 DUP5 DUP3 PUSH1 0x20 DUP7 ADD PUSH2 0x3512 JUMP JUMPDEST SWAP2 POP POP SWAP3 SWAP2 POP POP JUMP JUMPDEST PUSH1 0x0 DUP1 PUSH1 0x40 DUP4 DUP6 SUB SLT ISZERO PUSH2 0x35C0 JUMPI PUSH2 0x35BF PUSH2 0x2DF0 JUMP JUMPDEST JUMPDEST PUSH1 0x0 PUSH2 0x35CE DUP6 DUP3 DUP7 ADD PUSH2 0x3046 JUMP JUMPDEST SWAP3 POP POP PUSH1 0x20 DUP4 ADD CALLDATALOAD PUSH8 0xFFFFFFFFFFFFFFFF DUP2 GT ISZERO PUSH2 0x35EF JUMPI PUSH2 0x35EE PUSH2 0x2DF5 JUMP JUMPDEST JUMPDEST PUSH2 0x35FB DUP6 DUP3 DUP7 ADD PUSH2 0x357B JUMP JUMPDEST SWAP2 POP POP SWAP3 POP SWAP3 SWAP1 POP JUMP JUMPDEST PUSH1 0x0 DUP1 PUSH1 0x0 PUSH1 0x60 DUP5 DUP7 SUB SLT ISZERO PUSH2 0x361E JUMPI PUSH2 0x361D PUSH2 0x2DF0 JUMP JUMPDEST JUMPDEST PUSH1 0x0 PUSH2 0x362C DUP7 DUP3 DUP8 ADD PUSH2 0x2F91 JUMP JUMPDEST SWAP4 POP POP PUSH1 0x20 PUSH2 0x363D DUP7 DUP3 DUP8 ADD PUSH2 0x2F91 JUMP JUMPDEST SWAP3 POP POP PUSH1 0x40 PUSH2 0x364E DUP7 DUP3 DUP8 ADD PUSH2 0x3046 JUMP JUMPDEST SWAP2 POP POP SWAP3 POP SWAP3 POP SWAP3 JUMP JUMPDEST PUSH2 0x3661 DUP2 PUSH2 0x2E7F JUMP JUMPDEST DUP2 EQ PUSH2 0x366C JUMPI PUSH1 0x0 DUP1 REVERT JUMPDEST POP JUMP JUMPDEST PUSH1 0x0 DUP2 CALLDATALOAD SWAP1 POP PUSH2 0x367E DUP2 PUSH2 0x3658 JUMP JUMPDEST SWAP3 SWAP2 POP POP JUMP JUMPDEST PUSH1 0x0 DUP1 PUSH1 0x40 DUP4 DUP6 SUB SLT ISZERO PUSH2 0x369B JUMPI PUSH2 0x369A PUSH2 0x2DF0 JUMP JUMPDEST JUMPDEST PUSH1 0x0 PUSH2 0x36A9 DUP6 DUP3 DUP7 ADD PUSH2 0x3046 JUMP JUMPDEST SWAP3 POP POP PUSH1 0x20 PUSH2 0x36BA DUP6 DUP3 DUP7 ADD PUSH2 0x366F JUMP JUMPDEST SWAP2 POP POP SWAP3 POP SWAP3 SWAP1 POP JUMP JUMPDEST PUSH1 0x0 PUSH8 0xFFFFFFFFFFFFFFFF DUP3 GT ISZERO PUSH2 0x36DF JUMPI PUSH2 0x36DE PUSH2 0x32BB JUMP JUMPDEST JUMPDEST PUSH2 0x36E8 DUP3 PUSH2 0x2F04 JUMP JUMPDEST SWAP1 POP PUSH1 0x20 DUP2 ADD SWAP1 POP SWAP2 SWAP1 POP JUMP JUMPDEST PUSH1 0x0 PUSH2 0x3708 PUSH2 0x3703 DUP5 PUSH2 0x36C4 JUMP JUMPDEST PUSH2 0x331B JUMP JUMPDEST SWAP1 POP DUP3 DUP2 MSTORE PUSH1 0x20 DUP2 ADD DUP5 DUP5 DUP5 ADD GT ISZERO PUSH2 0x3724 JUMPI PUSH2 0x3723 PUSH2 0x32B6 JUMP JUMPDEST JUMPDEST PUSH2 0x372F DUP5 DUP3 DUP6 PUSH2 0x3367 JUMP JUMPDEST POP SWAP4 SWAP3 POP POP POP JUMP JUMPDEST PUSH1 0x0 DUP3 PUSH1 0x1F DUP4 ADD SLT PUSH2 0x374C JUMPI PUSH2 0x374B PUSH2 0x32B1 JUMP JUMPDEST JUMPDEST DUP2 CALLDATALOAD PUSH2 0x375C DUP5 DUP3 PUSH1 0x20 DUP7 ADD PUSH2 0x36F5 JUMP JUMPDEST SWAP2 POP POP SWAP3 SWAP2 POP POP JUMP JUMPDEST PUSH1 0x0 DUP1 PUSH1 0x0 DUP1 PUSH1 0x80 DUP6 DUP8 SUB SLT ISZERO PUSH2 0x377F JUMPI PUSH2 0x377E PUSH2 0x2DF0 JUMP JUMPDEST JUMPDEST PUSH1 0x0 PUSH2 0x378D DUP8 DUP3 DUP9 ADD PUSH2 0x3046 JUMP JUMPDEST SWAP5 POP POP PUSH1 0x20 PUSH2 0x379E DUP8 DUP3 DUP9 ADD PUSH2 0x3046 JUMP JUMPDEST SWAP4 POP POP PUSH1 0x40 PUSH2 0x37AF DUP8 DUP3 DUP9 ADD PUSH2 0x2F91 JUMP JUMPDEST SWAP3 POP POP PUSH1 0x60 DUP6 ADD CALLDATALOAD PUSH8 0xFFFFFFFFFFFFFFFF DUP2 GT ISZERO PUSH2 0x37D0 JUMPI PUSH2 0x37CF PUSH2 0x2DF5 JUMP JUMPDEST JUMPDEST PUSH2 0x37DC DUP8 DUP3 DUP9 ADD PUSH2 0x3737 JUMP JUMPDEST SWAP2 POP POP SWAP3 SWAP6 SWAP2 SWAP5 POP SWAP3 POP JUMP JUMPDEST PUSH1 0x0 DUP1 PUSH1 0x40 DUP4 DUP6 SUB SLT ISZERO PUSH2 0x37FF JUMPI PUSH2 0x37FE PUSH2 0x2DF0 JUMP JUMPDEST JUMPDEST PUSH1 0x0 PUSH2 0x380D DUP6 DUP3 DUP7 ADD PUSH2 0x3046 JUMP JUMPDEST SWAP3 POP POP PUSH1 0x20 PUSH2 0x381E DUP6 DUP3 DUP7 ADD PUSH2 0x3046 JUMP JUMPDEST SWAP2 POP POP SWAP3 POP SWAP3 SWAP1 POP JUMP JUMPDEST PUSH32 0x4E487B7100000000000000000000000000000000000000000000000000000000 PUSH1 0x0 MSTORE PUSH1 0x22 PUSH1 0x4 MSTORE PUSH1 0x24 PUSH1 0x0 REVERT JUMPDEST PUSH1 0x0 PUSH1 0x2 DUP3 DIV SWAP1 POP PUSH1 0x1 DUP3 AND DUP1 PUSH2 0x386F JUMPI PUSH1 0x7F DUP3 AND SWAP2 POP JUMPDEST PUSH1 0x20 DUP3 LT DUP2 EQ ISZERO PUSH2 0x3883 JUMPI PUSH2 0x3882 PUSH2 0x3828 JUMP JUMPDEST JUMPDEST POP SWAP2 SWAP1 POP JUMP JUMPDEST PUSH32 0x4552433732313A20617070726F76616C20746F2063757272656E74206F776E65 PUSH1 0x0 DUP3 ADD MSTORE PUSH32 0x7200000000000000000000000000000000000000000000000000000000000000 PUSH1 0x20 DUP3 ADD MSTORE POP JUMP JUMPDEST PUSH1 0x0 PUSH2 0x38E5 PUSH1 0x21 DUP4 PUSH2 0x2EC0 JUMP JUMPDEST SWAP2 POP PUSH2 0x38F0 DUP3 PUSH2 0x3889 JUMP JUMPDEST PUSH1 0x40 DUP3 ADD SWAP1 POP SWAP2 SWAP1 POP JUMP JUMPDEST PUSH1 0x0 PUSH1 0x20 DUP3 ADD SWAP1 POP DUP2 DUP2 SUB PUSH1 0x0 DUP4 ADD MSTORE PUSH2 0x3914 DUP2 PUSH2 0x38D8 JUMP JUMPDEST SWAP1 POP SWAP2 SWAP1 POP JUMP JUMPDEST PUSH32 0x4552433732313A20617070726F76652063616C6C6572206973206E6F7420746F PUSH1 0x0 DUP3 ADD MSTORE PUSH32 0x6B656E206F776E6572206E6F7220617070726F76656420666F7220616C6C0000 PUSH1 0x20 DUP3 ADD MSTORE POP JUMP JUMPDEST PUSH1 0x0 PUSH2 0x3977 PUSH1 0x3E DUP4 PUSH2 0x2EC0 JUMP JUMPDEST SWAP2 POP PUSH2 0x3982 DUP3 PUSH2 0x391B JUMP JUMPDEST PUSH1 0x40 DUP3 ADD SWAP1 POP SWAP2 SWAP1 POP JUMP JUMPDEST PUSH1 0x0 PUSH1 0x20 DUP3 ADD SWAP1 POP DUP2 DUP2 SUB PUSH1 0x0 DUP4 ADD MSTORE PUSH2 0x39A6 DUP2 PUSH2 0x396A JUMP JUMPDEST SWAP1 POP SWAP2 SWAP1 POP JUMP JUMPDEST PUSH32 0x4552433732313A2063616C6C6572206973206E6F7420746F6B656E206F776E65 PUSH1 0x0 DUP3 ADD MSTORE PUSH32 0x72206E6F7220617070726F766564000000000000000000000000000000000000 PUSH1 0x20 DUP3 ADD MSTORE POP JUMP JUMPDEST PUSH1 0x0 PUSH2 0x3A09 PUSH1 0x2E DUP4 PUSH2 0x2EC0 JUMP JUMPDEST SWAP2 POP PUSH2 0x3A14 DUP3 PUSH2 0x39AD JUMP JUMPDEST PUSH1 0x40 DUP3 ADD SWAP1 POP SWAP2 SWAP1 POP JUMP JUMPDEST PUSH1 0x0 PUSH1 0x20 DUP3 ADD SWAP1 POP DUP2 DUP2 SUB PUSH1 0x0 DUP4 ADD MSTORE PUSH2 0x3A38 DUP2 PUSH2 0x39FC JUMP JUMPDEST SWAP1 POP SWAP2 SWAP1 POP JUMP JUMPDEST PUSH32 0x455243373231456E756D657261626C653A206F776E657220696E646578206F75 PUSH1 0x0 DUP3 ADD MSTORE PUSH32 0x74206F6620626F756E6473000000000000000000000000000000000000000000 PUSH1 0x20 DUP3 ADD MSTORE POP JUMP JUMPDEST PUSH1 0x0 PUSH2 0x3A9B PUSH1 0x2B DUP4 PUSH2 0x2EC0 JUMP JUMPDEST SWAP2 POP PUSH2 0x3AA6 DUP3 PUSH2 0x3A3F JUMP JUMPDEST PUSH1 0x40 DUP3 ADD SWAP1 POP SWAP2 SWAP1 POP JUMP JUMPDEST PUSH1 0x0 PUSH1 0x20 DUP3 ADD SWAP1 POP DUP2 DUP2 SUB PUSH1 0x0 DUP4 ADD MSTORE PUSH2 0x3ACA DUP2 PUSH2 0x3A8E JUMP JUMPDEST SWAP1 POP SWAP2 SWAP1 POP JUMP JUMPDEST PUSH1 0x0 DUP2 MLOAD SWAP1 POP PUSH2 0x3AE0 DUP2 PUSH2 0x3658 JUMP JUMPDEST SWAP3 SWAP2 POP POP JUMP JUMPDEST PUSH1 0x0 PUSH1 0x20 DUP3 DUP5 SUB SLT ISZERO PUSH2 0x3AFC JUMPI PUSH2 0x3AFB PUSH2 0x2DF0 JUMP JUMPDEST JUMPDEST PUSH1 0x0 PUSH2 0x3B0A DUP5 DUP3 DUP6 ADD PUSH2 0x3AD1 JUMP JUMPDEST SWAP2 POP POP SWAP3 SWAP2 POP POP JUMP JUMPDEST PUSH32 0x455243373231456E756D657261626C653A20676C6F62616C20696E646578206F PUSH1 0x0 DUP3 ADD MSTORE PUSH32 0x7574206F6620626F756E64730000000000000000000000000000000000000000 PUSH1 0x20 DUP3 ADD MSTORE POP JUMP JUMPDEST PUSH1 0x0 PUSH2 0x3B6F PUSH1 0x2C DUP4 PUSH2 0x2EC0 JUMP JUMPDEST SWAP2 POP PUSH2 0x3B7A DUP3 PUSH2 0x3B13 JUMP JUMPDEST PUSH1 0x40 DUP3 ADD SWAP1 POP SWAP2 SWAP1 POP JUMP JUMPDEST PUSH1 0x0 PUSH1 0x20 DUP3 ADD SWAP1 POP DUP2 DUP2 SUB PUSH1 0x0 DUP4 ADD MSTORE PUSH2 0x3B9E DUP2 PUSH2 0x3B62 JUMP JUMPDEST SWAP1 POP SWAP2 SWAP1 POP JUMP JUMPDEST PUSH32 0x4E487B7100000000000000000000000000000000000000000000000000000000 PUSH1 0x0 MSTORE PUSH1 0x32 PUSH1 0x4 MSTORE PUSH1 0x24 PUSH1 0x0 REVERT JUMPDEST PUSH32 0x496E697469616C697A61626C653A20636F6E747261637420697320616C726561 PUSH1 0x0 DUP3 ADD MSTORE PUSH32 0x647920696E697469616C697A6564000000000000000000000000000000000000 PUSH1 0x20 DUP3 ADD MSTORE POP JUMP JUMPDEST PUSH1 0x0 PUSH2 0x3C30 PUSH1 0x2E DUP4 PUSH2 0x2EC0 JUMP JUMPDEST SWAP2 POP PUSH2 0x3C3B DUP3 PUSH2 0x3BD4 JUMP JUMPDEST PUSH1 0x40 DUP3 ADD SWAP1 POP SWAP2 SWAP1 POP JUMP JUMPDEST PUSH1 0x0 PUSH1 0x20 DUP3 ADD SWAP1 POP DUP2 DUP2 SUB PUSH1 0x0 DUP4 ADD MSTORE PUSH2 0x3C5F DUP2 PUSH2 0x3C23 JUMP JUMPDEST SWAP1 POP SWAP2 SWAP1 POP JUMP JUMPDEST PUSH1 0x0 DUP2 SWAP1 POP SWAP2 SWAP1 POP JUMP JUMPDEST PUSH1 0x0 DUP2 SWAP1 POP SWAP2 SWAP1 POP JUMP JUMPDEST PUSH1 0x0 PUSH2 0x3C95 PUSH2 0x3C90 PUSH2 0x3C8B DUP5 PUSH2 0x3C66 JUMP JUMPDEST PUSH2 0x3C70 JUMP JUMPDEST PUSH2 0x3118 JUMP JUMPDEST SWAP1 POP SWAP2 SWAP1 POP JUMP JUMPDEST PUSH2 0x3CA5 DUP2 PUSH2 0x3C7A JUMP JUMPDEST DUP3 MSTORE POP POP JUMP JUMPDEST PUSH1 0x0 PUSH1 0x20 DUP3 ADD SWAP1 POP PUSH2 0x3CC0 PUSH1 0x0 DUP4 ADD DUP5 PUSH2 0x3C9C JUMP JUMPDEST SWAP3 SWAP2 POP POP JUMP JUMPDEST PUSH32 0x4552433732313A20696E76616C696420746F6B656E2049440000000000000000 PUSH1 0x0 DUP3 ADD MSTORE POP JUMP JUMPDEST PUSH1 0x0 PUSH2 0x3CFC PUSH1 0x18 DUP4 PUSH2 0x2EC0 JUMP JUMPDEST SWAP2 POP PUSH2 0x3D07 DUP3 PUSH2 0x3CC6 JUMP JUMPDEST PUSH1 0x20 DUP3 ADD SWAP1 POP SWAP2 SWAP1 POP JUMP JUMPDEST PUSH1 0x0 PUSH1 0x20 DUP3 ADD SWAP1 POP DUP2 DUP2 SUB PUSH1 0x0 DUP4 ADD MSTORE PUSH2 0x3D2B DUP2 PUSH2 0x3CEF JUMP JUMPDEST SWAP1 POP SWAP2 SWAP1 POP JUMP JUMPDEST PUSH32 0x54686973206973206E6F74207374616B6564204E465400000000000000000000 PUSH1 0x0 DUP3 ADD MSTORE POP JUMP JUMPDEST PUSH1 0x0 PUSH2 0x3D68 PUSH1 0x16 DUP4 PUSH2 0x2EC0 JUMP JUMPDEST SWAP2 POP PUSH2 0x3D73 DUP3 PUSH2 0x3D32 JUMP JUMPDEST PUSH1 0x20 DUP3 ADD SWAP1 POP SWAP2 SWAP1 POP JUMP JUMPDEST PUSH1 0x0 PUSH1 0x20 DUP3 ADD SWAP1 POP DUP2 DUP2 SUB PUSH1 0x0 DUP4 ADD MSTORE PUSH2 0x3D97 DUP2 PUSH2 0x3D5B JUMP JUMPDEST SWAP1 POP SWAP2 SWAP1 POP JUMP JUMPDEST PUSH32 0x4552433732313A2061646472657373207A65726F206973206E6F742061207661 PUSH1 0x0 DUP3 ADD MSTORE PUSH32 0x6C6964206F776E65720000000000000000000000000000000000000000000000 PUSH1 0x20 DUP3 ADD MSTORE POP JUMP JUMPDEST PUSH1 0x0 PUSH2 0x3DFA PUSH1 0x29 DUP4 PUSH2 0x2EC0 JUMP JUMPDEST SWAP2 POP PUSH2 0x3E05 DUP3 PUSH2 0x3D9E JUMP JUMPDEST PUSH1 0x40 DUP3 ADD SWAP1 POP SWAP2 SWAP1 POP JUMP JUMPDEST PUSH1 0x0 PUSH1 0x20 DUP3 ADD SWAP1 POP DUP2 DUP2 SUB PUSH1 0x0 DUP4 ADD MSTORE PUSH2 0x3E29 DUP2 PUSH2 0x3DED JUMP JUMPDEST SWAP1 POP SWAP2 SWAP1 POP JUMP JUMPDEST PUSH32 0x4E487B7100000000000000000000000000000000000000000000000000000000 PUSH1 0x0 MSTORE PUSH1 0x11 PUSH1 0x4 MSTORE PUSH1 0x24 PUSH1 0x0 REVERT JUMPDEST PUSH1 0x0 PUSH2 0x3E6A DUP3 PUSH2 0x2F70 JUMP JUMPDEST SWAP2 POP PUSH2 0x3E75 DUP4 PUSH2 0x2F70 JUMP JUMPDEST SWAP3 POP DUP3 PUSH32 0xFFFFFFFFFFFFFFFFFFFFFFFFFFFFFFFFFFFFFFFFFFFFFFFFFFFFFFFFFFFFFFFF SUB DUP3 GT ISZERO PUSH2 0x3EAA JUMPI PUSH2 0x3EA9 PUSH2 0x3E30 JUMP JUMPDEST JUMPDEST DUP3 DUP3 ADD SWAP1 POP SWAP3 SWAP2 POP POP JUMP JUMPDEST PUSH32 0x546F6F206D616E79206C6F6F7000000000000000000000000000000000000000 PUSH1 0x0 DUP3 ADD MSTORE POP JUMP JUMPDEST PUSH1 0x0 PUSH2 0x3EEB PUSH1 0xD DUP4 PUSH2 0x2EC0 JUMP JUMPDEST SWAP2 POP PUSH2 0x3EF6 DUP3 PUSH2 0x3EB5 JUMP JUMPDEST PUSH1 0x20 DUP3 ADD SWAP1 POP SWAP2 SWAP1 POP JUMP JUMPDEST PUSH1 0x0 PUSH1 0x20 DUP3 ADD SWAP1 POP DUP2 DUP2 SUB PUSH1 0x0 DUP4 ADD MSTORE PUSH2 0x3F1A DUP2 PUSH2 0x3EDE JUMP JUMPDEST SWAP1 POP SWAP2 SWAP1 POP JUMP JUMPDEST PUSH1 0x0 PUSH2 0x3F2C DUP3 PUSH2 0x3118 JUMP JUMPDEST SWAP2 POP PUSH1 0xFF DUP3 EQ ISZERO PUSH2 0x3F40 JUMPI PUSH2 0x3F3F PUSH2 0x3E30 JUMP JUMPDEST JUMPDEST PUSH1 0x1 DUP3 ADD SWAP1 POP SWAP2 SWAP1 POP JUMP JUMPDEST PUSH1 0x0 PUSH2 0x3F56 DUP3 PUSH2 0x2F70 JUMP JUMPDEST SWAP2 POP PUSH32 0xFFFFFFFFFFFFFFFFFFFFFFFFFFFFFFFFFFFFFFFFFFFFFFFFFFFFFFFFFFFFFFFF DUP3 EQ ISZERO PUSH2 0x3F89 JUMPI PUSH2 0x3F88 PUSH2 0x3E30 JUMP JUMPDEST JUMPDEST PUSH1 0x1 DUP3 ADD SWAP1 POP SWAP2 SWAP1 POP JUMP JUMPDEST PUSH1 0x0 PUSH2 0x3F9F DUP3 PUSH2 0x2F70 JUMP JUMPDEST SWAP2 POP PUSH1 0x0 DUP3 EQ ISZERO PUSH2 0x3FB3 JUMPI PUSH2 0x3FB2 PUSH2 0x3E30 JUMP JUMPDEST JUMPDEST PUSH1 0x1 DUP3 SUB SWAP1 POP SWAP2 SWAP1 POP JUMP JUMPDEST PUSH32 0x4552433732314D657461646174613A2055524920717565727920666F72206E6F PUSH1 0x0 DUP3 ADD MSTORE PUSH32 0x6E6578697374656E7420746F6B656E0000000000000000000000000000000000 PUSH1 0x20 DUP3 ADD MSTORE POP JUMP JUMPDEST PUSH1 0x0 PUSH2 0x401A PUSH1 0x2F DUP4 PUSH2 0x2EC0 JUMP JUMPDEST SWAP2 POP PUSH2 0x4025 DUP3 PUSH2 0x3FBE JUMP JUMPDEST PUSH1 0x40 DUP3 ADD SWAP1 POP SWAP2 SWAP1 POP JUMP JUMPDEST PUSH1 0x0 PUSH1 0x20 DUP3 ADD SWAP1 POP DUP2 DUP2 SUB PUSH1 0x0 DUP4 ADD MSTORE PUSH2 0x4049 DUP2 PUSH2 0x400D JUMP JUMPDEST SWAP1 POP SWAP2 SWAP1 POP JUMP JUMPDEST PUSH1 0x0 DUP2 SWAP1 POP SWAP3 SWAP2 POP POP JUMP JUMPDEST PUSH1 0x0 PUSH2 0x4066 DUP3 PUSH2 0x2EB5 JUMP JUMPDEST PUSH2 0x4070 DUP2 DUP6 PUSH2 0x4050 JUMP JUMPDEST SWAP4 POP PUSH2 0x4080 DUP2 DUP6 PUSH1 0x20 DUP7 ADD PUSH2 0x2ED1 JUMP JUMPDEST DUP1 DUP5 ADD SWAP2 POP POP SWAP3 SWAP2 POP POP JUMP JUMPDEST PUSH1 0x0 DUP2 SWAP1 POP DUP2 PUSH1 0x0 MSTORE PUSH1 0x20 PUSH1 0x0 KECCAK256 SWAP1 POP SWAP2 SWAP1 POP JUMP JUMPDEST PUSH1 0x0 DUP2 SLOAD PUSH2 0x40AE DUP2 PUSH2 0x3857 JUMP JUMPDEST PUSH2 0x40B8 DUP2 DUP7 PUSH2 0x4050 JUMP JUMPDEST SWAP5 POP PUSH1 0x1 DUP3 AND PUSH1 0x0 DUP2 EQ PUSH2 0x40D3 JUMPI PUSH1 0x1 DUP2 EQ PUSH2 0x40E4 JUMPI PUSH2 0x4117 JUMP JUMPDEST PUSH1 0xFF NOT DUP4 AND DUP7 MSTORE DUP2 DUP7 ADD SWAP4 POP PUSH2 0x4117 JUMP JUMPDEST PUSH2 0x40ED DUP6 PUSH2 0x408C JUMP JUMPDEST PUSH1 0x0 JUMPDEST DUP4 DUP2 LT ISZERO PUSH2 0x410F JUMPI DUP2 SLOAD DUP2 DUP10 ADD MSTORE PUSH1 0x1 DUP3 ADD SWAP2 POP PUSH1 0x20 DUP2 ADD SWAP1 POP PUSH2 0x40F0 JUMP JUMPDEST DUP4 DUP9 ADD SWAP6 POP POP POP JUMPDEST POP POP POP SWAP3 SWAP2 POP POP JUMP JUMPDEST PUSH1 0x0 PUSH2 0x412C DUP3 DUP7 PUSH2 0x405B JUMP JUMPDEST SWAP2 POP PUSH2 0x4138 DUP3 DUP6 PUSH2 0x405B JUMP JUMPDEST SWAP2 POP PUSH2 0x4144 DUP3 DUP5 PUSH2 0x40A1 JUMP JUMPDEST SWAP2 POP DUP2 SWAP1 POP SWAP5 SWAP4 POP POP POP POP JUMP JUMPDEST PUSH32 0x4552433732313A207472616E736665722066726F6D20696E636F727265637420 PUSH1 0x0 DUP3 ADD MSTORE PUSH32 0x6F776E6572000000000000000000000000000000000000000000000000000000 PUSH1 0x20 DUP3 ADD MSTORE POP JUMP JUMPDEST PUSH1 0x0 PUSH2 0x41AD PUSH1 0x25 DUP4 PUSH2 0x2EC0 JUMP JUMPDEST SWAP2 POP PUSH2 0x41B8 DUP3 PUSH2 0x4151 JUMP JUMPDEST PUSH1 0x40 DUP3 ADD SWAP1 POP SWAP2 SWAP1 POP JUMP JUMPDEST PUSH1 0x0 PUSH1 0x20 DUP3 ADD SWAP1 POP DUP2 DUP2 SUB PUSH1 0x0 DUP4 ADD MSTORE PUSH2 0x41DC DUP2 PUSH2 0x41A0 JUMP JUMPDEST SWAP1 POP SWAP2 SWAP1 POP JUMP JUMPDEST PUSH32 0x4552433732313A207472616E7366657220746F20746865207A65726F20616464 PUSH1 0x0 DUP3 ADD MSTORE PUSH32 0x7265737300000000000000000000000000000000000000000000000000000000 PUSH1 0x20 DUP3 ADD MSTORE POP JUMP JUMPDEST PUSH1 0x0 PUSH2 0x423F PUSH1 0x24 DUP4 PUSH2 0x2EC0 JUMP JUMPDEST SWAP2 POP PUSH2 0x424A DUP3 PUSH2 0x41E3 JUMP JUMPDEST PUSH1 0x40 DUP3 ADD SWAP1 POP SWAP2 SWAP1 POP JUMP JUMPDEST PUSH1 0x0 PUSH1 0x20 DUP3 ADD SWAP1 POP DUP2 DUP2 SUB PUSH1 0x0 DUP4 ADD MSTORE PUSH2 0x426E DUP2 PUSH2 0x4232 JUMP JUMPDEST SWAP1 POP SWAP2 SWAP1 POP JUMP JUMPDEST PUSH1 0x0 PUSH2 0x4280 DUP3 PUSH2 0x2F70 JUMP JUMPDEST SWAP2 POP PUSH2 0x428B DUP4 PUSH2 0x2F70 JUMP JUMPDEST SWAP3 POP DUP3 DUP3 LT ISZERO PUSH2 0x429E JUMPI PUSH2 0x429D PUSH2 0x3E30 JUMP JUMPDEST JUMPDEST DUP3 DUP3 SUB SWAP1 POP SWAP3 SWAP2 POP POP JUMP JUMPDEST PUSH32 0x496E697469616C697A61626C653A20636F6E7472616374206973206E6F742069 PUSH1 0x0 DUP3 ADD MSTORE PUSH32 0x6E697469616C697A696E67000000000000000000000000000000000000000000 PUSH1 0x20 DUP3 ADD MSTORE POP JUMP JUMPDEST PUSH1 0x0 PUSH2 0x4305 PUSH1 0x2B DUP4 PUSH2 0x2EC0 JUMP JUMPDEST SWAP2 POP PUSH2 0x4310 DUP3 PUSH2 0x42A9 JUMP JUMPDEST PUSH1 0x40 DUP3 ADD SWAP1 POP SWAP2 SWAP1 POP JUMP JUMPDEST PUSH1 0x0 PUSH1 0x20 DUP3 ADD SWAP1 POP DUP2 DUP2 SUB PUSH1 0x0 DUP4 ADD MSTORE PUSH2 0x4334 DUP2 PUSH2 0x42F8 JUMP JUMPDEST SWAP1 POP SWAP2 SWAP1 POP JUMP JUMPDEST PUSH32 0x4F7574206F6620626F756E647300000000000000000000000000000000000000 PUSH1 0x0 DUP3 ADD MSTORE POP JUMP JUMPDEST PUSH1 0x0 PUSH2 0x4371 PUSH1 0xD DUP4 PUSH2 0x2EC0 JUMP JUMPDEST SWAP2 POP PUSH2 0x437C DUP3 PUSH2 0x433B JUMP JUMPDEST PUSH1 0x20 DUP3 ADD SWAP1 POP SWAP2 SWAP1 POP JUMP JUMPDEST PUSH1 0x0 PUSH1 0x20 DUP3 ADD SWAP1 POP DUP2 DUP2 SUB PUSH1 0x0 DUP4 ADD MSTORE PUSH2 0x43A0 DUP2 PUSH2 0x4364 JUMP JUMPDEST SWAP1 POP SWAP2 SWAP1 POP JUMP JUMPDEST PUSH32 0x4E487B7100000000000000000000000000000000000000000000000000000000 PUSH1 0x0 MSTORE PUSH1 0x31 PUSH1 0x4 MSTORE PUSH1 0x24 PUSH1 0x0 REVERT JUMPDEST PUSH32 0x4552433732313A20617070726F766520746F2063616C6C657200000000000000 PUSH1 0x0 DUP3 ADD MSTORE POP JUMP JUMPDEST PUSH1 0x0 PUSH2 0x440C PUSH1 0x19 DUP4 PUSH2 0x2EC0 JUMP JUMPDEST SWAP2 POP PUSH2 0x4417 DUP3 PUSH2 0x43D6 JUMP JUMPDEST PUSH1 0x20 DUP3 ADD SWAP1 POP SWAP2 SWAP1 POP JUMP JUMPDEST PUSH1 0x0 PUSH1 0x20 DUP3 ADD SWAP1 POP DUP2 DUP2 SUB PUSH1 0x0 DUP4 ADD MSTORE PUSH2 0x443B DUP2 PUSH2 0x43FF JUMP JUMPDEST SWAP1 POP SWAP2 SWAP1 POP JUMP JUMPDEST PUSH32 0x4552433732313A207472616E7366657220746F206E6F6E204552433732315265 PUSH1 0x0 DUP3 ADD MSTORE PUSH32 0x63656976657220696D706C656D656E7465720000000000000000000000000000 PUSH1 0x20 DUP3 ADD MSTORE POP JUMP JUMPDEST PUSH1 0x0 PUSH2 0x449E PUSH1 0x32 DUP4 PUSH2 0x2EC0 JUMP JUMPDEST SWAP2 POP PUSH2 0x44A9 DUP3 PUSH2 0x4442 JUMP JUMPDEST PUSH1 0x40 DUP3 ADD SWAP1 POP SWAP2 SWAP1 POP JUMP JUMPDEST PUSH1 0x0 PUSH1 0x20 DUP3 ADD SWAP1 POP DUP2 DUP2 SUB PUSH1 0x0 DUP4 ADD MSTORE PUSH2 0x44CD DUP2 PUSH2 0x4491 JUMP JUMPDEST SWAP1 POP SWAP2 SWAP1 POP JUMP JUMPDEST PUSH32 0x4E487B7100000000000000000000000000000000000000000000000000000000 PUSH1 0x0 MSTORE PUSH1 0x12 PUSH1 0x4 MSTORE PUSH1 0x24 PUSH1 0x0 REVERT JUMPDEST PUSH1 0x0 PUSH2 0x450E DUP3 PUSH2 0x2F70 JUMP JUMPDEST SWAP2 POP PUSH2 0x4519 DUP4 PUSH2 0x2F70 JUMP JUMPDEST SWAP3 POP DUP3 PUSH2 0x4529 JUMPI PUSH2 0x4528 PUSH2 0x44D4 JUMP JUMPDEST JUMPDEST DUP3 DUP3 DIV SWAP1 POP SWAP3 SWAP2 POP POP JUMP JUMPDEST PUSH1 0x0 PUSH2 0x453F DUP3 PUSH2 0x2F70 JUMP JUMPDEST SWAP2 POP PUSH2 0x454A DUP4 PUSH2 0x2F70 JUMP JUMPDEST SWAP3 POP DUP3 PUSH2 0x455A JUMPI PUSH2 0x4559 PUSH2 0x44D4 JUMP JUMPDEST JUMPDEST DUP3 DUP3 MOD SWAP1 POP SWAP3 SWAP2 POP POP JUMP JUMPDEST PUSH1 0x0 DUP2 MLOAD SWAP1 POP SWAP2 SWAP1 POP JUMP JUMPDEST PUSH1 0x0 DUP3 DUP3 MSTORE PUSH1 0x20 DUP3 ADD SWAP1 POP SWAP3 SWAP2 POP POP JUMP JUMPDEST PUSH1 0x0 PUSH2 0x458C DUP3 PUSH2 0x4565 JUMP JUMPDEST PUSH2 0x4596 DUP2 DUP6 PUSH2 0x4570 JUMP JUMPDEST SWAP4 POP PUSH2 0x45A6 DUP2 DUP6 PUSH1 0x20 DUP7 ADD PUSH2 0x2ED1 JUMP JUMPDEST PUSH2 0x45AF DUP2 PUSH2 0x2F04 JUMP JUMPDEST DUP5 ADD SWAP2 POP POP SWAP3 SWAP2 POP POP JUMP JUMPDEST PUSH1 0x0 PUSH1 0x80 DUP3 ADD SWAP1 POP PUSH2 0x45CF PUSH1 0x0 DUP4 ADD DUP8 PUSH2 0x3005 JUMP JUMPDEST PUSH2 0x45DC PUSH1 0x20 DUP4 ADD DUP7 PUSH2 0x3005 JUMP JUMPDEST PUSH2 0x45E9 PUSH1 0x40 DUP4 ADD DUP6 PUSH2 0x309B JUMP JUMPDEST DUP2 DUP2 SUB PUSH1 0x60 DUP4 ADD MSTORE PUSH2 0x45FB DUP2 DUP5 PUSH2 0x4581 JUMP JUMPDEST SWAP1 POP SWAP6 SWAP5 POP POP POP POP POP JUMP JUMPDEST PUSH1 0x0 DUP2 MLOAD SWAP1 POP PUSH2 0x4615 DUP2 PUSH2 0x2E26 JUMP JUMPDEST SWAP3 SWAP2 POP POP JUMP JUMPDEST PUSH1 0x0 PUSH1 0x20 DUP3 DUP5 SUB SLT ISZERO PUSH2 0x4631 JUMPI PUSH2 0x4630 PUSH2 0x2DF0 JUMP JUMPDEST JUMPDEST PUSH1 0x0 PUSH2 0x463F DUP5 DUP3 DUP6 ADD PUSH2 0x4606 JUMP JUMPDEST SWAP2 POP POP SWAP3 SWAP2 POP POP JUMP JUMPDEST PUSH32 0x4552433732313A206D696E7420746F20746865207A65726F2061646472657373 PUSH1 0x0 DUP3 ADD MSTORE POP JUMP JUMPDEST PUSH1 0x0 PUSH2 0x467E PUSH1 0x20 DUP4 PUSH2 0x2EC0 JUMP JUMPDEST SWAP2 POP PUSH2 0x4689 DUP3 PUSH2 0x4648 JUMP JUMPDEST PUSH1 0x20 DUP3 ADD SWAP1 POP SWAP2 SWAP1 POP JUMP JUMPDEST PUSH1 0x0 PUSH1 0x20 DUP3 ADD SWAP1 POP DUP2 DUP2 SUB PUSH1 0x0 DUP4 ADD MSTORE PUSH2 0x46AD DUP2 PUSH2 0x4671 JUMP JUMPDEST SWAP1 POP SWAP2 SWAP1 POP JUMP JUMPDEST PUSH32 0x4552433732313A20746F6B656E20616C7265616479206D696E74656400000000 PUSH1 0x0 DUP3 ADD MSTORE POP JUMP JUMPDEST PUSH1 0x0 PUSH2 0x46EA PUSH1 0x1C DUP4 PUSH2 0x2EC0 JUMP JUMPDEST SWAP2 POP PUSH2 0x46F5 DUP3 PUSH2 0x46B4 JUMP JUMPDEST PUSH1 0x20 DUP3 ADD SWAP1 POP SWAP2 SWAP1 POP JUMP JUMPDEST PUSH1 0x0 PUSH1 0x20 DUP3 ADD SWAP1 POP DUP2 DUP2 SUB PUSH1 0x0 DUP4 ADD MSTORE PUSH2 0x4719 DUP2 PUSH2 0x46DD JUMP JUMPDEST SWAP1 POP SWAP2 SWAP1 POP JUMP INVALID LOG2 PUSH5 0x6970667358 0x22 SLT KECCAK256 PUSH1 0x97 PUSH19 0xC47F65D7F6448B84A9EE1F2627FE8375BC83D4 SLT 0xDC SWAP4 0x2D 0xDD LOG4 NUMBER 0xE1 PUSH7 0x864736F6C6343 STOP ADDMOD EXP STOP CALLER "
		},
		"gasEstimates": {
			"creation": {
				"codeDepositCost": "3652400",
				"executionCost": "infinite",
				"totalCost": "infinite"
			},
			"external": {
				"approve(address,uint256)": "infinite",
				"approveAllNFT(address,uint256[])": "infinite",
				"approveNFT(address,uint256)": "24627",
				"balanceOf(address)": "1647",
				"changeTime(uint256,uint256)": "infinite",
				"checkMintedNftList()": "infinite",
				"checkMintedNormalNFTNum()": "1297",
				"checkMintedWhitelistNFTNum()": "1297",
				"checkStakedNFTs()": "infinite",
				"getApproved(uint256)": "2680",
				"initialize(string,string,string,address)": "infinite",
				"isApprovedForAll(address,address)": "infinite",
				"isStaked(uint256)": "1611",
				"isWhitelisted(address)": "infinite",
				"name()": "infinite",
				"ownerOf(uint256)": "1748",
				"ownerOfStaking(uint256)": "2656",
				"safeMint(address,uint256,uint8)": "infinite",
				"safeTransferFrom(address,address,uint256)": "infinite",
				"safeTransferFrom(address,address,uint256,bytes)": "infinite",
				"setApprovalForAll(address,bool)": "infinite",
				"stakedFunc(uint256,uint256,address)": "infinite",
				"supportsInterface(bytes4)": "909",
				"symbol()": "infinite",
				"tokenByIndex(uint256)": "infinite",
				"tokenOfOwnerByIndex(address,uint256)": "infinite",
				"tokenURI(uint256)": "infinite",
				"tokens(address)": "infinite",
				"totalSupply()": "1191",
				"transferFrom(address,address,uint256)": "infinite",
				"userRank()": "infinite",
				"whenStaked(uint256)": "infinite"
			},
			"internal": {
				"_baseURI()": "infinite",
				"deleteStake(uint256)": "30983",
				"indexOf(uint256[] memory,uint256)": "infinite",
				"remove(uint256[] storage pointer,uint256)": "infinite",
				"safeMinting(address,uint256)": "infinite",
				"setStake(uint256,uint256,address)": "infinite"
			}
		},
		"methodIdentifiers": {
			"approve(address,uint256)": "095ea7b3",
			"approveAllNFT(address,uint256[])": "7fdcc5b8",
			"approveNFT(address,uint256)": "9600dd83",
			"balanceOf(address)": "70a08231",
			"changeTime(uint256,uint256)": "707188c1",
			"checkMintedNftList()": "282b79f0",
			"checkMintedNormalNFTNum()": "c73eefda",
			"checkMintedWhitelistNFTNum()": "a1b3351a",
			"checkStakedNFTs()": "5541c3f9",
			"getApproved(uint256)": "081812fc",
			"initialize(string,string,string,address)": "5c6d8da1",
			"isApprovedForAll(address,address)": "e985e9c5",
			"isStaked(uint256)": "baa51f86",
			"isWhitelisted(address)": "3af32abf",
			"name()": "06fdde03",
			"ownerOf(uint256)": "6352211e",
			"ownerOfStaking(uint256)": "69ade8b6",
			"safeMint(address,uint256,uint8)": "23cfeeca",
			"safeTransferFrom(address,address,uint256)": "42842e0e",
			"safeTransferFrom(address,address,uint256,bytes)": "b88d4fde",
			"setApprovalForAll(address,bool)": "a22cb465",
			"stakedFunc(uint256,uint256,address)": "91708caf",
			"supportsInterface(bytes4)": "01ffc9a7",
			"symbol()": "95d89b41",
			"tokenByIndex(uint256)": "4f6ccce7",
			"tokenOfOwnerByIndex(address,uint256)": "2f745c59",
			"tokenURI(uint256)": "c87b56dd",
			"tokens(address)": "e4860339",
			"totalSupply()": "18160ddd",
			"transferFrom(address,address,uint256)": "23b872dd",
			"userRank()": "738fa7a4",
			"whenStaked(uint256)": "efb4b362"
		}
	},
	"abi": [
		{
			"anonymous": false,
			"inputs": [
				{
					"indexed": true,
					"internalType": "address",
					"name": "owner",
					"type": "address"
				},
				{
					"indexed": true,
					"internalType": "address",
					"name": "approved",
					"type": "address"
				},
				{
					"indexed": true,
					"internalType": "uint256",
					"name": "tokenId",
					"type": "uint256"
				}
			],
			"name": "Approval",
			"type": "event"
		},
		{
			"anonymous": false,
			"inputs": [
				{
					"indexed": true,
					"internalType": "address",
					"name": "owner",
					"type": "address"
				},
				{
					"indexed": true,
					"internalType": "address",
					"name": "operator",
					"type": "address"
				},
				{
					"indexed": false,
					"internalType": "bool",
					"name": "approved",
					"type": "bool"
				}
			],
			"name": "ApprovalForAll",
			"type": "event"
		},
		{
			"anonymous": false,
			"inputs": [
				{
					"indexed": false,
					"internalType": "uint8",
					"name": "version",
					"type": "uint8"
				}
			],
			"name": "Initialized",
			"type": "event"
		},
		{
			"anonymous": false,
			"inputs": [
				{
					"indexed": true,
					"internalType": "address",
					"name": "from",
					"type": "address"
				},
				{
					"indexed": true,
					"internalType": "address",
					"name": "to",
					"type": "address"
				},
				{
					"indexed": true,
					"internalType": "uint256",
					"name": "tokenId",
					"type": "uint256"
				}
			],
			"name": "Transfer",
			"type": "event"
		},
		{
			"inputs": [
				{
					"internalType": "address",
					"name": "to",
					"type": "address"
				},
				{
					"internalType": "uint256",
					"name": "tokenId",
					"type": "uint256"
				}
			],
			"name": "approve",
			"outputs": [],
			"stateMutability": "nonpayable",
			"type": "function"
		},
		{
			"inputs": [
				{
					"internalType": "address",
					"name": "_address",
					"type": "address"
				},
				{
					"internalType": "uint256[]",
					"name": "_tokenId",
					"type": "uint256[]"
				}
			],
			"name": "approveAllNFT",
			"outputs": [],
			"stateMutability": "nonpayable",
			"type": "function"
		},
		{
			"inputs": [
				{
					"internalType": "address",
					"name": "_address",
					"type": "address"
				},
				{
					"internalType": "uint256",
					"name": "_tokenId",
					"type": "uint256"
				}
			],
			"name": "approveNFT",
			"outputs": [],
			"stateMutability": "nonpayable",
			"type": "function"
		},
		{
			"inputs": [
				{
					"internalType": "address",
					"name": "owner",
					"type": "address"
				}
			],
			"name": "balanceOf",
			"outputs": [
				{
					"internalType": "uint256",
					"name": "",
					"type": "uint256"
				}
			],
			"stateMutability": "view",
			"type": "function"
		},
		{
			"inputs": [
				{
					"internalType": "uint256",
					"name": "tokenId",
					"type": "uint256"
				},
				{
					"internalType": "uint256",
					"name": "_time",
					"type": "uint256"
				}
			],
			"name": "changeTime",
			"outputs": [],
			"stateMutability": "nonpayable",
			"type": "function"
		},
		{
			"inputs": [],
			"name": "checkMintedNftList",
			"outputs": [
				{
					"internalType": "uint256[]",
					"name": "",
					"type": "uint256[]"
				}
			],
			"stateMutability": "view",
			"type": "function"
		},
		{
			"inputs": [],
			"name": "checkMintedNormalNFTNum",
			"outputs": [
				{
					"internalType": "uint256",
					"name": "",
					"type": "uint256"
				}
			],
			"stateMutability": "view",
			"type": "function"
		},
		{
			"inputs": [],
			"name": "checkMintedWhitelistNFTNum",
			"outputs": [
				{
					"internalType": "uint256",
					"name": "",
					"type": "uint256"
				}
			],
			"stateMutability": "view",
			"type": "function"
		},
		{
			"inputs": [],
			"name": "checkStakedNFTs",
			"outputs": [
				{
					"internalType": "uint256[]",
					"name": "",
					"type": "uint256[]"
				}
			],
			"stateMutability": "view",
			"type": "function"
		},
		{
			"inputs": [
				{
					"internalType": "uint256",
					"name": "tokenId",
					"type": "uint256"
				}
			],
			"name": "getApproved",
			"outputs": [
				{
					"internalType": "address",
					"name": "",
					"type": "address"
				}
			],
			"stateMutability": "view",
			"type": "function"
		},
		{
			"inputs": [
				{
					"internalType": "string",
					"name": "_name",
					"type": "string"
				},
				{
					"internalType": "string",
					"name": "_symbol",
					"type": "string"
				},
				{
					"internalType": "string",
					"name": "_ipfs",
					"type": "string"
				},
				{
					"internalType": "address",
					"name": "_whitelistCon",
					"type": "address"
				}
			],
			"name": "initialize",
			"outputs": [],
			"stateMutability": "nonpayable",
			"type": "function"
		},
		{
			"inputs": [
				{
					"internalType": "address",
					"name": "owner",
					"type": "address"
				},
				{
					"internalType": "address",
					"name": "operator",
					"type": "address"
				}
			],
			"name": "isApprovedForAll",
			"outputs": [
				{
					"internalType": "bool",
					"name": "",
					"type": "bool"
				}
			],
			"stateMutability": "view",
			"type": "function"
		},
		{
			"inputs": [
				{
					"internalType": "uint256",
					"name": "tokenId",
					"type": "uint256"
				}
			],
			"name": "isStaked",
			"outputs": [
				{
					"internalType": "bool",
					"name": "",
					"type": "bool"
				}
			],
			"stateMutability": "view",
			"type": "function"
		},
		{
			"inputs": [
				{
					"internalType": "address",
					"name": "_address",
					"type": "address"
				}
			],
			"name": "isWhitelisted",
			"outputs": [
				{
					"internalType": "bool",
					"name": "",
					"type": "bool"
				}
			],
			"stateMutability": "view",
			"type": "function"
		},
		{
			"inputs": [],
			"name": "name",
			"outputs": [
				{
					"internalType": "string",
					"name": "",
					"type": "string"
				}
			],
			"stateMutability": "view",
			"type": "function"
		},
		{
			"inputs": [
				{
					"internalType": "uint256",
					"name": "tokenId",
					"type": "uint256"
				}
			],
			"name": "ownerOf",
			"outputs": [
				{
					"internalType": "address",
					"name": "",
					"type": "address"
				}
			],
			"stateMutability": "view",
			"type": "function"
		},
		{
			"inputs": [
				{
					"internalType": "uint256",
					"name": "tokenId",
					"type": "uint256"
				}
			],
			"name": "ownerOfStaking",
			"outputs": [
				{
					"internalType": "address",
					"name": "",
					"type": "address"
				}
			],
			"stateMutability": "view",
			"type": "function"
		},
		{
			"inputs": [
				{
					"internalType": "address",
					"name": "to",
					"type": "address"
				},
				{
					"internalType": "uint256",
					"name": "tokenId",
					"type": "uint256"
				},
				{
					"internalType": "uint8",
					"name": "status",
					"type": "uint8"
				}
			],
			"name": "safeMint",
			"outputs": [],
			"stateMutability": "nonpayable",
			"type": "function"
		},
		{
			"inputs": [
				{
					"internalType": "address",
					"name": "from",
					"type": "address"
				},
				{
					"internalType": "address",
					"name": "to",
					"type": "address"
				},
				{
					"internalType": "uint256",
					"name": "tokenId",
					"type": "uint256"
				}
			],
			"name": "safeTransferFrom",
			"outputs": [],
			"stateMutability": "nonpayable",
			"type": "function"
		},
		{
			"inputs": [
				{
					"internalType": "address",
					"name": "from",
					"type": "address"
				},
				{
					"internalType": "address",
					"name": "to",
					"type": "address"
				},
				{
					"internalType": "uint256",
					"name": "tokenId",
					"type": "uint256"
				},
				{
					"internalType": "bytes",
					"name": "data",
					"type": "bytes"
				}
			],
			"name": "safeTransferFrom",
			"outputs": [],
			"stateMutability": "nonpayable",
			"type": "function"
		},
		{
			"inputs": [
				{
					"internalType": "address",
					"name": "operator",
					"type": "address"
				},
				{
					"internalType": "bool",
					"name": "approved",
					"type": "bool"
				}
			],
			"name": "setApprovalForAll",
			"outputs": [],
			"stateMutability": "nonpayable",
			"type": "function"
		},
		{
			"inputs": [
				{
					"internalType": "uint256",
					"name": "_tokenId",
					"type": "uint256"
				},
				{
					"internalType": "uint256",
					"name": "_timestamp",
					"type": "uint256"
				},
				{
					"internalType": "address",
					"name": "_owner",
					"type": "address"
				}
			],
			"name": "stakedFunc",
			"outputs": [],
			"stateMutability": "nonpayable",
			"type": "function"
		},
		{
			"inputs": [
				{
					"internalType": "bytes4",
					"name": "interfaceId",
					"type": "bytes4"
				}
			],
			"name": "supportsInterface",
			"outputs": [
				{
					"internalType": "bool",
					"name": "",
					"type": "bool"
				}
			],
			"stateMutability": "view",
			"type": "function"
		},
		{
			"inputs": [],
			"name": "symbol",
			"outputs": [
				{
					"internalType": "string",
					"name": "",
					"type": "string"
				}
			],
			"stateMutability": "view",
			"type": "function"
		},
		{
			"inputs": [
				{
					"internalType": "uint256",
					"name": "index",
					"type": "uint256"
				}
			],
			"name": "tokenByIndex",
			"outputs": [
				{
					"internalType": "uint256",
					"name": "",
					"type": "uint256"
				}
			],
			"stateMutability": "view",
			"type": "function"
		},
		{
			"inputs": [
				{
					"internalType": "address",
					"name": "owner",
					"type": "address"
				},
				{
					"internalType": "uint256",
					"name": "index",
					"type": "uint256"
				}
			],
			"name": "tokenOfOwnerByIndex",
			"outputs": [
				{
					"internalType": "uint256",
					"name": "",
					"type": "uint256"
				}
			],
			"stateMutability": "view",
			"type": "function"
		},
		{
			"inputs": [
				{
					"internalType": "uint256",
					"name": "tokenId",
					"type": "uint256"
				}
			],
			"name": "tokenURI",
			"outputs": [
				{
					"internalType": "string",
					"name": "",
					"type": "string"
				}
			],
			"stateMutability": "view",
			"type": "function"
		},
		{
			"inputs": [
				{
					"internalType": "address",
					"name": "_owner",
					"type": "address"
				}
			],
			"name": "tokens",
			"outputs": [
				{
					"internalType": "uint256[]",
					"name": "",
					"type": "uint256[]"
				}
			],
			"stateMutability": "view",
			"type": "function"
		},
		{
			"inputs": [],
			"name": "totalSupply",
			"outputs": [
				{
					"internalType": "uint256",
					"name": "",
					"type": "uint256"
				}
			],
			"stateMutability": "view",
			"type": "function"
		},
		{
			"inputs": [
				{
					"internalType": "address",
					"name": "from",
					"type": "address"
				},
				{
					"internalType": "address",
					"name": "to",
					"type": "address"
				},
				{
					"internalType": "uint256",
					"name": "tokenId",
					"type": "uint256"
				}
			],
			"name": "transferFrom",
			"outputs": [],
			"stateMutability": "nonpayable",
			"type": "function"
		},
		{
			"inputs": [],
			"name": "userRank",
			"outputs": [
				{
					"internalType": "uint256",
					"name": "",
					"type": "uint256"
				}
			],
			"stateMutability": "view",
			"type": "function"
		},
		{
			"inputs": [
				{
					"internalType": "uint256",
					"name": "tokenId",
					"type": "uint256"
				}
			],
			"name": "whenStaked",
			"outputs": [
				{
					"internalType": "uint256",
					"name": "",
					"type": "uint256"
				}
			],
			"stateMutability": "view",
			"type": "function"
		}
	]
}